{
  "_format": "hh-sol-artifact-1",
  "contractName": "SFuelUsersUpgradeable",
  "sourceName": "sfuel/contracts/s_fuel/SFuelUsersUpgradeable.sol",
  "abi": [
    {
      "anonymous": false,
      "inputs": [
        {
          "indexed": true,
          "internalType": "address",
          "name": "caller",
          "type": "address"
        },
        {
          "indexed": false,
          "internalType": "uint256",
          "name": "value",
          "type": "uint256"
        }
      ],
      "name": "ContractFilled",
      "type": "event"
    },
    {
      "anonymous": false,
      "inputs": [
        {
          "indexed": true,
          "internalType": "address",
          "name": "sender",
          "type": "address"
        },
        {
          "indexed": false,
          "internalType": "uint256",
          "name": "value",
          "type": "uint256"
        }
      ],
      "name": "EtherDeposit",
      "type": "event"
    },
    {
      "anonymous": false,
      "inputs": [
        {
          "indexed": false,
          "internalType": "uint8",
          "name": "version",
          "type": "uint8"
        }
      ],
      "name": "Initialized",
      "type": "event"
    },
    {
      "anonymous": false,
      "inputs": [
        {
          "indexed": true,
          "internalType": "address",
          "name": "reciever",
          "type": "address"
        },
        {
          "indexed": false,
          "internalType": "uint256",
          "name": "amount",
          "type": "uint256"
        }
      ],
      "name": "RetrievedSFuel",
      "type": "event"
    },
    {
      "anonymous": false,
      "inputs": [
        {
          "indexed": true,
          "internalType": "address",
          "name": "returner",
          "type": "address"
        },
        {
          "indexed": false,
          "internalType": "uint256",
          "name": "amount",
          "type": "uint256"
        }
      ],
      "name": "ReturnedSFuel",
      "type": "event"
    },
    {
      "anonymous": false,
      "inputs": [
        {
          "indexed": true,
          "internalType": "bytes32",
          "name": "role",
          "type": "bytes32"
        },
        {
          "indexed": true,
          "internalType": "bytes32",
          "name": "previousAdminRole",
          "type": "bytes32"
        },
        {
          "indexed": true,
          "internalType": "bytes32",
          "name": "newAdminRole",
          "type": "bytes32"
        }
      ],
      "name": "RoleAdminChanged",
      "type": "event"
    },
    {
      "anonymous": false,
      "inputs": [
        {
          "indexed": true,
          "internalType": "address",
          "name": "reciever",
          "type": "address"
        },
        {
          "indexed": true,
          "internalType": "address",
          "name": "caller",
          "type": "address"
        },
        {
          "indexed": true,
          "internalType": "bytes32",
          "name": "role",
          "type": "bytes32"
        }
      ],
      "name": "RoleGranted",
      "type": "event"
    },
    {
      "anonymous": false,
      "inputs": [
        {
          "indexed": true,
          "internalType": "bytes32",
          "name": "role",
          "type": "bytes32"
        },
        {
          "indexed": true,
          "internalType": "address",
          "name": "account",
          "type": "address"
        },
        {
          "indexed": true,
          "internalType": "address",
          "name": "sender",
          "type": "address"
        }
      ],
      "name": "RoleGranted",
      "type": "event"
    },
    {
      "anonymous": false,
      "inputs": [
        {
          "indexed": true,
          "internalType": "address",
          "name": "removed",
          "type": "address"
        },
        {
          "indexed": true,
          "internalType": "address",
          "name": "caller",
          "type": "address"
        },
        {
          "indexed": true,
          "internalType": "bytes32",
          "name": "role",
          "type": "bytes32"
        }
      ],
      "name": "RoleRemoved",
      "type": "event"
    },
    {
      "anonymous": false,
      "inputs": [
        {
          "indexed": true,
          "internalType": "bytes32",
          "name": "role",
          "type": "bytes32"
        },
        {
          "indexed": true,
          "internalType": "address",
          "name": "account",
          "type": "address"
        },
        {
          "indexed": true,
          "internalType": "address",
          "name": "sender",
          "type": "address"
        }
      ],
      "name": "RoleRevoked",
      "type": "event"
    },
    {
      "stateMutability": "payable",
      "type": "fallback"
    },
    {
      "inputs": [],
      "name": "ACTIVE_MANAGER_ROLE",
      "outputs": [
        {
          "internalType": "bytes32",
          "name": "",
          "type": "bytes32"
        }
      ],
      "stateMutability": "view",
      "type": "function"
    },
    {
      "inputs": [],
      "name": "CONTRACT_MANAGER_ROLE",
      "outputs": [
        {
          "internalType": "bytes32",
          "name": "",
          "type": "bytes32"
        }
      ],
      "stateMutability": "view",
      "type": "function"
    },
    {
      "inputs": [],
      "name": "DEFAULT_ADMIN_ROLE",
      "outputs": [
        {
          "internalType": "bytes32",
          "name": "",
          "type": "bytes32"
        }
      ],
      "stateMutability": "view",
      "type": "function"
    },
    {
      "inputs": [],
      "name": "IS_WHITELISTED_USER",
      "outputs": [
        {
          "internalType": "bytes32",
          "name": "",
          "type": "bytes32"
        }
      ],
      "stateMutability": "view",
      "type": "function"
    },
    {
      "inputs": [],
      "name": "WHITELIST_MANAGER_ROLE",
      "outputs": [
        {
          "internalType": "bytes32",
          "name": "",
          "type": "bytes32"
        }
      ],
      "stateMutability": "view",
      "type": "function"
    },
    {
      "inputs": [],
      "name": "fillContract",
      "outputs": [],
      "stateMutability": "nonpayable",
      "type": "function"
    },
    {
      "inputs": [],
      "name": "getBalance",
      "outputs": [
        {
          "internalType": "uint256",
          "name": "",
          "type": "uint256"
        }
      ],
      "stateMutability": "view",
      "type": "function"
    },
    {
      "inputs": [],
      "name": "getContractBalance",
      "outputs": [
        {
          "internalType": "uint256",
          "name": "",
          "type": "uint256"
        }
      ],
      "stateMutability": "view",
      "type": "function"
    },
    {
      "inputs": [
        {
          "internalType": "bytes32",
          "name": "role",
          "type": "bytes32"
        }
      ],
      "name": "getRoleAdmin",
      "outputs": [
        {
          "internalType": "bytes32",
          "name": "",
          "type": "bytes32"
        }
      ],
      "stateMutability": "view",
      "type": "function"
    },
    {
      "inputs": [
        {
          "internalType": "bytes32",
          "name": "role",
          "type": "bytes32"
        },
        {
          "internalType": "uint256",
          "name": "index",
          "type": "uint256"
        }
      ],
      "name": "getRoleMember",
      "outputs": [
        {
          "internalType": "address",
          "name": "",
          "type": "address"
        }
      ],
      "stateMutability": "view",
      "type": "function"
    },
    {
      "inputs": [
        {
          "internalType": "bytes32",
          "name": "role",
          "type": "bytes32"
        }
      ],
      "name": "getRoleMemberCount",
      "outputs": [
        {
          "internalType": "uint256",
          "name": "",
          "type": "uint256"
        }
      ],
      "stateMutability": "view",
      "type": "function"
    },
    {
      "inputs": [
        {
          "internalType": "bytes32",
          "name": "role",
          "type": "bytes32"
        },
        {
          "internalType": "address",
          "name": "account",
          "type": "address"
        }
      ],
      "name": "grantRole",
      "outputs": [],
      "stateMutability": "nonpayable",
      "type": "function"
    },
    {
      "inputs": [
        {
          "internalType": "bytes32",
          "name": "role",
          "type": "bytes32"
        },
        {
          "internalType": "address",
          "name": "account",
          "type": "address"
        }
      ],
      "name": "hasRole",
      "outputs": [
        {
          "internalType": "bool",
          "name": "",
          "type": "bool"
        }
      ],
      "stateMutability": "view",
      "type": "function"
    },
    {
      "inputs": [],
      "name": "initialize",
      "outputs": [],
      "stateMutability": "nonpayable",
      "type": "function"
    },
    {
      "inputs": [
        {
          "internalType": "bytes32",
          "name": "role",
          "type": "bytes32"
        },
        {
          "internalType": "address",
          "name": "account",
          "type": "address"
        }
      ],
      "name": "renounceRole",
      "outputs": [],
      "stateMutability": "nonpayable",
      "type": "function"
    },
    {
      "inputs": [],
      "name": "retrieveSFuel",
      "outputs": [],
      "stateMutability": "nonpayable",
      "type": "function"
    },
    {
      "inputs": [
        {
          "internalType": "bytes32",
          "name": "role",
          "type": "bytes32"
        },
        {
          "internalType": "address",
          "name": "account",
          "type": "address"
        }
      ],
      "name": "revokeRole",
      "outputs": [],
      "stateMutability": "nonpayable",
      "type": "function"
    },
    {
      "inputs": [
        {
          "internalType": "bytes4",
          "name": "interfaceId",
          "type": "bytes4"
        }
      ],
      "name": "supportsInterface",
      "outputs": [
        {
          "internalType": "bool",
          "name": "",
          "type": "bool"
        }
      ],
      "stateMutability": "view",
      "type": "function"
    },
    {
      "stateMutability": "payable",
      "type": "receive"
    }
  ],
  "bytecode": "0x6080604052633b9aca0060c955620f424060c9546200001f91906200008a565b60ca55600060cb60006101000a81548160ff0219169083151502179055503480156200004a57600080fd5b50620000eb565b6000819050919050565b7f4e487b7100000000000000000000000000000000000000000000000000000000600052601160045260246000fd5b6000620000978262000051565b9150620000a48362000051565b9250817fffffffffffffffffffffffffffffffffffffffffffffffffffffffffffffffff0483118215151615620000e057620000df6200005b565b5b828202905092915050565b61228080620000fb6000396000f3fe60806040526004361061010d5760003560e01c80637295ed93116100955780639d28b506116100645780639d28b506146103f3578063a217fddf1461041e578063ca15c87314610449578063cf31cf2814610486578063d547741f146104b157610162565b80637295ed93146103375780638129fc1c146103625780639010d07c1461037957806391d14854146103b657610162565b8063248a9ca3116100dc578063248a9ca3146102665780632f2ff15d146102a357806336568abe146102cc57806355c09d2a146102f55780636f9fb98a1461030c57610162565b806301ffc9a7146101bc57806312065fe0146101f9578063131c53d914610224578063215ac4be1461024f57610162565b36610162573373ffffffffffffffffffffffffffffffffffffffff167fa58b71ad2e6ce803dd1eec62e2f3717a164a8912ee33eb51a57a234ba56b5535346040516101589190611792565b60405180910390a2005b60003411156101ba573373ffffffffffffffffffffffffffffffffffffffff167fa58b71ad2e6ce803dd1eec62e2f3717a164a8912ee33eb51a57a234ba56b5535346040516101b19190611792565b60405180910390a25b005b3480156101c857600080fd5b506101e360048036038101906101de919061180a565b6104da565b6040516101f09190611852565b60405180910390f35b34801561020557600080fd5b5061020e610554565b60405161021b9190611792565b60405180910390f35b34801561023057600080fd5b50610239610573565b6040516102469190611886565b60405180910390f35b34801561025b57600080fd5b50610264610597565b005b34801561027257600080fd5b5061028d600480360381019061028891906118cd565b61077c565b60405161029a9190611886565b60405180910390f35b3480156102af57600080fd5b506102ca60048036038101906102c59190611958565b61079c565b005b3480156102d857600080fd5b506102f360048036038101906102ee9190611958565b6107bd565b005b34801561030157600080fd5b5061030a610840565b005b34801561031857600080fd5b50610321610a65565b60405161032e9190611792565b60405180910390f35b34801561034357600080fd5b5061034c610a6d565b6040516103599190611886565b60405180910390f35b34801561036e57600080fd5b50610377610a91565b005b34801561038557600080fd5b506103a0600480360381019061039b91906119c4565b610be0565b6040516103ad9190611a13565b60405180910390f35b3480156103c257600080fd5b506103dd60048036038101906103d89190611958565b610c0f565b6040516103ea9190611852565b60405180910390f35b3480156103ff57600080fd5b50610408610c7a565b6040516104159190611886565b60405180910390f35b34801561042a57600080fd5b50610433610c9e565b6040516104409190611886565b60405180910390f35b34801561045557600080fd5b50610470600480360381019061046b91906118cd565b610ca5565b60405161047d9190611792565b60405180910390f35b34801561049257600080fd5b5061049b610cc9565b6040516104a89190611886565b60405180910390f35b3480156104bd57600080fd5b506104d860048036038101906104d39190611958565b610ced565b005b60007f5a05180f000000000000000000000000000000000000000000000000000000007bffffffffffffffffffffffffffffffffffffffffffffffffffffffff1916827bffffffffffffffffffffffffffffffffffffffffffffffffffffffff1916148061054d575061054c82610d0e565b5b9050919050565b60003373ffffffffffffffffffffffffffffffffffffffff1631905090565b7faa35297b265f70e7864cdb6b468dec7c6b363aa63d0fb01919c66f6548a9ff2781565b60cb60009054906101000a900460ff16156105e7576040517f08c379a00000000000000000000000000000000000000000000000000000000081526004016105de90611a8b565b60405180910390fd5b6106117f8135f02737a6b32709c1f229001b55183df0d6abcb3022e8bae091ad43fd9e6d33610c0f565b610650576040517f08c379a000000000000000000000000000000000000000000000000000000000815260040161064790611af7565b60405180910390fd5b600061065b30610d88565b9050600061066882610da9565b9050610672610dc0565b73ffffffffffffffffffffffffffffffffffffffff1663204a3e9330836040518363ffffffff1660e01b81526004016106ac929190611b38565b600060405180830381600087803b1580156106c657600080fd5b505af11580156106da573d6000803e3d6000fd5b5050505060ca546106ea30610d88565b1461072a576040517f08c379a000000000000000000000000000000000000000000000000000000000815260040161072190611bad565b60405180910390fd5b3373ffffffffffffffffffffffffffffffffffffffff167f2d6e436d93e4e3143f5d97f5786f48e9736d037972d20e408bb1aa2284bf6c0f826040516107709190611792565b60405180910390a25050565b600060656000838152602001908152602001600020600101549050919050565b6107a58261077c565b6107ae81610dcf565b6107b88383610de3565b505050565b6107c5610e17565b73ffffffffffffffffffffffffffffffffffffffff168173ffffffffffffffffffffffffffffffffffffffff1614610832576040517f08c379a000000000000000000000000000000000000000000000000000000000815260040161082990611c3f565b60405180910390fd5b61083c8282610e1f565b5050565b60cb60009054906101000a900460ff1615610890576040517f08c379a000000000000000000000000000000000000000000000000000000000815260040161088790611a8b565b60405180910390fd5b6108ba7f346536c0fe970b9c60c7d91955f37ec88ba0e153cc3d81537a6c8d45fa3398d133610c0f565b6108f9576040517f08c379a00000000000000000000000000000000000000000000000000000000081526004016108f090611cab565b60405180910390fd5b600061090433610d88565b905060c9548110156109b457600061091b82610e53565b90503373ffffffffffffffffffffffffffffffffffffffff166108fc829081150290604051600060405180830381858888f19350505050158015610963573d6000803e3d6000fd5b503373ffffffffffffffffffffffffffffffffffffffff167fcaa2147b3f9864f2c5b11b0f9f7329fcd16cb0feb49a9136a04a1550f7a5dde3826040516109aa9190611792565b60405180910390a2505b60c954811115610a625760006109c982610e6a565b90503073ffffffffffffffffffffffffffffffffffffffff166108fc829081150290604051600060405180830381858888f19350505050158015610a11573d6000803e3d6000fd5b503373ffffffffffffffffffffffffffffffffffffffff167f16a9207b6ab587902efd8e64141dd5115f83ad4c9bf06ad89d46cdb95048342b82604051610a589190611792565b60405180910390a2505b50565b600047905090565b7f2a3dab589bcc9747970dd85ac3f222668741ae51f2a1bbb8f8355be28dd8a86881565b6000610a9d6001610e81565b90508015610ac1576001600060016101000a81548160ff0219169083151502179055505b610ac9610f71565b610af37f2a3dab589bcc9747970dd85ac3f222668741ae51f2a1bbb8f8355be28dd8a86833610de3565b610b1d7f8135f02737a6b32709c1f229001b55183df0d6abcb3022e8bae091ad43fd9e6d33610de3565b610b477faa35297b265f70e7864cdb6b468dec7c6b363aa63d0fb01919c66f6548a9ff2733610de3565b633b9aca0060c981905550620f424060c954610b639190611cfa565b60ca81905550600060cb60006101000a81548160ff0219169083151502179055508015610bdd5760008060016101000a81548160ff0219169083151502179055507f7f26b83ff96e1f2b6a682f133852f6798a09c465da95921460cefb38474024986001604051610bd49190611da6565b60405180910390a15b50565b6000610c078260976000868152602001908152602001600020610fc290919063ffffffff16565b905092915050565b60006065600084815260200190815260200160002060000160008373ffffffffffffffffffffffffffffffffffffffff1673ffffffffffffffffffffffffffffffffffffffff16815260200190815260200160002060009054906101000a900460ff16905092915050565b7f8135f02737a6b32709c1f229001b55183df0d6abcb3022e8bae091ad43fd9e6d81565b6000801b81565b6000610cc260976000848152602001908152602001600020610fdc565b9050919050565b7f346536c0fe970b9c60c7d91955f37ec88ba0e153cc3d81537a6c8d45fa3398d181565b610cf68261077c565b610cff81610dcf565b610d098383610e1f565b505050565b60007f7965db0b000000000000000000000000000000000000000000000000000000007bffffffffffffffffffffffffffffffffffffffffffffffffffffffff1916827bffffffffffffffffffffffffffffffffffffffffffffffffffffffff19161480610d815750610d8082610ff1565b5b9050919050565b60008173ffffffffffffffffffffffffffffffffffffffff16319050919050565b60008160ca54610db99190611dc1565b9050919050565b6000610dca61105b565b905090565b610de081610ddb610e17565b611077565b50565b610ded8282611114565b610e1281609760008581526020019081526020016000206111f590919063ffffffff16565b505050565b600033905090565b610e298282611225565b610e4e816097600085815260200190815260200160002061130790919063ffffffff16565b505050565b60008160c954610e639190611dc1565b9050919050565b600060c95482610e7a9190611dc1565b9050919050565b60008060019054906101000a900460ff1615610ef85760018260ff16148015610eb05750610eae30611337565b155b610eef576040517f08c379a0000000000000000000000000000000000000000000000000000000008152600401610ee690611e67565b60405180910390fd5b60009050610f6c565b8160ff1660008054906101000a900460ff1660ff1610610f4d576040517f08c379a0000000000000000000000000000000000000000000000000000000008152600401610f4490611e67565b60405180910390fd5b816000806101000a81548160ff021916908360ff160217905550600190505b919050565b600060019054906101000a900460ff16610fc0576040517f08c379a0000000000000000000000000000000000000000000000000000000008152600401610fb790611ef9565b60405180910390fd5b565b6000610fd1836000018361135a565b60001c905092915050565b6000610fea82600001611385565b9050919050565b60007f01ffc9a7000000000000000000000000000000000000000000000000000000007bffffffffffffffffffffffffffffffffffffffffffffffffffffffff1916827bffffffffffffffffffffffffffffffffffffffffffffffffffffffff1916149050919050565b600073d2ba3e0000000000000000000000000000000000905090565b6110818282610c0f565b611110576110a68173ffffffffffffffffffffffffffffffffffffffff166014611396565b6110b48360001c6020611396565b6040516020016110c592919061202b565b6040516020818303038152906040526040517f08c379a000000000000000000000000000000000000000000000000000000000815260040161110791906120af565b60405180910390fd5b5050565b61111e8282610c0f565b6111f15760016065600084815260200190815260200160002060000160008373ffffffffffffffffffffffffffffffffffffffff1673ffffffffffffffffffffffffffffffffffffffff16815260200190815260200160002060006101000a81548160ff021916908315150217905550611196610e17565b73ffffffffffffffffffffffffffffffffffffffff168173ffffffffffffffffffffffffffffffffffffffff16837f2f8788117e7eff1d82e926ec794901d17c78024a50270940304540a733656f0d60405160405180910390a45b5050565b600061121d836000018373ffffffffffffffffffffffffffffffffffffffff1660001b6115d2565b905092915050565b61122f8282610c0f565b156113035760006065600084815260200190815260200160002060000160008373ffffffffffffffffffffffffffffffffffffffff1673ffffffffffffffffffffffffffffffffffffffff16815260200190815260200160002060006101000a81548160ff0219169083151502179055506112a8610e17565b73ffffffffffffffffffffffffffffffffffffffff168173ffffffffffffffffffffffffffffffffffffffff16837ff6391f5c32d9c69d2a47ea670b442974b53935d1edc7fd64eb21e047a839171b60405160405180910390a45b5050565b600061132f836000018373ffffffffffffffffffffffffffffffffffffffff1660001b611642565b905092915050565b6000808273ffffffffffffffffffffffffffffffffffffffff163b119050919050565b6000826000018281548110611372576113716120d1565b5b9060005260206000200154905092915050565b600081600001805490509050919050565b6060600060028360026113a99190611cfa565b6113b39190612100565b67ffffffffffffffff8111156113cc576113cb612156565b5b6040519080825280601f01601f1916602001820160405280156113fe5781602001600182028036833780820191505090505b5090507f300000000000000000000000000000000000000000000000000000000000000081600081518110611436576114356120d1565b5b60200101907effffffffffffffffffffffffffffffffffffffffffffffffffffffffffffff1916908160001a9053507f78000000000000000000000000000000000000000000000000000000000000008160018151811061149a576114996120d1565b5b60200101907effffffffffffffffffffffffffffffffffffffffffffffffffffffffffffff1916908160001a905350600060018460026114da9190611cfa565b6114e49190612100565b90505b6001811115611584577f3031323334353637383961626364656600000000000000000000000000000000600f861660108110611526576115256120d1565b5b1a60f81b82828151811061153d5761153c6120d1565b5b60200101907effffffffffffffffffffffffffffffffffffffffffffffffffffffffffffff1916908160001a905350600485901c94508061157d90612185565b90506114e7565b50600084146115c8576040517f08c379a00000000000000000000000000000000000000000000000000000000081526004016115bf906121fb565b60405180910390fd5b8091505092915050565b60006115de8383611756565b61163757826000018290806001815401808255809150506001900390600052602060002001600090919091909150558260000180549050836001016000848152602001908152602001600020819055506001905061163c565b600090505b92915050565b6000808360010160008481526020019081526020016000205490506000811461174a5760006001826116749190611dc1565b905060006001866000018054905061168c9190611dc1565b90508181146116fb5760008660000182815481106116ad576116ac6120d1565b5b90600052602060002001549050808760000184815481106116d1576116d06120d1565b5b90600052602060002001819055508387600101600083815260200190815260200160002081905550505b8560000180548061170f5761170e61221b565b5b600190038181906000526020600020016000905590558560010160008681526020019081526020016000206000905560019350505050611750565b60009150505b92915050565b600080836001016000848152602001908152602001600020541415905092915050565b6000819050919050565b61178c81611779565b82525050565b60006020820190506117a76000830184611783565b92915050565b600080fd5b60007fffffffff0000000000000000000000000000000000000000000000000000000082169050919050565b6117e7816117b2565b81146117f257600080fd5b50565b600081359050611804816117de565b92915050565b6000602082840312156118205761181f6117ad565b5b600061182e848285016117f5565b91505092915050565b60008115159050919050565b61184c81611837565b82525050565b60006020820190506118676000830184611843565b92915050565b6000819050919050565b6118808161186d565b82525050565b600060208201905061189b6000830184611877565b92915050565b6118aa8161186d565b81146118b557600080fd5b50565b6000813590506118c7816118a1565b92915050565b6000602082840312156118e3576118e26117ad565b5b60006118f1848285016118b8565b91505092915050565b600073ffffffffffffffffffffffffffffffffffffffff82169050919050565b6000611925826118fa565b9050919050565b6119358161191a565b811461194057600080fd5b50565b6000813590506119528161192c565b92915050565b6000806040838503121561196f5761196e6117ad565b5b600061197d858286016118b8565b925050602061198e85828601611943565b9150509250929050565b6119a181611779565b81146119ac57600080fd5b50565b6000813590506119be81611998565b92915050565b600080604083850312156119db576119da6117ad565b5b60006119e9858286016118b8565b92505060206119fa858286016119af565b9150509250929050565b611a0d8161191a565b82525050565b6000602082019050611a286000830184611a04565b92915050565b600082825260208201905092915050565b7f436f6e7472616374206973205061757365640000000000000000000000000000600082015250565b6000611a75601283611a2e565b9150611a8082611a3f565b602082019050919050565b60006020820190508181036000830152611aa481611a68565b9050919050565b7f434f4e54524143545f4d414e414745525f524f4c452052657175697265640000600082015250565b6000611ae1601e83611a2e565b9150611aec82611aab565b602082019050919050565b60006020820190508181036000830152611b1081611ad4565b9050919050565b6000611b22826118fa565b9050919050565b611b3281611b17565b82525050565b6000604082019050611b4d6000830185611b29565b611b5a6020830184611783565b9392505050565b7f4572726f722046696c6c696e6720557000000000000000000000000000000000600082015250565b6000611b97601083611a2e565b9150611ba282611b61565b602082019050919050565b60006020820190508181036000830152611bc681611b8a565b9050919050565b7f416363657373436f6e74726f6c3a2063616e206f6e6c792072656e6f756e636560008201527f20726f6c657320666f722073656c660000000000000000000000000000000000602082015250565b6000611c29602f83611a2e565b9150611c3482611bcd565b604082019050919050565b60006020820190508181036000830152611c5881611c1c565b9050919050565b7f49535f57484954454c49535445445f5553455220526571756972656400000000600082015250565b6000611c95601c83611a2e565b9150611ca082611c5f565b602082019050919050565b60006020820190508181036000830152611cc481611c88565b9050919050565b7f4e487b7100000000000000000000000000000000000000000000000000000000600052601160045260246000fd5b6000611d0582611779565b9150611d1083611779565b9250817fffffffffffffffffffffffffffffffffffffffffffffffffffffffffffffffff0483118215151615611d4957611d48611ccb565b5b828202905092915050565b6000819050919050565b600060ff82169050919050565b6000819050919050565b6000611d90611d8b611d8684611d54565b611d6b565b611d5e565b9050919050565b611da081611d75565b82525050565b6000602082019050611dbb6000830184611d97565b92915050565b6000611dcc82611779565b9150611dd783611779565b925082821015611dea57611de9611ccb565b5b828203905092915050565b7f496e697469616c697a61626c653a20636f6e747261637420697320616c72656160008201527f647920696e697469616c697a6564000000000000000000000000000000000000602082015250565b6000611e51602e83611a2e565b9150611e5c82611df5565b604082019050919050565b60006020820190508181036000830152611e8081611e44565b9050919050565b7f496e697469616c697a61626c653a20636f6e7472616374206973206e6f74206960008201527f6e697469616c697a696e67000000000000000000000000000000000000000000602082015250565b6000611ee3602b83611a2e565b9150611eee82611e87565b604082019050919050565b60006020820190508181036000830152611f1281611ed6565b9050919050565b600081905092915050565b7f416363657373436f6e74726f6c3a206163636f756e7420000000000000000000600082015250565b6000611f5a601783611f19565b9150611f6582611f24565b601782019050919050565b600081519050919050565b60005b83811015611f99578082015181840152602081019050611f7e565b83811115611fa8576000848401525b50505050565b6000611fb982611f70565b611fc38185611f19565b9350611fd3818560208601611f7b565b80840191505092915050565b7f206973206d697373696e6720726f6c6520000000000000000000000000000000600082015250565b6000612015601183611f19565b915061202082611fdf565b601182019050919050565b600061203682611f4d565b91506120428285611fae565b915061204d82612008565b91506120598284611fae565b91508190509392505050565b6000601f19601f8301169050919050565b600061208182611f70565b61208b8185611a2e565b935061209b818560208601611f7b565b6120a481612065565b840191505092915050565b600060208201905081810360008301526120c98184612076565b905092915050565b7f4e487b7100000000000000000000000000000000000000000000000000000000600052603260045260246000fd5b600061210b82611779565b915061211683611779565b9250827fffffffffffffffffffffffffffffffffffffffffffffffffffffffffffffffff0382111561214b5761214a611ccb565b5b828201905092915050565b7f4e487b7100000000000000000000000000000000000000000000000000000000600052604160045260246000fd5b600061219082611779565b915060008214156121a4576121a3611ccb565b5b600182039050919050565b7f537472696e67733a20686578206c656e67746820696e73756666696369656e74600082015250565b60006121e5602083611a2e565b91506121f0826121af565b602082019050919050565b60006020820190508181036000830152612214816121d8565b9050919050565b7f4e487b7100000000000000000000000000000000000000000000000000000000600052603160045260246000fdfea26469706673582212207cadac40d9b86119edbb25a0214d896631ad9202699281363f782982c3c2f96764736f6c63430008090033",
  "linkReferences": {},
  "deployedLinkReferences": {}
}