{
  "_format": "hh-sol-artifact-1",
  "contractName": "SFuelUsers",
  "sourceName": "sfuel/contracts/s_fuel/SFuelUsers.sol",
  "abi": [
    {
      "inputs": [],
      "stateMutability": "nonpayable",
      "type": "constructor"
    },
    {
      "anonymous": false,
      "inputs": [
        {
          "indexed": true,
          "internalType": "address",
          "name": "caller",
          "type": "address"
        },
        {
          "indexed": false,
          "internalType": "uint256",
          "name": "value",
          "type": "uint256"
        }
      ],
      "name": "ContractFilled",
      "type": "event"
    },
    {
      "anonymous": false,
      "inputs": [
        {
          "indexed": true,
          "internalType": "address",
          "name": "sender",
          "type": "address"
        },
        {
          "indexed": false,
          "internalType": "uint256",
          "name": "value",
          "type": "uint256"
        }
      ],
      "name": "EtherDeposit",
      "type": "event"
    },
    {
      "anonymous": false,
      "inputs": [
        {
          "indexed": true,
          "internalType": "address",
          "name": "reciever",
          "type": "address"
        },
        {
          "indexed": false,
          "internalType": "uint256",
          "name": "amount",
          "type": "uint256"
        }
      ],
      "name": "RetrievedSFuel",
      "type": "event"
    },
    {
      "anonymous": false,
      "inputs": [
        {
          "indexed": true,
          "internalType": "address",
          "name": "returner",
          "type": "address"
        },
        {
          "indexed": false,
          "internalType": "uint256",
          "name": "amount",
          "type": "uint256"
        }
      ],
      "name": "ReturnedSFuel",
      "type": "event"
    },
    {
      "anonymous": false,
      "inputs": [
        {
          "indexed": true,
          "internalType": "bytes32",
          "name": "role",
          "type": "bytes32"
        },
        {
          "indexed": true,
          "internalType": "bytes32",
          "name": "previousAdminRole",
          "type": "bytes32"
        },
        {
          "indexed": true,
          "internalType": "bytes32",
          "name": "newAdminRole",
          "type": "bytes32"
        }
      ],
      "name": "RoleAdminChanged",
      "type": "event"
    },
    {
      "anonymous": false,
      "inputs": [
        {
          "indexed": true,
          "internalType": "address",
          "name": "reciever",
          "type": "address"
        },
        {
          "indexed": true,
          "internalType": "address",
          "name": "caller",
          "type": "address"
        },
        {
          "indexed": true,
          "internalType": "bytes32",
          "name": "role",
          "type": "bytes32"
        }
      ],
      "name": "RoleGranted",
      "type": "event"
    },
    {
      "anonymous": false,
      "inputs": [
        {
          "indexed": true,
          "internalType": "bytes32",
          "name": "role",
          "type": "bytes32"
        },
        {
          "indexed": true,
          "internalType": "address",
          "name": "account",
          "type": "address"
        },
        {
          "indexed": true,
          "internalType": "address",
          "name": "sender",
          "type": "address"
        }
      ],
      "name": "RoleGranted",
      "type": "event"
    },
    {
      "anonymous": false,
      "inputs": [
        {
          "indexed": true,
          "internalType": "address",
          "name": "removed",
          "type": "address"
        },
        {
          "indexed": true,
          "internalType": "address",
          "name": "caller",
          "type": "address"
        },
        {
          "indexed": true,
          "internalType": "bytes32",
          "name": "role",
          "type": "bytes32"
        }
      ],
      "name": "RoleRemoved",
      "type": "event"
    },
    {
      "anonymous": false,
      "inputs": [
        {
          "indexed": true,
          "internalType": "bytes32",
          "name": "role",
          "type": "bytes32"
        },
        {
          "indexed": true,
          "internalType": "address",
          "name": "account",
          "type": "address"
        },
        {
          "indexed": true,
          "internalType": "address",
          "name": "sender",
          "type": "address"
        }
      ],
      "name": "RoleRevoked",
      "type": "event"
    },
    {
      "stateMutability": "payable",
      "type": "fallback"
    },
    {
      "inputs": [],
      "name": "ACTIVE_MANAGER_ROLE",
      "outputs": [
        {
          "internalType": "bytes32",
          "name": "",
          "type": "bytes32"
        }
      ],
      "stateMutability": "view",
      "type": "function"
    },
    {
      "inputs": [],
      "name": "CONTRACT_MANAGER_ROLE",
      "outputs": [
        {
          "internalType": "bytes32",
          "name": "",
          "type": "bytes32"
        }
      ],
      "stateMutability": "view",
      "type": "function"
    },
    {
      "inputs": [],
      "name": "DEFAULT_ADMIN_ROLE",
      "outputs": [
        {
          "internalType": "bytes32",
          "name": "",
          "type": "bytes32"
        }
      ],
      "stateMutability": "view",
      "type": "function"
    },
    {
      "inputs": [],
      "name": "IS_WHITELISTED_USER",
      "outputs": [
        {
          "internalType": "bytes32",
          "name": "",
          "type": "bytes32"
        }
      ],
      "stateMutability": "view",
      "type": "function"
    },
    {
      "inputs": [],
      "name": "WHITELIST_MANAGER_ROLE",
      "outputs": [
        {
          "internalType": "bytes32",
          "name": "",
          "type": "bytes32"
        }
      ],
      "stateMutability": "view",
      "type": "function"
    },
    {
      "inputs": [],
      "name": "fillContract",
      "outputs": [],
      "stateMutability": "nonpayable",
      "type": "function"
    },
    {
      "inputs": [],
      "name": "getBalance",
      "outputs": [
        {
          "internalType": "uint256",
          "name": "",
          "type": "uint256"
        }
      ],
      "stateMutability": "view",
      "type": "function"
    },
    {
      "inputs": [],
      "name": "getContractBalance",
      "outputs": [
        {
          "internalType": "uint256",
          "name": "",
          "type": "uint256"
        }
      ],
      "stateMutability": "view",
      "type": "function"
    },
    {
      "inputs": [
        {
          "internalType": "bytes32",
          "name": "role",
          "type": "bytes32"
        }
      ],
      "name": "getRoleAdmin",
      "outputs": [
        {
          "internalType": "bytes32",
          "name": "",
          "type": "bytes32"
        }
      ],
      "stateMutability": "view",
      "type": "function"
    },
    {
      "inputs": [
        {
          "internalType": "bytes32",
          "name": "role",
          "type": "bytes32"
        },
        {
          "internalType": "uint256",
          "name": "index",
          "type": "uint256"
        }
      ],
      "name": "getRoleMember",
      "outputs": [
        {
          "internalType": "address",
          "name": "",
          "type": "address"
        }
      ],
      "stateMutability": "view",
      "type": "function"
    },
    {
      "inputs": [
        {
          "internalType": "bytes32",
          "name": "role",
          "type": "bytes32"
        }
      ],
      "name": "getRoleMemberCount",
      "outputs": [
        {
          "internalType": "uint256",
          "name": "",
          "type": "uint256"
        }
      ],
      "stateMutability": "view",
      "type": "function"
    },
    {
      "inputs": [
        {
          "internalType": "bytes32",
          "name": "role",
          "type": "bytes32"
        },
        {
          "internalType": "address",
          "name": "account",
          "type": "address"
        }
      ],
      "name": "grantRole",
      "outputs": [],
      "stateMutability": "nonpayable",
      "type": "function"
    },
    {
      "inputs": [
        {
          "internalType": "bytes32",
          "name": "role",
          "type": "bytes32"
        },
        {
          "internalType": "address",
          "name": "account",
          "type": "address"
        }
      ],
      "name": "hasRole",
      "outputs": [
        {
          "internalType": "bool",
          "name": "",
          "type": "bool"
        }
      ],
      "stateMutability": "view",
      "type": "function"
    },
    {
      "inputs": [
        {
          "internalType": "bytes32",
          "name": "role",
          "type": "bytes32"
        },
        {
          "internalType": "address",
          "name": "account",
          "type": "address"
        }
      ],
      "name": "renounceRole",
      "outputs": [],
      "stateMutability": "nonpayable",
      "type": "function"
    },
    {
      "inputs": [],
      "name": "retrieveSFuel",
      "outputs": [],
      "stateMutability": "nonpayable",
      "type": "function"
    },
    {
      "inputs": [
        {
          "internalType": "bytes32",
          "name": "role",
          "type": "bytes32"
        },
        {
          "internalType": "address",
          "name": "account",
          "type": "address"
        }
      ],
      "name": "revokeRole",
      "outputs": [],
      "stateMutability": "nonpayable",
      "type": "function"
    },
    {
      "inputs": [
        {
          "internalType": "bytes4",
          "name": "interfaceId",
          "type": "bytes4"
        }
      ],
      "name": "supportsInterface",
      "outputs": [
        {
          "internalType": "bool",
          "name": "",
          "type": "bool"
        }
      ],
      "stateMutability": "view",
      "type": "function"
    },
    {
      "stateMutability": "payable",
      "type": "receive"
    }
  ],
  "bytecode": "0x6080604052633b9aca00600255620f42406002546200001f9190620003cb565b6003556000600460006101000a81548160ff0219169083151502179055503480156200004a57600080fd5b506200007d7f2a3dab589bcc9747970dd85ac3f222668741ae51f2a1bbb8f8355be28dd8a86833620000fc60201b60201c565b620000af7f8135f02737a6b32709c1f229001b55183df0d6abcb3022e8bae091ad43fd9e6d33620000fc60201b60201c565b620000e17faa35297b265f70e7864cdb6b468dec7c6b363aa63d0fb01919c66f6548a9ff2733620000fc60201b60201c565b620000f66000801b33620000fc60201b60201c565b6200042c565b6200010e82826200011260201b60201c565b5050565b6200012982826200015a60201b62000b9b1760201c565b6200015581600160008581526020019081526020016000206200024b60201b62000c7b1790919060201c565b505050565b6200016c82826200028360201b60201c565b6200024757600160008084815260200190815260200160002060000160008373ffffffffffffffffffffffffffffffffffffffff1673ffffffffffffffffffffffffffffffffffffffff16815260200190815260200160002060006101000a81548160ff021916908315150217905550620001ec620002ed60201b60201c565b73ffffffffffffffffffffffffffffffffffffffff168173ffffffffffffffffffffffffffffffffffffffff16837f2f8788117e7eff1d82e926ec794901d17c78024a50270940304540a733656f0d60405160405180910390a45b5050565b60006200027b836000018373ffffffffffffffffffffffffffffffffffffffff1660001b620002f560201b60201c565b905092915050565b600080600084815260200190815260200160002060000160008373ffffffffffffffffffffffffffffffffffffffff1673ffffffffffffffffffffffffffffffffffffffff16815260200190815260200160002060009054906101000a900460ff16905092915050565b600033905090565b60006200030983836200036f60201b60201c565b6200036457826000018290806001815401808255809150506001900390600052602060002001600090919091909150558260000180549050836001016000848152602001908152602001600020819055506001905062000369565b600090505b92915050565b600080836001016000848152602001908152602001600020541415905092915050565b6000819050919050565b7f4e487b7100000000000000000000000000000000000000000000000000000000600052601160045260246000fd5b6000620003d88262000392565b9150620003e58362000392565b9250817fffffffffffffffffffffffffffffffffffffffffffffffffffffffffffffffff04831182151516156200042157620004206200039c565b5b828202905092915050565b611e16806200043c6000396000f3fe6080604052600436106101025760003560e01c80636f9fb98a116100955780639d28b506116100645780639d28b506146103d1578063a217fddf146103fc578063ca15c87314610427578063cf31cf2814610464578063d547741f1461048f57610157565b80636f9fb98a146103015780637295ed931461032c5780639010d07c1461035757806391d148541461039457610157565b8063248a9ca3116100d1578063248a9ca31461025b5780632f2ff15d1461029857806336568abe146102c157806355c09d2a146102ea57610157565b806301ffc9a7146101b157806312065fe0146101ee578063131c53d914610219578063215ac4be1461024457610157565b36610157573373ffffffffffffffffffffffffffffffffffffffff167fa58b71ad2e6ce803dd1eec62e2f3717a164a8912ee33eb51a57a234ba56b55353460405161014d91906114b9565b60405180910390a2005b60003411156101af573373ffffffffffffffffffffffffffffffffffffffff167fa58b71ad2e6ce803dd1eec62e2f3717a164a8912ee33eb51a57a234ba56b5535346040516101a691906114b9565b60405180910390a25b005b3480156101bd57600080fd5b506101d860048036038101906101d39190611531565b6104b8565b6040516101e59190611579565b60405180910390f35b3480156101fa57600080fd5b50610203610532565b60405161021091906114b9565b60405180910390f35b34801561022557600080fd5b5061022e610551565b60405161023b91906115ad565b60405180910390f35b34801561025057600080fd5b50610259610575565b005b34801561026757600080fd5b50610282600480360381019061027d91906115f4565b61075a565b60405161028f91906115ad565b60405180910390f35b3480156102a457600080fd5b506102bf60048036038101906102ba919061167f565b610779565b005b3480156102cd57600080fd5b506102e860048036038101906102e3919061167f565b61079a565b005b3480156102f657600080fd5b506102ff61081d565b005b34801561030d57600080fd5b50610316610a42565b60405161032391906114b9565b60405180910390f35b34801561033857600080fd5b50610341610a4a565b60405161034e91906115ad565b60405180910390f35b34801561036357600080fd5b5061037e600480360381019061037991906116eb565b610a6e565b60405161038b919061173a565b60405180910390f35b3480156103a057600080fd5b506103bb60048036038101906103b6919061167f565b610a9d565b6040516103c89190611579565b60405180910390f35b3480156103dd57600080fd5b506103e6610b07565b6040516103f391906115ad565b60405180910390f35b34801561040857600080fd5b50610411610b2b565b60405161041e91906115ad565b60405180910390f35b34801561043357600080fd5b5061044e600480360381019061044991906115f4565b610b32565b60405161045b91906114b9565b60405180910390f35b34801561047057600080fd5b50610479610b56565b60405161048691906115ad565b60405180910390f35b34801561049b57600080fd5b506104b660048036038101906104b1919061167f565b610b7a565b005b60007f5a05180f000000000000000000000000000000000000000000000000000000007bffffffffffffffffffffffffffffffffffffffffffffffffffffffff1916827bffffffffffffffffffffffffffffffffffffffffffffffffffffffff1916148061052b575061052a82610cab565b5b9050919050565b60003373ffffffffffffffffffffffffffffffffffffffff1631905090565b7faa35297b265f70e7864cdb6b468dec7c6b363aa63d0fb01919c66f6548a9ff2781565b600460009054906101000a900460ff16156105c5576040517f08c379a00000000000000000000000000000000000000000000000000000000081526004016105bc906117b2565b60405180910390fd5b6105ef7f8135f02737a6b32709c1f229001b55183df0d6abcb3022e8bae091ad43fd9e6d33610a9d565b61062e576040517f08c379a00000000000000000000000000000000000000000000000000000000081526004016106259061181e565b60405180910390fd5b600061063930610d25565b9050600061064682610d46565b9050610650610d5d565b73ffffffffffffffffffffffffffffffffffffffff1663204a3e9330836040518363ffffffff1660e01b815260040161068a92919061185f565b600060405180830381600087803b1580156106a457600080fd5b505af11580156106b8573d6000803e3d6000fd5b505050506003546106c830610d25565b14610708576040517f08c379a00000000000000000000000000000000000000000000000000000000081526004016106ff906118d4565b60405180910390fd5b3373ffffffffffffffffffffffffffffffffffffffff167f2d6e436d93e4e3143f5d97f5786f48e9736d037972d20e408bb1aa2284bf6c0f8260405161074e91906114b9565b60405180910390a25050565b6000806000838152602001908152602001600020600101549050919050565b6107828261075a565b61078b81610d6c565b6107958383610d80565b505050565b6107a2610db4565b73ffffffffffffffffffffffffffffffffffffffff168173ffffffffffffffffffffffffffffffffffffffff161461080f576040517f08c379a000000000000000000000000000000000000000000000000000000000815260040161080690611966565b60405180910390fd5b6108198282610dbc565b5050565b600460009054906101000a900460ff161561086d576040517f08c379a0000000000000000000000000000000000000000000000000000000008152600401610864906117b2565b60405180910390fd5b6108977f346536c0fe970b9c60c7d91955f37ec88ba0e153cc3d81537a6c8d45fa3398d133610a9d565b6108d6576040517f08c379a00000000000000000000000000000000000000000000000000000000081526004016108cd906119d2565b60405180910390fd5b60006108e133610d25565b90506002548110156109915760006108f882610df0565b90503373ffffffffffffffffffffffffffffffffffffffff166108fc829081150290604051600060405180830381858888f19350505050158015610940573d6000803e3d6000fd5b503373ffffffffffffffffffffffffffffffffffffffff167fcaa2147b3f9864f2c5b11b0f9f7329fcd16cb0feb49a9136a04a1550f7a5dde38260405161098791906114b9565b60405180910390a2505b600254811115610a3f5760006109a682610e07565b90503073ffffffffffffffffffffffffffffffffffffffff166108fc829081150290604051600060405180830381858888f193505050501580156109ee573d6000803e3d6000fd5b503373ffffffffffffffffffffffffffffffffffffffff167f16a9207b6ab587902efd8e64141dd5115f83ad4c9bf06ad89d46cdb95048342b82604051610a3591906114b9565b60405180910390a2505b50565b600047905090565b7f2a3dab589bcc9747970dd85ac3f222668741ae51f2a1bbb8f8355be28dd8a86881565b6000610a958260016000868152602001908152602001600020610e1e90919063ffffffff16565b905092915050565b600080600084815260200190815260200160002060000160008373ffffffffffffffffffffffffffffffffffffffff1673ffffffffffffffffffffffffffffffffffffffff16815260200190815260200160002060009054906101000a900460ff16905092915050565b7f8135f02737a6b32709c1f229001b55183df0d6abcb3022e8bae091ad43fd9e6d81565b6000801b81565b6000610b4f60016000848152602001908152602001600020610e38565b9050919050565b7f346536c0fe970b9c60c7d91955f37ec88ba0e153cc3d81537a6c8d45fa3398d181565b610b838261075a565b610b8c81610d6c565b610b968383610dbc565b505050565b610ba58282610a9d565b610c7757600160008084815260200190815260200160002060000160008373ffffffffffffffffffffffffffffffffffffffff1673ffffffffffffffffffffffffffffffffffffffff16815260200190815260200160002060006101000a81548160ff021916908315150217905550610c1c610db4565b73ffffffffffffffffffffffffffffffffffffffff168173ffffffffffffffffffffffffffffffffffffffff16837f2f8788117e7eff1d82e926ec794901d17c78024a50270940304540a733656f0d60405160405180910390a45b5050565b6000610ca3836000018373ffffffffffffffffffffffffffffffffffffffff1660001b610e4d565b905092915050565b60007f7965db0b000000000000000000000000000000000000000000000000000000007bffffffffffffffffffffffffffffffffffffffffffffffffffffffff1916827bffffffffffffffffffffffffffffffffffffffffffffffffffffffff19161480610d1e5750610d1d82610ebd565b5b9050919050565b60008173ffffffffffffffffffffffffffffffffffffffff16319050919050565b600081600354610d569190611a21565b9050919050565b6000610d67610f27565b905090565b610d7d81610d78610db4565b610f43565b50565b610d8a8282610b9b565b610daf8160016000858152602001908152602001600020610c7b90919063ffffffff16565b505050565b600033905090565b610dc68282610fe0565b610deb81600160008581526020019081526020016000206110c190919063ffffffff16565b505050565b600081600254610e009190611a21565b9050919050565b600060025482610e179190611a21565b9050919050565b6000610e2d83600001836110f1565b60001c905092915050565b6000610e468260000161111c565b9050919050565b6000610e59838361112d565b610eb2578260000182908060018154018082558091505060019003906000526020600020016000909190919091505582600001805490508360010160008481526020019081526020016000208190555060019050610eb7565b600090505b92915050565b60007f01ffc9a7000000000000000000000000000000000000000000000000000000007bffffffffffffffffffffffffffffffffffffffffffffffffffffffff1916827bffffffffffffffffffffffffffffffffffffffffffffffffffffffff1916149050919050565b600073d2ba3e0000000000000000000000000000000000905090565b610f4d8282610a9d565b610fdc57610f728173ffffffffffffffffffffffffffffffffffffffff166014611150565b610f808360001c6020611150565b604051602001610f91929190611b67565b6040516020818303038152906040526040517f08c379a0000000000000000000000000000000000000000000000000000000008152600401610fd39190611beb565b60405180910390fd5b5050565b610fea8282610a9d565b156110bd57600080600084815260200190815260200160002060000160008373ffffffffffffffffffffffffffffffffffffffff1673ffffffffffffffffffffffffffffffffffffffff16815260200190815260200160002060006101000a81548160ff021916908315150217905550611062610db4565b73ffffffffffffffffffffffffffffffffffffffff168173ffffffffffffffffffffffffffffffffffffffff16837ff6391f5c32d9c69d2a47ea670b442974b53935d1edc7fd64eb21e047a839171b60405160405180910390a45b5050565b60006110e9836000018373ffffffffffffffffffffffffffffffffffffffff1660001b61138c565b905092915050565b600082600001828154811061110957611108611c0d565b5b9060005260206000200154905092915050565b600081600001805490509050919050565b600080836001016000848152602001908152602001600020541415905092915050565b6060600060028360026111639190611c3c565b61116d9190611c96565b67ffffffffffffffff81111561118657611185611cec565b5b6040519080825280601f01601f1916602001820160405280156111b85781602001600182028036833780820191505090505b5090507f3000000000000000000000000000000000000000000000000000000000000000816000815181106111f0576111ef611c0d565b5b60200101907effffffffffffffffffffffffffffffffffffffffffffffffffffffffffffff1916908160001a9053507f78000000000000000000000000000000000000000000000000000000000000008160018151811061125457611253611c0d565b5b60200101907effffffffffffffffffffffffffffffffffffffffffffffffffffffffffffff1916908160001a905350600060018460026112949190611c3c565b61129e9190611c96565b90505b600181111561133e577f3031323334353637383961626364656600000000000000000000000000000000600f8616601081106112e0576112df611c0d565b5b1a60f81b8282815181106112f7576112f6611c0d565b5b60200101907effffffffffffffffffffffffffffffffffffffffffffffffffffffffffffff1916908160001a905350600485901c94508061133790611d1b565b90506112a1565b5060008414611382576040517f08c379a000000000000000000000000000000000000000000000000000000000815260040161137990611d91565b60405180910390fd5b8091505092915050565b600080836001016000848152602001908152602001600020549050600081146114945760006001826113be9190611a21565b90506000600186600001805490506113d69190611a21565b90508181146114455760008660000182815481106113f7576113f6611c0d565b5b906000526020600020015490508087600001848154811061141b5761141a611c0d565b5b90600052602060002001819055508387600101600083815260200190815260200160002081905550505b8560000180548061145957611458611db1565b5b60019003818190600052602060002001600090559055856001016000868152602001908152602001600020600090556001935050505061149a565b60009150505b92915050565b6000819050919050565b6114b3816114a0565b82525050565b60006020820190506114ce60008301846114aa565b92915050565b600080fd5b60007fffffffff0000000000000000000000000000000000000000000000000000000082169050919050565b61150e816114d9565b811461151957600080fd5b50565b60008135905061152b81611505565b92915050565b600060208284031215611547576115466114d4565b5b60006115558482850161151c565b91505092915050565b60008115159050919050565b6115738161155e565b82525050565b600060208201905061158e600083018461156a565b92915050565b6000819050919050565b6115a781611594565b82525050565b60006020820190506115c2600083018461159e565b92915050565b6115d181611594565b81146115dc57600080fd5b50565b6000813590506115ee816115c8565b92915050565b60006020828403121561160a576116096114d4565b5b6000611618848285016115df565b91505092915050565b600073ffffffffffffffffffffffffffffffffffffffff82169050919050565b600061164c82611621565b9050919050565b61165c81611641565b811461166757600080fd5b50565b60008135905061167981611653565b92915050565b60008060408385031215611696576116956114d4565b5b60006116a4858286016115df565b92505060206116b58582860161166a565b9150509250929050565b6116c8816114a0565b81146116d357600080fd5b50565b6000813590506116e5816116bf565b92915050565b60008060408385031215611702576117016114d4565b5b6000611710858286016115df565b9250506020611721858286016116d6565b9150509250929050565b61173481611641565b82525050565b600060208201905061174f600083018461172b565b92915050565b600082825260208201905092915050565b7f436f6e7472616374206973205061757365640000000000000000000000000000600082015250565b600061179c601283611755565b91506117a782611766565b602082019050919050565b600060208201905081810360008301526117cb8161178f565b9050919050565b7f434f4e54524143545f4d414e414745525f524f4c452052657175697265640000600082015250565b6000611808601e83611755565b9150611813826117d2565b602082019050919050565b60006020820190508181036000830152611837816117fb565b9050919050565b600061184982611621565b9050919050565b6118598161183e565b82525050565b60006040820190506118746000830185611850565b61188160208301846114aa565b9392505050565b7f4572726f722046696c6c696e6720557000000000000000000000000000000000600082015250565b60006118be601083611755565b91506118c982611888565b602082019050919050565b600060208201905081810360008301526118ed816118b1565b9050919050565b7f416363657373436f6e74726f6c3a2063616e206f6e6c792072656e6f756e636560008201527f20726f6c657320666f722073656c660000000000000000000000000000000000602082015250565b6000611950602f83611755565b915061195b826118f4565b604082019050919050565b6000602082019050818103600083015261197f81611943565b9050919050565b7f49535f57484954454c49535445445f5553455220526571756972656400000000600082015250565b60006119bc601c83611755565b91506119c782611986565b602082019050919050565b600060208201905081810360008301526119eb816119af565b9050919050565b7f4e487b7100000000000000000000000000000000000000000000000000000000600052601160045260246000fd5b6000611a2c826114a0565b9150611a37836114a0565b925082821015611a4a57611a496119f2565b5b828203905092915050565b600081905092915050565b7f416363657373436f6e74726f6c3a206163636f756e7420000000000000000000600082015250565b6000611a96601783611a55565b9150611aa182611a60565b601782019050919050565b600081519050919050565b60005b83811015611ad5578082015181840152602081019050611aba565b83811115611ae4576000848401525b50505050565b6000611af582611aac565b611aff8185611a55565b9350611b0f818560208601611ab7565b80840191505092915050565b7f206973206d697373696e6720726f6c6520000000000000000000000000000000600082015250565b6000611b51601183611a55565b9150611b5c82611b1b565b601182019050919050565b6000611b7282611a89565b9150611b7e8285611aea565b9150611b8982611b44565b9150611b958284611aea565b91508190509392505050565b6000601f19601f8301169050919050565b6000611bbd82611aac565b611bc78185611755565b9350611bd7818560208601611ab7565b611be081611ba1565b840191505092915050565b60006020820190508181036000830152611c058184611bb2565b905092915050565b7f4e487b7100000000000000000000000000000000000000000000000000000000600052603260045260246000fd5b6000611c47826114a0565b9150611c52836114a0565b9250817fffffffffffffffffffffffffffffffffffffffffffffffffffffffffffffffff0483118215151615611c8b57611c8a6119f2565b5b828202905092915050565b6000611ca1826114a0565b9150611cac836114a0565b9250827fffffffffffffffffffffffffffffffffffffffffffffffffffffffffffffffff03821115611ce157611ce06119f2565b5b828201905092915050565b7f4e487b7100000000000000000000000000000000000000000000000000000000600052604160045260246000fd5b6000611d26826114a0565b91506000821415611d3a57611d396119f2565b5b600182039050919050565b7f537472696e67733a20686578206c656e67746820696e73756666696369656e74600082015250565b6000611d7b602083611755565b9150611d8682611d45565b602082019050919050565b60006020820190508181036000830152611daa81611d6e565b9050919050565b7f4e487b7100000000000000000000000000000000000000000000000000000000600052603160045260246000fdfea2646970667358221220b90e258517c5343d07f27fb3e899253554313ec4150643a8769bb1c0ee3ffca064736f6c63430008090033",
  "linkReferences": {},
  "deployedLinkReferences": {}
}