{
  "_format": "hh-sol-artifact-1",
  "contractName": "SFuelUsers",
  "sourceName": "sfuel/contracts/s_fuel/SFuelUsers.sol",
  "abi": [
    {
      "inputs": [],
      "stateMutability": "nonpayable",
      "type": "constructor"
    },
    {
      "anonymous": false,
      "inputs": [
        {
          "indexed": true,
          "internalType": "address",
          "name": "caller",
          "type": "address"
        },
        {
          "indexed": false,
          "internalType": "uint256",
          "name": "value",
          "type": "uint256"
        }
      ],
      "name": "ContractFilled",
      "type": "event"
    },
    {
      "anonymous": false,
      "inputs": [
        {
          "indexed": true,
          "internalType": "address",
          "name": "sender",
          "type": "address"
        },
        {
          "indexed": false,
          "internalType": "uint256",
          "name": "value",
          "type": "uint256"
        }
      ],
      "name": "EtherDeposit",
      "type": "event"
    },
    {
      "anonymous": false,
      "inputs": [
        {
          "indexed": false,
          "internalType": "uint8",
          "name": "version",
          "type": "uint8"
        }
      ],
      "name": "Initialized",
      "type": "event"
    },
    {
      "anonymous": false,
      "inputs": [
        {
          "indexed": true,
          "internalType": "address",
          "name": "reciever",
          "type": "address"
        },
        {
          "indexed": false,
          "internalType": "uint256",
          "name": "amount",
          "type": "uint256"
        }
      ],
      "name": "RetrievedSFuel",
      "type": "event"
    },
    {
      "anonymous": false,
      "inputs": [
        {
          "indexed": true,
          "internalType": "address",
          "name": "returner",
          "type": "address"
        },
        {
          "indexed": false,
          "internalType": "uint256",
          "name": "amount",
          "type": "uint256"
        }
      ],
      "name": "ReturnedSFuel",
      "type": "event"
    },
    {
      "anonymous": false,
      "inputs": [
        {
          "indexed": true,
          "internalType": "bytes32",
          "name": "role",
          "type": "bytes32"
        },
        {
          "indexed": true,
          "internalType": "bytes32",
          "name": "previousAdminRole",
          "type": "bytes32"
        },
        {
          "indexed": true,
          "internalType": "bytes32",
          "name": "newAdminRole",
          "type": "bytes32"
        }
      ],
      "name": "RoleAdminChanged",
      "type": "event"
    },
    {
      "anonymous": false,
      "inputs": [
        {
          "indexed": true,
          "internalType": "address",
          "name": "reciever",
          "type": "address"
        },
        {
          "indexed": true,
          "internalType": "address",
          "name": "caller",
          "type": "address"
        },
        {
          "indexed": true,
          "internalType": "bytes32",
          "name": "role",
          "type": "bytes32"
        }
      ],
      "name": "RoleGranted",
      "type": "event"
    },
    {
      "anonymous": false,
      "inputs": [
        {
          "indexed": true,
          "internalType": "bytes32",
          "name": "role",
          "type": "bytes32"
        },
        {
          "indexed": true,
          "internalType": "address",
          "name": "account",
          "type": "address"
        },
        {
          "indexed": true,
          "internalType": "address",
          "name": "sender",
          "type": "address"
        }
      ],
      "name": "RoleGranted",
      "type": "event"
    },
    {
      "anonymous": false,
      "inputs": [
        {
          "indexed": true,
          "internalType": "address",
          "name": "removed",
          "type": "address"
        },
        {
          "indexed": true,
          "internalType": "address",
          "name": "caller",
          "type": "address"
        },
        {
          "indexed": true,
          "internalType": "bytes32",
          "name": "role",
          "type": "bytes32"
        }
      ],
      "name": "RoleRemoved",
      "type": "event"
    },
    {
      "anonymous": false,
      "inputs": [
        {
          "indexed": true,
          "internalType": "bytes32",
          "name": "role",
          "type": "bytes32"
        },
        {
          "indexed": true,
          "internalType": "address",
          "name": "account",
          "type": "address"
        },
        {
          "indexed": true,
          "internalType": "address",
          "name": "sender",
          "type": "address"
        }
      ],
      "name": "RoleRevoked",
      "type": "event"
    },
    {
      "stateMutability": "payable",
      "type": "fallback"
    },
    {
      "inputs": [],
      "name": "ACTIVE_MANAGER_ROLE",
      "outputs": [
        {
          "internalType": "bytes32",
          "name": "",
          "type": "bytes32"
        }
      ],
      "stateMutability": "view",
      "type": "function"
    },
    {
      "inputs": [],
      "name": "CONTRACT_MANAGER_ROLE",
      "outputs": [
        {
          "internalType": "bytes32",
          "name": "",
          "type": "bytes32"
        }
      ],
      "stateMutability": "view",
      "type": "function"
    },
    {
      "inputs": [],
      "name": "DEFAULT_ADMIN_ROLE",
      "outputs": [
        {
          "internalType": "bytes32",
          "name": "",
          "type": "bytes32"
        }
      ],
      "stateMutability": "view",
      "type": "function"
    },
    {
      "inputs": [],
      "name": "IS_WHITELISTED_USER",
      "outputs": [
        {
          "internalType": "bytes32",
          "name": "",
          "type": "bytes32"
        }
      ],
      "stateMutability": "view",
      "type": "function"
    },
    {
      "inputs": [],
      "name": "WHITELIST_MANAGER_ROLE",
      "outputs": [
        {
          "internalType": "bytes32",
          "name": "",
          "type": "bytes32"
        }
      ],
      "stateMutability": "view",
      "type": "function"
    },
    {
      "inputs": [],
      "name": "fillContract",
      "outputs": [],
      "stateMutability": "nonpayable",
      "type": "function"
    },
    {
      "inputs": [],
      "name": "getBalance",
      "outputs": [
        {
          "internalType": "uint256",
          "name": "",
          "type": "uint256"
        }
      ],
      "stateMutability": "view",
      "type": "function"
    },
    {
      "inputs": [],
      "name": "getContractBalance",
      "outputs": [
        {
          "internalType": "uint256",
          "name": "",
          "type": "uint256"
        }
      ],
      "stateMutability": "view",
      "type": "function"
    },
    {
      "inputs": [
        {
          "internalType": "bytes32",
          "name": "role",
          "type": "bytes32"
        }
      ],
      "name": "getRoleAdmin",
      "outputs": [
        {
          "internalType": "bytes32",
          "name": "",
          "type": "bytes32"
        }
      ],
      "stateMutability": "view",
      "type": "function"
    },
    {
      "inputs": [
        {
          "internalType": "bytes32",
          "name": "role",
          "type": "bytes32"
        },
        {
          "internalType": "uint256",
          "name": "index",
          "type": "uint256"
        }
      ],
      "name": "getRoleMember",
      "outputs": [
        {
          "internalType": "address",
          "name": "",
          "type": "address"
        }
      ],
      "stateMutability": "view",
      "type": "function"
    },
    {
      "inputs": [
        {
          "internalType": "bytes32",
          "name": "role",
          "type": "bytes32"
        }
      ],
      "name": "getRoleMemberCount",
      "outputs": [
        {
          "internalType": "uint256",
          "name": "",
          "type": "uint256"
        }
      ],
      "stateMutability": "view",
      "type": "function"
    },
    {
      "inputs": [
        {
          "internalType": "bytes32",
          "name": "role",
          "type": "bytes32"
        },
        {
          "internalType": "address",
          "name": "account",
          "type": "address"
        }
      ],
      "name": "grantRole",
      "outputs": [],
      "stateMutability": "nonpayable",
      "type": "function"
    },
    {
      "inputs": [
        {
          "internalType": "bytes32",
          "name": "role",
          "type": "bytes32"
        },
        {
          "internalType": "address",
          "name": "account",
          "type": "address"
        }
      ],
      "name": "hasRole",
      "outputs": [
        {
          "internalType": "bool",
          "name": "",
          "type": "bool"
        }
      ],
      "stateMutability": "view",
      "type": "function"
    },
    {
      "inputs": [
        {
          "internalType": "bytes32",
          "name": "role",
          "type": "bytes32"
        },
        {
          "internalType": "address",
          "name": "account",
          "type": "address"
        }
      ],
      "name": "renounceRole",
      "outputs": [],
      "stateMutability": "nonpayable",
      "type": "function"
    },
    {
      "inputs": [],
      "name": "retrieveSFuel",
      "outputs": [],
      "stateMutability": "nonpayable",
      "type": "function"
    },
    {
      "inputs": [
        {
          "internalType": "bytes32",
          "name": "role",
          "type": "bytes32"
        },
        {
          "internalType": "address",
          "name": "account",
          "type": "address"
        }
      ],
      "name": "revokeRole",
      "outputs": [],
      "stateMutability": "nonpayable",
      "type": "function"
    },
    {
      "inputs": [
        {
          "internalType": "bytes4",
          "name": "interfaceId",
          "type": "bytes4"
        }
      ],
      "name": "supportsInterface",
      "outputs": [
        {
          "internalType": "bool",
          "name": "",
          "type": "bool"
        }
      ],
      "stateMutability": "view",
      "type": "function"
    },
    {
      "stateMutability": "payable",
      "type": "receive"
    }
  ],
  "bytecode": "0x6080604052633b9aca0060c955620f424060c9546200001f919062000436565b60ca55600060cb60006101000a81548160ff0219169083151502179055503480156200004a57600080fd5b50620000606200011160201b62000b9d1760201c565b620000927f2a3dab589bcc9747970dd85ac3f222668741ae51f2a1bbb8f8355be28dd8a868336200016560201b60201c565b620000c47f8135f02737a6b32709c1f229001b55183df0d6abcb3022e8bae091ad43fd9e6d336200016560201b60201c565b620000f67faa35297b265f70e7864cdb6b468dec7c6b363aa63d0fb01919c66f6548a9ff27336200016560201b60201c565b6200010b6000801b336200016560201b60201c565b62000540565b600060019054906101000a900460ff1662000163576040517f08c379a00000000000000000000000000000000000000000000000000000000081526004016200015a906200051e565b60405180910390fd5b565b6200017782826200017b60201b60201c565b5050565b620001928282620001c360201b62000bee1760201c565b620001be8160976000858152602001908152602001600020620002b560201b62000ccf1790919060201c565b505050565b620001d58282620002ed60201b60201c565b620002b15760016065600084815260200190815260200160002060000160008373ffffffffffffffffffffffffffffffffffffffff1673ffffffffffffffffffffffffffffffffffffffff16815260200190815260200160002060006101000a81548160ff021916908315150217905550620002566200035860201b60201c565b73ffffffffffffffffffffffffffffffffffffffff168173ffffffffffffffffffffffffffffffffffffffff16837f2f8788117e7eff1d82e926ec794901d17c78024a50270940304540a733656f0d60405160405180910390a45b5050565b6000620002e5836000018373ffffffffffffffffffffffffffffffffffffffff1660001b6200036060201b60201c565b905092915050565b60006065600084815260200190815260200160002060000160008373ffffffffffffffffffffffffffffffffffffffff1673ffffffffffffffffffffffffffffffffffffffff16815260200190815260200160002060009054906101000a900460ff16905092915050565b600033905090565b6000620003748383620003da60201b60201c565b620003cf578260000182908060018154018082558091505060019003906000526020600020016000909190919091505582600001805490508360010160008481526020019081526020016000208190555060019050620003d4565b600090505b92915050565b600080836001016000848152602001908152602001600020541415905092915050565b6000819050919050565b7f4e487b7100000000000000000000000000000000000000000000000000000000600052601160045260246000fd5b60006200044382620003fd565b91506200045083620003fd565b9250817fffffffffffffffffffffffffffffffffffffffffffffffffffffffffffffffff04831182151516156200048c576200048b62000407565b5b828202905092915050565b600082825260208201905092915050565b7f496e697469616c697a61626c653a20636f6e7472616374206973206e6f74206960008201527f6e697469616c697a696e67000000000000000000000000000000000000000000602082015250565b600062000506602b8362000497565b91506200051382620004a8565b604082019050919050565b600060208201905081810360008301526200053981620004f7565b9050919050565b611efd80620005506000396000f3fe6080604052600436106101025760003560e01c80636f9fb98a116100955780639d28b506116100645780639d28b506146103d1578063a217fddf146103fc578063ca15c87314610427578063cf31cf2814610464578063d547741f1461048f57610157565b80636f9fb98a146103015780637295ed931461032c5780639010d07c1461035757806391d148541461039457610157565b8063248a9ca3116100d1578063248a9ca31461025b5780632f2ff15d1461029857806336568abe146102c157806355c09d2a146102ea57610157565b806301ffc9a7146101b157806312065fe0146101ee578063131c53d914610219578063215ac4be1461024457610157565b36610157573373ffffffffffffffffffffffffffffffffffffffff167fa58b71ad2e6ce803dd1eec62e2f3717a164a8912ee33eb51a57a234ba56b55353460405161014d919061150e565b60405180910390a2005b60003411156101af573373ffffffffffffffffffffffffffffffffffffffff167fa58b71ad2e6ce803dd1eec62e2f3717a164a8912ee33eb51a57a234ba56b5535346040516101a6919061150e565b60405180910390a25b005b3480156101bd57600080fd5b506101d860048036038101906101d39190611586565b6104b8565b6040516101e591906115ce565b60405180910390f35b3480156101fa57600080fd5b50610203610532565b604051610210919061150e565b60405180910390f35b34801561022557600080fd5b5061022e610551565b60405161023b9190611602565b60405180910390f35b34801561025057600080fd5b50610259610575565b005b34801561026757600080fd5b50610282600480360381019061027d9190611649565b61075a565b60405161028f9190611602565b60405180910390f35b3480156102a457600080fd5b506102bf60048036038101906102ba91906116d4565b61077a565b005b3480156102cd57600080fd5b506102e860048036038101906102e391906116d4565b61079b565b005b3480156102f657600080fd5b506102ff61081e565b005b34801561030d57600080fd5b50610316610a43565b604051610323919061150e565b60405180910390f35b34801561033857600080fd5b50610341610a4b565b60405161034e9190611602565b60405180910390f35b34801561036357600080fd5b5061037e60048036038101906103799190611740565b610a6f565b60405161038b919061178f565b60405180910390f35b3480156103a057600080fd5b506103bb60048036038101906103b691906116d4565b610a9e565b6040516103c891906115ce565b60405180910390f35b3480156103dd57600080fd5b506103e6610b09565b6040516103f39190611602565b60405180910390f35b34801561040857600080fd5b50610411610b2d565b60405161041e9190611602565b60405180910390f35b34801561043357600080fd5b5061044e60048036038101906104499190611649565b610b34565b60405161045b919061150e565b60405180910390f35b34801561047057600080fd5b50610479610b58565b6040516104869190611602565b60405180910390f35b34801561049b57600080fd5b506104b660048036038101906104b191906116d4565b610b7c565b005b60007f5a05180f000000000000000000000000000000000000000000000000000000007bffffffffffffffffffffffffffffffffffffffffffffffffffffffff1916827bffffffffffffffffffffffffffffffffffffffffffffffffffffffff1916148061052b575061052a82610cff565b5b9050919050565b60003373ffffffffffffffffffffffffffffffffffffffff1631905090565b7faa35297b265f70e7864cdb6b468dec7c6b363aa63d0fb01919c66f6548a9ff2781565b60cb60009054906101000a900460ff16156105c5576040517f08c379a00000000000000000000000000000000000000000000000000000000081526004016105bc90611807565b60405180910390fd5b6105ef7f8135f02737a6b32709c1f229001b55183df0d6abcb3022e8bae091ad43fd9e6d33610a9e565b61062e576040517f08c379a000000000000000000000000000000000000000000000000000000000815260040161062590611873565b60405180910390fd5b600061063930610d79565b9050600061064682610d9a565b9050610650610db1565b73ffffffffffffffffffffffffffffffffffffffff1663204a3e9330836040518363ffffffff1660e01b815260040161068a9291906118b4565b600060405180830381600087803b1580156106a457600080fd5b505af11580156106b8573d6000803e3d6000fd5b5050505060ca546106c830610d79565b14610708576040517f08c379a00000000000000000000000000000000000000000000000000000000081526004016106ff90611929565b60405180910390fd5b3373ffffffffffffffffffffffffffffffffffffffff167f2d6e436d93e4e3143f5d97f5786f48e9736d037972d20e408bb1aa2284bf6c0f8260405161074e919061150e565b60405180910390a25050565b600060656000838152602001908152602001600020600101549050919050565b6107838261075a565b61078c81610dc0565b6107968383610dd4565b505050565b6107a3610e08565b73ffffffffffffffffffffffffffffffffffffffff168173ffffffffffffffffffffffffffffffffffffffff1614610810576040517f08c379a0000000000000000000000000000000000000000000000000000000008152600401610807906119bb565b60405180910390fd5b61081a8282610e10565b5050565b60cb60009054906101000a900460ff161561086e576040517f08c379a000000000000000000000000000000000000000000000000000000000815260040161086590611807565b60405180910390fd5b6108987f346536c0fe970b9c60c7d91955f37ec88ba0e153cc3d81537a6c8d45fa3398d133610a9e565b6108d7576040517f08c379a00000000000000000000000000000000000000000000000000000000081526004016108ce90611a27565b60405180910390fd5b60006108e233610d79565b905060c9548110156109925760006108f982610e44565b90503373ffffffffffffffffffffffffffffffffffffffff166108fc829081150290604051600060405180830381858888f19350505050158015610941573d6000803e3d6000fd5b503373ffffffffffffffffffffffffffffffffffffffff167fcaa2147b3f9864f2c5b11b0f9f7329fcd16cb0feb49a9136a04a1550f7a5dde382604051610988919061150e565b60405180910390a2505b60c954811115610a405760006109a782610e5b565b90503073ffffffffffffffffffffffffffffffffffffffff166108fc829081150290604051600060405180830381858888f193505050501580156109ef573d6000803e3d6000fd5b503373ffffffffffffffffffffffffffffffffffffffff167f16a9207b6ab587902efd8e64141dd5115f83ad4c9bf06ad89d46cdb95048342b82604051610a36919061150e565b60405180910390a2505b50565b600047905090565b7f2a3dab589bcc9747970dd85ac3f222668741ae51f2a1bbb8f8355be28dd8a86881565b6000610a968260976000868152602001908152602001600020610e7290919063ffffffff16565b905092915050565b60006065600084815260200190815260200160002060000160008373ffffffffffffffffffffffffffffffffffffffff1673ffffffffffffffffffffffffffffffffffffffff16815260200190815260200160002060009054906101000a900460ff16905092915050565b7f8135f02737a6b32709c1f229001b55183df0d6abcb3022e8bae091ad43fd9e6d81565b6000801b81565b6000610b5160976000848152602001908152602001600020610e8c565b9050919050565b7f346536c0fe970b9c60c7d91955f37ec88ba0e153cc3d81537a6c8d45fa3398d181565b610b858261075a565b610b8e81610dc0565b610b988383610e10565b505050565b600060019054906101000a900460ff16610bec576040517f08c379a0000000000000000000000000000000000000000000000000000000008152600401610be390611ab9565b60405180910390fd5b565b610bf88282610a9e565b610ccb5760016065600084815260200190815260200160002060000160008373ffffffffffffffffffffffffffffffffffffffff1673ffffffffffffffffffffffffffffffffffffffff16815260200190815260200160002060006101000a81548160ff021916908315150217905550610c70610e08565b73ffffffffffffffffffffffffffffffffffffffff168173ffffffffffffffffffffffffffffffffffffffff16837f2f8788117e7eff1d82e926ec794901d17c78024a50270940304540a733656f0d60405160405180910390a45b5050565b6000610cf7836000018373ffffffffffffffffffffffffffffffffffffffff1660001b610ea1565b905092915050565b60007f7965db0b000000000000000000000000000000000000000000000000000000007bffffffffffffffffffffffffffffffffffffffffffffffffffffffff1916827bffffffffffffffffffffffffffffffffffffffffffffffffffffffff19161480610d725750610d7182610f11565b5b9050919050565b60008173ffffffffffffffffffffffffffffffffffffffff16319050919050565b60008160ca54610daa9190611b08565b9050919050565b6000610dbb610f7b565b905090565b610dd181610dcc610e08565b610f97565b50565b610dde8282610bee565b610e038160976000858152602001908152602001600020610ccf90919063ffffffff16565b505050565b600033905090565b610e1a8282611034565b610e3f816097600085815260200190815260200160002061111690919063ffffffff16565b505050565b60008160c954610e549190611b08565b9050919050565b600060c95482610e6b9190611b08565b9050919050565b6000610e818360000183611146565b60001c905092915050565b6000610e9a82600001611171565b9050919050565b6000610ead8383611182565b610f06578260000182908060018154018082558091505060019003906000526020600020016000909190919091505582600001805490508360010160008481526020019081526020016000208190555060019050610f0b565b600090505b92915050565b60007f01ffc9a7000000000000000000000000000000000000000000000000000000007bffffffffffffffffffffffffffffffffffffffffffffffffffffffff1916827bffffffffffffffffffffffffffffffffffffffffffffffffffffffff1916149050919050565b600073d2ba3e0000000000000000000000000000000000905090565b610fa18282610a9e565b61103057610fc68173ffffffffffffffffffffffffffffffffffffffff1660146111a5565b610fd48360001c60206111a5565b604051602001610fe5929190611c4e565b6040516020818303038152906040526040517f08c379a00000000000000000000000000000000000000000000000000000000081526004016110279190611cd2565b60405180910390fd5b5050565b61103e8282610a9e565b156111125760006065600084815260200190815260200160002060000160008373ffffffffffffffffffffffffffffffffffffffff1673ffffffffffffffffffffffffffffffffffffffff16815260200190815260200160002060006101000a81548160ff0219169083151502179055506110b7610e08565b73ffffffffffffffffffffffffffffffffffffffff168173ffffffffffffffffffffffffffffffffffffffff16837ff6391f5c32d9c69d2a47ea670b442974b53935d1edc7fd64eb21e047a839171b60405160405180910390a45b5050565b600061113e836000018373ffffffffffffffffffffffffffffffffffffffff1660001b6113e1565b905092915050565b600082600001828154811061115e5761115d611cf4565b5b9060005260206000200154905092915050565b600081600001805490509050919050565b600080836001016000848152602001908152602001600020541415905092915050565b6060600060028360026111b89190611d23565b6111c29190611d7d565b67ffffffffffffffff8111156111db576111da611dd3565b5b6040519080825280601f01601f19166020018201604052801561120d5781602001600182028036833780820191505090505b5090507f30000000000000000000000000000000000000000000000000000000000000008160008151811061124557611244611cf4565b5b60200101907effffffffffffffffffffffffffffffffffffffffffffffffffffffffffffff1916908160001a9053507f7800000000000000000000000000000000000000000000000000000000000000816001815181106112a9576112a8611cf4565b5b60200101907effffffffffffffffffffffffffffffffffffffffffffffffffffffffffffff1916908160001a905350600060018460026112e99190611d23565b6112f39190611d7d565b90505b6001811115611393577f3031323334353637383961626364656600000000000000000000000000000000600f86166010811061133557611334611cf4565b5b1a60f81b82828151811061134c5761134b611cf4565b5b60200101907effffffffffffffffffffffffffffffffffffffffffffffffffffffffffffff1916908160001a905350600485901c94508061138c90611e02565b90506112f6565b50600084146113d7576040517f08c379a00000000000000000000000000000000000000000000000000000000081526004016113ce90611e78565b60405180910390fd5b8091505092915050565b600080836001016000848152602001908152602001600020549050600081146114e95760006001826114139190611b08565b905060006001866000018054905061142b9190611b08565b905081811461149a57600086600001828154811061144c5761144b611cf4565b5b90600052602060002001549050808760000184815481106114705761146f611cf4565b5b90600052602060002001819055508387600101600083815260200190815260200160002081905550505b856000018054806114ae576114ad611e98565b5b6001900381819060005260206000200160009055905585600101600086815260200190815260200160002060009055600193505050506114ef565b60009150505b92915050565b6000819050919050565b611508816114f5565b82525050565b600060208201905061152360008301846114ff565b92915050565b600080fd5b60007fffffffff0000000000000000000000000000000000000000000000000000000082169050919050565b6115638161152e565b811461156e57600080fd5b50565b6000813590506115808161155a565b92915050565b60006020828403121561159c5761159b611529565b5b60006115aa84828501611571565b91505092915050565b60008115159050919050565b6115c8816115b3565b82525050565b60006020820190506115e360008301846115bf565b92915050565b6000819050919050565b6115fc816115e9565b82525050565b600060208201905061161760008301846115f3565b92915050565b611626816115e9565b811461163157600080fd5b50565b6000813590506116438161161d565b92915050565b60006020828403121561165f5761165e611529565b5b600061166d84828501611634565b91505092915050565b600073ffffffffffffffffffffffffffffffffffffffff82169050919050565b60006116a182611676565b9050919050565b6116b181611696565b81146116bc57600080fd5b50565b6000813590506116ce816116a8565b92915050565b600080604083850312156116eb576116ea611529565b5b60006116f985828601611634565b925050602061170a858286016116bf565b9150509250929050565b61171d816114f5565b811461172857600080fd5b50565b60008135905061173a81611714565b92915050565b6000806040838503121561175757611756611529565b5b600061176585828601611634565b92505060206117768582860161172b565b9150509250929050565b61178981611696565b82525050565b60006020820190506117a46000830184611780565b92915050565b600082825260208201905092915050565b7f436f6e7472616374206973205061757365640000000000000000000000000000600082015250565b60006117f16012836117aa565b91506117fc826117bb565b602082019050919050565b60006020820190508181036000830152611820816117e4565b9050919050565b7f434f4e54524143545f4d414e414745525f524f4c452052657175697265640000600082015250565b600061185d601e836117aa565b915061186882611827565b602082019050919050565b6000602082019050818103600083015261188c81611850565b9050919050565b600061189e82611676565b9050919050565b6118ae81611893565b82525050565b60006040820190506118c960008301856118a5565b6118d660208301846114ff565b9392505050565b7f4572726f722046696c6c696e6720557000000000000000000000000000000000600082015250565b60006119136010836117aa565b915061191e826118dd565b602082019050919050565b6000602082019050818103600083015261194281611906565b9050919050565b7f416363657373436f6e74726f6c3a2063616e206f6e6c792072656e6f756e636560008201527f20726f6c657320666f722073656c660000000000000000000000000000000000602082015250565b60006119a5602f836117aa565b91506119b082611949565b604082019050919050565b600060208201905081810360008301526119d481611998565b9050919050565b7f49535f57484954454c49535445445f5553455220526571756972656400000000600082015250565b6000611a11601c836117aa565b9150611a1c826119db565b602082019050919050565b60006020820190508181036000830152611a4081611a04565b9050919050565b7f496e697469616c697a61626c653a20636f6e7472616374206973206e6f74206960008201527f6e697469616c697a696e67000000000000000000000000000000000000000000602082015250565b6000611aa3602b836117aa565b9150611aae82611a47565b604082019050919050565b60006020820190508181036000830152611ad281611a96565b9050919050565b7f4e487b7100000000000000000000000000000000000000000000000000000000600052601160045260246000fd5b6000611b13826114f5565b9150611b1e836114f5565b925082821015611b3157611b30611ad9565b5b828203905092915050565b600081905092915050565b7f416363657373436f6e74726f6c3a206163636f756e7420000000000000000000600082015250565b6000611b7d601783611b3c565b9150611b8882611b47565b601782019050919050565b600081519050919050565b60005b83811015611bbc578082015181840152602081019050611ba1565b83811115611bcb576000848401525b50505050565b6000611bdc82611b93565b611be68185611b3c565b9350611bf6818560208601611b9e565b80840191505092915050565b7f206973206d697373696e6720726f6c6520000000000000000000000000000000600082015250565b6000611c38601183611b3c565b9150611c4382611c02565b601182019050919050565b6000611c5982611b70565b9150611c658285611bd1565b9150611c7082611c2b565b9150611c7c8284611bd1565b91508190509392505050565b6000601f19601f8301169050919050565b6000611ca482611b93565b611cae81856117aa565b9350611cbe818560208601611b9e565b611cc781611c88565b840191505092915050565b60006020820190508181036000830152611cec8184611c99565b905092915050565b7f4e487b7100000000000000000000000000000000000000000000000000000000600052603260045260246000fd5b6000611d2e826114f5565b9150611d39836114f5565b9250817fffffffffffffffffffffffffffffffffffffffffffffffffffffffffffffffff0483118215151615611d7257611d71611ad9565b5b828202905092915050565b6000611d88826114f5565b9150611d93836114f5565b9250827fffffffffffffffffffffffffffffffffffffffffffffffffffffffffffffffff03821115611dc857611dc7611ad9565b5b828201905092915050565b7f4e487b7100000000000000000000000000000000000000000000000000000000600052604160045260246000fd5b6000611e0d826114f5565b91506000821415611e2157611e20611ad9565b5b600182039050919050565b7f537472696e67733a20686578206c656e67746820696e73756666696369656e74600082015250565b6000611e626020836117aa565b9150611e6d82611e2c565b602082019050919050565b60006020820190508181036000830152611e9181611e55565b9050919050565b7f4e487b7100000000000000000000000000000000000000000000000000000000600052603160045260246000fdfea264697066735822122074232366a034136abc2f52408c41b5d5f4272ee94def3fe72b0960ae858fd21164736f6c63430008090033",
  "linkReferences": {},
  "deployedLinkReferences": {}
}