{
  "_format": "hh-sol-artifact-1",
  "contractName": "LiliNFTUpgradeable",
  "sourceName": "nfts/contracts/LiliNFTUpgradeable.sol",
  "abi": [
    {
      "anonymous": false,
      "inputs": [
        {
          "indexed": true,
          "internalType": "address",
          "name": "owner",
          "type": "address"
        },
        {
          "indexed": true,
          "internalType": "address",
          "name": "approved",
          "type": "address"
        },
        {
          "indexed": true,
          "internalType": "uint256",
          "name": "tokenId",
          "type": "uint256"
        }
      ],
      "name": "Approval",
      "type": "event"
    },
    {
      "anonymous": false,
      "inputs": [
        {
          "indexed": true,
          "internalType": "address",
          "name": "owner",
          "type": "address"
        },
        {
          "indexed": true,
          "internalType": "address",
          "name": "operator",
          "type": "address"
        },
        {
          "indexed": false,
          "internalType": "bool",
          "name": "approved",
          "type": "bool"
        }
      ],
      "name": "ApprovalForAll",
      "type": "event"
    },
    {
      "anonymous": false,
      "inputs": [
        {
          "indexed": false,
          "internalType": "uint8",
          "name": "version",
          "type": "uint8"
        }
      ],
      "name": "Initialized",
      "type": "event"
    },
    {
      "anonymous": false,
      "inputs": [
        {
          "indexed": true,
          "internalType": "address",
          "name": "previousOwner",
          "type": "address"
        },
        {
          "indexed": true,
          "internalType": "address",
          "name": "newOwner",
          "type": "address"
        }
      ],
      "name": "OwnershipTransferred",
      "type": "event"
    },
    {
      "anonymous": false,
      "inputs": [
        {
          "indexed": true,
          "internalType": "address",
          "name": "from",
          "type": "address"
        },
        {
          "indexed": true,
          "internalType": "address",
          "name": "to",
          "type": "address"
        },
        {
          "indexed": true,
          "internalType": "uint256",
          "name": "tokenId",
          "type": "uint256"
        }
      ],
      "name": "Transfer",
      "type": "event"
    },
    {
      "inputs": [],
      "name": "NAME",
      "outputs": [
        {
          "internalType": "string",
          "name": "",
          "type": "string"
        }
      ],
      "stateMutability": "view",
      "type": "function"
    },
    {
      "inputs": [],
      "name": "SYMBOL",
      "outputs": [
        {
          "internalType": "string",
          "name": "",
          "type": "string"
        }
      ],
      "stateMutability": "view",
      "type": "function"
    },
    {
      "inputs": [
        {
          "internalType": "address",
          "name": "to",
          "type": "address"
        },
        {
          "internalType": "uint256",
          "name": "tokenId",
          "type": "uint256"
        }
      ],
      "name": "approve",
      "outputs": [],
      "stateMutability": "nonpayable",
      "type": "function"
    },
    {
      "inputs": [
        {
          "internalType": "address",
          "name": "owner",
          "type": "address"
        }
      ],
      "name": "balanceOf",
      "outputs": [
        {
          "internalType": "uint256",
          "name": "",
          "type": "uint256"
        }
      ],
      "stateMutability": "view",
      "type": "function"
    },
    {
      "inputs": [
        {
          "internalType": "uint256",
          "name": "tokenId",
          "type": "uint256"
        }
      ],
      "name": "getApproved",
      "outputs": [
        {
          "internalType": "address",
          "name": "",
          "type": "address"
        }
      ],
      "stateMutability": "view",
      "type": "function"
    },
    {
      "inputs": [
        {
          "internalType": "address",
          "name": "_owner",
          "type": "address"
        },
        {
          "internalType": "address",
          "name": "_sFuel",
          "type": "address"
        }
      ],
      "name": "initialize",
      "outputs": [],
      "stateMutability": "nonpayable",
      "type": "function"
    },
    {
      "inputs": [
        {
          "internalType": "address",
          "name": "owner",
          "type": "address"
        },
        {
          "internalType": "address",
          "name": "operator",
          "type": "address"
        }
      ],
      "name": "isApprovedForAll",
      "outputs": [
        {
          "internalType": "bool",
          "name": "",
          "type": "bool"
        }
      ],
      "stateMutability": "view",
      "type": "function"
    },
    {
      "inputs": [],
      "name": "name",
      "outputs": [
        {
          "internalType": "string",
          "name": "",
          "type": "string"
        }
      ],
      "stateMutability": "view",
      "type": "function"
    },
    {
      "inputs": [],
      "name": "owner",
      "outputs": [
        {
          "internalType": "address",
          "name": "",
          "type": "address"
        }
      ],
      "stateMutability": "view",
      "type": "function"
    },
    {
      "inputs": [
        {
          "internalType": "uint256",
          "name": "tokenId",
          "type": "uint256"
        }
      ],
      "name": "ownerOf",
      "outputs": [
        {
          "internalType": "address",
          "name": "",
          "type": "address"
        }
      ],
      "stateMutability": "view",
      "type": "function"
    },
    {
      "inputs": [],
      "name": "renounceOwnership",
      "outputs": [],
      "stateMutability": "nonpayable",
      "type": "function"
    },
    {
      "inputs": [],
      "name": "sFuel",
      "outputs": [
        {
          "internalType": "address",
          "name": "",
          "type": "address"
        }
      ],
      "stateMutability": "view",
      "type": "function"
    },
    {
      "inputs": [
        {
          "internalType": "address",
          "name": "_reciever",
          "type": "address"
        }
      ],
      "name": "safeMintWithSFuel",
      "outputs": [],
      "stateMutability": "nonpayable",
      "type": "function"
    },
    {
      "inputs": [
        {
          "internalType": "address",
          "name": "from",
          "type": "address"
        },
        {
          "internalType": "address",
          "name": "to",
          "type": "address"
        },
        {
          "internalType": "uint256",
          "name": "tokenId",
          "type": "uint256"
        }
      ],
      "name": "safeTransferFrom",
      "outputs": [],
      "stateMutability": "nonpayable",
      "type": "function"
    },
    {
      "inputs": [
        {
          "internalType": "address",
          "name": "from",
          "type": "address"
        },
        {
          "internalType": "address",
          "name": "to",
          "type": "address"
        },
        {
          "internalType": "uint256",
          "name": "tokenId",
          "type": "uint256"
        },
        {
          "internalType": "bytes",
          "name": "_data",
          "type": "bytes"
        }
      ],
      "name": "safeTransferFrom",
      "outputs": [],
      "stateMutability": "nonpayable",
      "type": "function"
    },
    {
      "inputs": [
        {
          "internalType": "address",
          "name": "operator",
          "type": "address"
        },
        {
          "internalType": "bool",
          "name": "approved",
          "type": "bool"
        }
      ],
      "name": "setApprovalForAll",
      "outputs": [],
      "stateMutability": "nonpayable",
      "type": "function"
    },
    {
      "inputs": [
        {
          "internalType": "bytes4",
          "name": "interfaceId",
          "type": "bytes4"
        }
      ],
      "name": "supportsInterface",
      "outputs": [
        {
          "internalType": "bool",
          "name": "",
          "type": "bool"
        }
      ],
      "stateMutability": "view",
      "type": "function"
    },
    {
      "inputs": [],
      "name": "symbol",
      "outputs": [
        {
          "internalType": "string",
          "name": "",
          "type": "string"
        }
      ],
      "stateMutability": "view",
      "type": "function"
    },
    {
      "inputs": [],
      "name": "tokenId",
      "outputs": [
        {
          "internalType": "uint256",
          "name": "",
          "type": "uint256"
        }
      ],
      "stateMutability": "view",
      "type": "function"
    },
    {
      "inputs": [
        {
          "internalType": "uint256",
          "name": "tokenId",
          "type": "uint256"
        }
      ],
      "name": "tokenURI",
      "outputs": [
        {
          "internalType": "string",
          "name": "",
          "type": "string"
        }
      ],
      "stateMutability": "view",
      "type": "function"
    },
    {
      "inputs": [
        {
          "internalType": "address",
          "name": "from",
          "type": "address"
        },
        {
          "internalType": "address",
          "name": "to",
          "type": "address"
        },
        {
          "internalType": "uint256",
          "name": "tokenId",
          "type": "uint256"
        }
      ],
      "name": "transferFrom",
      "outputs": [],
      "stateMutability": "nonpayable",
      "type": "function"
    },
    {
      "inputs": [
        {
          "internalType": "address",
          "name": "newOwner",
          "type": "address"
        }
      ],
      "name": "transferOwnership",
      "outputs": [],
      "stateMutability": "nonpayable",
      "type": "function"
    },
    {
      "inputs": [
        {
          "internalType": "address",
          "name": "_address",
          "type": "address"
        }
      ],
      "name": "updateSFuelAddress",
      "outputs": [],
      "stateMutability": "nonpayable",
      "type": "function"
    }
  ],
  "bytecode": "0x608060405234801561001057600080fd5b50613988806100206000396000f3fe608060405234801561001057600080fd5b506004361061014d5760003560e01c8063715018a6116100c3578063ab43e78d1161007c578063ab43e78d14610376578063b88d4fde14610394578063c87b56dd146103b0578063e985e9c5146103e0578063f2fde38b14610410578063f76f8d781461042c5761014d565b8063715018a6146102da5780638c41114b146102e45780638da5cb5b1461030057806395d89b411461031e578063a22cb4651461033c578063a3f4df7e146103585761014d565b806323b872dd1161011557806323b872dd1461020a57806342842e0e14610226578063485cc955146102425780635b2b11131461025e5780636352211e1461027a57806370a08231146102aa5761014d565b806301ffc9a71461015257806306fdde0314610182578063081812fc146101a0578063095ea7b3146101d057806317d70f7c146101ec575b600080fd5b61016c6004803603810190610167919061240d565b61044a565b6040516101799190612455565b60405180910390f35b61018a61052c565b6040516101979190612509565b60405180910390f35b6101ba60048036038101906101b59190612561565b6105be565b6040516101c791906125cf565b60405180910390f35b6101ea60048036038101906101e59190612616565b610643565b005b6101f461075b565b6040516102019190612665565b60405180910390f35b610224600480360381019061021f9190612680565b610761565b005b610240600480360381019061023b9190612680565b6107c1565b005b61025c600480360381019061025791906126d3565b6107e1565b005b61027860048036038101906102739190612713565b61093d565b005b610294600480360381019061028f9190612561565b6109d9565b6040516102a191906125cf565b60405180910390f35b6102c460048036038101906102bf9190612713565b610a8b565b6040516102d19190612665565b60405180910390f35b6102e2610b43565b005b6102fe60048036038101906102f99190612713565b610bcb565b005b610308610d8c565b60405161031591906125cf565b60405180910390f35b610326610db6565b6040516103339190612509565b60405180910390f35b6103566004803603810190610351919061276c565b610e48565b005b610360610e5e565b60405161036d9190612509565b60405180910390f35b61037e610e97565b60405161038b91906125cf565b60405180910390f35b6103ae60048036038101906103a991906128e1565b610ebd565b005b6103ca60048036038101906103c59190612561565b610f1f565b6040516103d79190612509565b60405180910390f35b6103fa60048036038101906103f591906126d3565b610fc6565b6040516104079190612455565b60405180910390f35b61042a60048036038101906104259190612713565b61105a565b005b610434611152565b6040516104419190612509565b60405180910390f35b60007f80ac58cd000000000000000000000000000000000000000000000000000000007bffffffffffffffffffffffffffffffffffffffffffffffffffffffff1916827bffffffffffffffffffffffffffffffffffffffffffffffffffffffff1916148061051557507f5b5e139f000000000000000000000000000000000000000000000000000000007bffffffffffffffffffffffffffffffffffffffffffffffffffffffff1916827bffffffffffffffffffffffffffffffffffffffffffffffffffffffff1916145b8061052557506105248261118b565b5b9050919050565b60606065805461053b90612993565b80601f016020809104026020016040519081016040528092919081815260200182805461056790612993565b80156105b45780601f10610589576101008083540402835291602001916105b4565b820191906000526020600020905b81548152906001019060200180831161059757829003601f168201915b5050505050905090565b60006105c9826111f5565b610608576040517f08c379a00000000000000000000000000000000000000000000000000000000081526004016105ff90612a37565b60405180910390fd5b6069600083815260200190815260200160002060009054906101000a900473ffffffffffffffffffffffffffffffffffffffff169050919050565b600061064e826109d9565b90508073ffffffffffffffffffffffffffffffffffffffff168373ffffffffffffffffffffffffffffffffffffffff1614156106bf576040517f08c379a00000000000000000000000000000000000000000000000000000000081526004016106b690612ac9565b60405180910390fd5b8073ffffffffffffffffffffffffffffffffffffffff166106de611261565b73ffffffffffffffffffffffffffffffffffffffff16148061070d575061070c81610707611261565b610fc6565b5b61074c576040517f08c379a000000000000000000000000000000000000000000000000000000000815260040161074390612b5b565b60405180910390fd5b6107568383611269565b505050565b60c95481565b61077261076c611261565b82611322565b6107b1576040517f08c379a00000000000000000000000000000000000000000000000000000000081526004016107a890612bed565b60405180910390fd5b6107bc838383611400565b505050565b6107dc83838360405180602001604052806000815250610ebd565b505050565b60006107ed6001611667565b90508015610811576001600060016101000a81548160ff0219169083151502179055505b6108856040518060400160405280600781526020017f4c696c694e4654000000000000000000000000000000000000000000000000008152506040518060400160405280600781526020017f4c494c494e465400000000000000000000000000000000000000000000000000815250611757565b61088d6117b4565b6108968361105a565b8160ca60006101000a81548173ffffffffffffffffffffffffffffffffffffffff021916908373ffffffffffffffffffffffffffffffffffffffff160217905550600060c98190555080156109385760008060016101000a81548160ff0219169083151502179055507f7f26b83ff96e1f2b6a682f133852f6798a09c465da95921460cefb3847402498600160405161092f9190612c5f565b60405180910390a15b505050565b61094561180d565b600073ffffffffffffffffffffffffffffffffffffffff168173ffffffffffffffffffffffffffffffffffffffff1614156109b5576040517f08c379a00000000000000000000000000000000000000000000000000000000081526004016109ac90612cc6565b60405180910390fd5b6109c18160c9546119fe565b600160c9546109d09190612d15565b60c98190555050565b6000806067600084815260200190815260200160002060009054906101000a900473ffffffffffffffffffffffffffffffffffffffff169050600073ffffffffffffffffffffffffffffffffffffffff168173ffffffffffffffffffffffffffffffffffffffff161415610a82576040517f08c379a0000000000000000000000000000000000000000000000000000000008152600401610a7990612ddd565b60405180910390fd5b80915050919050565b60008073ffffffffffffffffffffffffffffffffffffffff168273ffffffffffffffffffffffffffffffffffffffff161415610afc576040517f08c379a0000000000000000000000000000000000000000000000000000000008152600401610af390612e6f565b60405180910390fd5b606860008373ffffffffffffffffffffffffffffffffffffffff1673ffffffffffffffffffffffffffffffffffffffff168152602001908152602001600020549050919050565b610b4b611261565b73ffffffffffffffffffffffffffffffffffffffff16610b69610d8c565b73ffffffffffffffffffffffffffffffffffffffff1614610bbf576040517f08c379a0000000000000000000000000000000000000000000000000000000008152600401610bb690612edb565b60405180910390fd5b610bc96000611a1c565b565b610bd3611261565b73ffffffffffffffffffffffffffffffffffffffff16610bf1610d8c565b73ffffffffffffffffffffffffffffffffffffffff1614610c47576040517f08c379a0000000000000000000000000000000000000000000000000000000008152600401610c3e90612edb565b60405180910390fd5b600073ffffffffffffffffffffffffffffffffffffffff168173ffffffffffffffffffffffffffffffffffffffff161415610cb7576040517f08c379a0000000000000000000000000000000000000000000000000000000008152600401610cae90612f47565b60405180910390fd5b60ca60009054906101000a900473ffffffffffffffffffffffffffffffffffffffff1673ffffffffffffffffffffffffffffffffffffffff168173ffffffffffffffffffffffffffffffffffffffff161415610d48576040517f08c379a0000000000000000000000000000000000000000000000000000000008152600401610d3f90612fb3565b60405180910390fd5b8060ca60006101000a81548173ffffffffffffffffffffffffffffffffffffffff021916908373ffffffffffffffffffffffffffffffffffffffff16021790555050565b6000609760009054906101000a900473ffffffffffffffffffffffffffffffffffffffff16905090565b606060668054610dc590612993565b80601f0160208091040260200160405190810160405280929190818152602001828054610df190612993565b8015610e3e5780601f10610e1357610100808354040283529160200191610e3e565b820191906000526020600020905b815481529060010190602001808311610e2157829003601f168201915b5050505050905090565b610e5a610e53611261565b8383611ae2565b5050565b6040518060400160405280600781526020017f4c696c694e46540000000000000000000000000000000000000000000000000081525081565b60ca60009054906101000a900473ffffffffffffffffffffffffffffffffffffffff1681565b610ece610ec8611261565b83611322565b610f0d576040517f08c379a0000000000000000000000000000000000000000000000000000000008152600401610f0490612bed565b60405180910390fd5b610f1984848484611c4f565b50505050565b6060610f2a826111f5565b610f69576040517f08c379a0000000000000000000000000000000000000000000000000000000008152600401610f6090613045565b60405180910390fd5b6000610f73611cab565b90506000815111610f935760405180602001604052806000815250610fbe565b80610f9d84611cc2565b604051602001610fae9291906130a1565b6040516020818303038152906040525b915050919050565b6000606a60008473ffffffffffffffffffffffffffffffffffffffff1673ffffffffffffffffffffffffffffffffffffffff16815260200190815260200160002060008373ffffffffffffffffffffffffffffffffffffffff1673ffffffffffffffffffffffffffffffffffffffff16815260200190815260200160002060009054906101000a900460ff16905092915050565b611062611261565b73ffffffffffffffffffffffffffffffffffffffff16611080610d8c565b73ffffffffffffffffffffffffffffffffffffffff16146110d6576040517f08c379a00000000000000000000000000000000000000000000000000000000081526004016110cd90612edb565b60405180910390fd5b600073ffffffffffffffffffffffffffffffffffffffff168173ffffffffffffffffffffffffffffffffffffffff161415611146576040517f08c379a000000000000000000000000000000000000000000000000000000000815260040161113d90613137565b60405180910390fd5b61114f81611a1c565b50565b6040518060400160405280600781526020017f4c494c494e46540000000000000000000000000000000000000000000000000081525081565b60007f01ffc9a7000000000000000000000000000000000000000000000000000000007bffffffffffffffffffffffffffffffffffffffffffffffffffffffff1916827bffffffffffffffffffffffffffffffffffffffffffffffffffffffff1916149050919050565b60008073ffffffffffffffffffffffffffffffffffffffff166067600084815260200190815260200160002060009054906101000a900473ffffffffffffffffffffffffffffffffffffffff1673ffffffffffffffffffffffffffffffffffffffff1614159050919050565b600033905090565b816069600083815260200190815260200160002060006101000a81548173ffffffffffffffffffffffffffffffffffffffff021916908373ffffffffffffffffffffffffffffffffffffffff160217905550808273ffffffffffffffffffffffffffffffffffffffff166112dc836109d9565b73ffffffffffffffffffffffffffffffffffffffff167f8c5be1e5ebec7d5bd14f71427d1e84f3dd0314c0f7b2291e5b200ac8c7c3b92560405160405180910390a45050565b600061132d826111f5565b61136c576040517f08c379a0000000000000000000000000000000000000000000000000000000008152600401611363906131c9565b60405180910390fd5b6000611377836109d9565b90508073ffffffffffffffffffffffffffffffffffffffff168473ffffffffffffffffffffffffffffffffffffffff1614806113b957506113b88185610fc6565b5b806113f757508373ffffffffffffffffffffffffffffffffffffffff166113df846105be565b73ffffffffffffffffffffffffffffffffffffffff16145b91505092915050565b8273ffffffffffffffffffffffffffffffffffffffff16611420826109d9565b73ffffffffffffffffffffffffffffffffffffffff1614611476576040517f08c379a000000000000000000000000000000000000000000000000000000000815260040161146d9061325b565b60405180910390fd5b600073ffffffffffffffffffffffffffffffffffffffff168273ffffffffffffffffffffffffffffffffffffffff1614156114e6576040517f08c379a00000000000000000000000000000000000000000000000000000000081526004016114dd906132ed565b60405180910390fd5b6114f1838383611e23565b6114fc600082611269565b6001606860008573ffffffffffffffffffffffffffffffffffffffff1673ffffffffffffffffffffffffffffffffffffffff168152602001908152602001600020600082825461154c919061330d565b925050819055506001606860008473ffffffffffffffffffffffffffffffffffffffff1673ffffffffffffffffffffffffffffffffffffffff16815260200190815260200160002060008282546115a39190612d15565b92505081905550816067600083815260200190815260200160002060006101000a81548173ffffffffffffffffffffffffffffffffffffffff021916908373ffffffffffffffffffffffffffffffffffffffff160217905550808273ffffffffffffffffffffffffffffffffffffffff168473ffffffffffffffffffffffffffffffffffffffff167fddf252ad1be2c89b69c2b068fc378daa952ba7f163c4a11628f55a4df523b3ef60405160405180910390a4611662838383611e28565b505050565b60008060019054906101000a900460ff16156116de5760018260ff16148015611696575061169430611e2d565b155b6116d5576040517f08c379a00000000000000000000000000000000000000000000000000000000081526004016116cc906133b3565b60405180910390fd5b60009050611752565b8160ff1660008054906101000a900460ff1660ff1610611733576040517f08c379a000000000000000000000000000000000000000000000000000000000815260040161172a906133b3565b60405180910390fd5b816000806101000a81548160ff021916908360ff160217905550600190505b919050565b600060019054906101000a900460ff166117a6576040517f08c379a000000000000000000000000000000000000000000000000000000000815260040161179d90613445565b60405180910390fd5b6117b08282611e50565b5050565b600060019054906101000a900460ff16611803576040517f08c379a00000000000000000000000000000000000000000000000000000000081526004016117fa90613445565b60405180910390fd5b61180b611ed1565b565b600073ffffffffffffffffffffffffffffffffffffffff1660ca60009054906101000a900473ffffffffffffffffffffffffffffffffffffffff1673ffffffffffffffffffffffffffffffffffffffff16141561189f576040517f08c379a0000000000000000000000000000000000000000000000000000000008152600401611896906134b1565b60405180910390fd5b600060ca60009054906101000a900473ffffffffffffffffffffffffffffffffffffffff1673ffffffffffffffffffffffffffffffffffffffff16336040516024016118eb91906125cf565b6040516020818303038152906040527f3eb5938a000000000000000000000000000000000000000000000000000000007bffffffffffffffffffffffffffffffffffffffffffffffffffffffff19166020820180517bffffffffffffffffffffffffffffffffffffffffffffffffffffffff83818316178352505050506040516119759190613518565b6000604051808303816000865af19150503d80600081146119b2576040519150601f19603f3d011682016040523d82523d6000602084013e6119b7565b606091505b50509050806119fb576040517f08c379a00000000000000000000000000000000000000000000000000000000081526004016119f29061357b565b60405180910390fd5b50565b611a18828260405180602001604052806000815250611f32565b5050565b6000609760009054906101000a900473ffffffffffffffffffffffffffffffffffffffff16905081609760006101000a81548173ffffffffffffffffffffffffffffffffffffffff021916908373ffffffffffffffffffffffffffffffffffffffff1602179055508173ffffffffffffffffffffffffffffffffffffffff168173ffffffffffffffffffffffffffffffffffffffff167f8be0079c531659141344cd1fd0a4f28419497f9722a3daafe3b4186f6b6457e060405160405180910390a35050565b8173ffffffffffffffffffffffffffffffffffffffff168373ffffffffffffffffffffffffffffffffffffffff161415611b51576040517f08c379a0000000000000000000000000000000000000000000000000000000008152600401611b48906135e7565b60405180910390fd5b80606a60008573ffffffffffffffffffffffffffffffffffffffff1673ffffffffffffffffffffffffffffffffffffffff16815260200190815260200160002060008473ffffffffffffffffffffffffffffffffffffffff1673ffffffffffffffffffffffffffffffffffffffff16815260200190815260200160002060006101000a81548160ff0219169083151502179055508173ffffffffffffffffffffffffffffffffffffffff168373ffffffffffffffffffffffffffffffffffffffff167f17307eab39ab6107e8899845ad3d59bd9653f200f220920489ca2b5937696c3183604051611c429190612455565b60405180910390a3505050565b611c5a848484611400565b611c6684848484611f8d565b611ca5576040517f08c379a0000000000000000000000000000000000000000000000000000000008152600401611c9c90613679565b60405180910390fd5b50505050565b606060405180602001604052806000815250905090565b60606000821415611d0a576040518060400160405280600181526020017f30000000000000000000000000000000000000000000000000000000000000008152509050611e1e565b600082905060005b60008214611d3c578080611d2590613699565b915050600a82611d359190613711565b9150611d12565b60008167ffffffffffffffff811115611d5857611d576127b6565b5b6040519080825280601f01601f191660200182016040528015611d8a5781602001600182028036833780820191505090505b5090505b60008514611e1757600182611da3919061330d565b9150600a85611db29190613742565b6030611dbe9190612d15565b60f81b818381518110611dd457611dd3613773565b5b60200101907effffffffffffffffffffffffffffffffffffffffffffffffffffffffffffff1916908160001a905350600a85611e109190613711565b9450611d8e565b8093505050505b919050565b505050565b505050565b6000808273ffffffffffffffffffffffffffffffffffffffff163b119050919050565b600060019054906101000a900460ff16611e9f576040517f08c379a0000000000000000000000000000000000000000000000000000000008152600401611e9690613445565b60405180910390fd5b8160659080519060200190611eb59291906122fe565b508060669080519060200190611ecc9291906122fe565b505050565b600060019054906101000a900460ff16611f20576040517f08c379a0000000000000000000000000000000000000000000000000000000008152600401611f1790613445565b60405180910390fd5b611f30611f2b611261565b611a1c565b565b611f3c8383612124565b611f496000848484611f8d565b611f88576040517f08c379a0000000000000000000000000000000000000000000000000000000008152600401611f7f90613679565b60405180910390fd5b505050565b6000611fae8473ffffffffffffffffffffffffffffffffffffffff16611e2d565b15612117578373ffffffffffffffffffffffffffffffffffffffff1663150b7a02611fd7611261565b8786866040518563ffffffff1660e01b8152600401611ff994939291906137ec565b602060405180830381600087803b15801561201357600080fd5b505af192505050801561204457506040513d601f19601f82011682018060405250810190612041919061384d565b60015b6120c7573d8060008114612074576040519150601f19603f3d011682016040523d82523d6000602084013e612079565b606091505b506000815114156120bf576040517f08c379a00000000000000000000000000000000000000000000000000000000081526004016120b690613679565b60405180910390fd5b805181602001fd5b63150b7a0260e01b7bffffffffffffffffffffffffffffffffffffffffffffffffffffffff1916817bffffffffffffffffffffffffffffffffffffffffffffffffffffffff19161491505061211c565b600190505b949350505050565b600073ffffffffffffffffffffffffffffffffffffffff168273ffffffffffffffffffffffffffffffffffffffff161415612194576040517f08c379a000000000000000000000000000000000000000000000000000000000815260040161218b906138c6565b60405180910390fd5b61219d816111f5565b156121dd576040517f08c379a00000000000000000000000000000000000000000000000000000000081526004016121d490613932565b60405180910390fd5b6121e960008383611e23565b6001606860008473ffffffffffffffffffffffffffffffffffffffff1673ffffffffffffffffffffffffffffffffffffffff16815260200190815260200160002060008282546122399190612d15565b92505081905550816067600083815260200190815260200160002060006101000a81548173ffffffffffffffffffffffffffffffffffffffff021916908373ffffffffffffffffffffffffffffffffffffffff160217905550808273ffffffffffffffffffffffffffffffffffffffff16600073ffffffffffffffffffffffffffffffffffffffff167fddf252ad1be2c89b69c2b068fc378daa952ba7f163c4a11628f55a4df523b3ef60405160405180910390a46122fa60008383611e28565b5050565b82805461230a90612993565b90600052602060002090601f01602090048101928261232c5760008555612373565b82601f1061234557805160ff1916838001178555612373565b82800160010185558215612373579182015b82811115612372578251825591602001919060010190612357565b5b5090506123809190612384565b5090565b5b8082111561239d576000816000905550600101612385565b5090565b6000604051905090565b600080fd5b600080fd5b60007fffffffff0000000000000000000000000000000000000000000000000000000082169050919050565b6123ea816123b5565b81146123f557600080fd5b50565b600081359050612407816123e1565b92915050565b600060208284031215612423576124226123ab565b5b6000612431848285016123f8565b91505092915050565b60008115159050919050565b61244f8161243a565b82525050565b600060208201905061246a6000830184612446565b92915050565b600081519050919050565b600082825260208201905092915050565b60005b838110156124aa57808201518184015260208101905061248f565b838111156124b9576000848401525b50505050565b6000601f19601f8301169050919050565b60006124db82612470565b6124e5818561247b565b93506124f581856020860161248c565b6124fe816124bf565b840191505092915050565b6000602082019050818103600083015261252381846124d0565b905092915050565b6000819050919050565b61253e8161252b565b811461254957600080fd5b50565b60008135905061255b81612535565b92915050565b600060208284031215612577576125766123ab565b5b60006125858482850161254c565b91505092915050565b600073ffffffffffffffffffffffffffffffffffffffff82169050919050565b60006125b98261258e565b9050919050565b6125c9816125ae565b82525050565b60006020820190506125e460008301846125c0565b92915050565b6125f3816125ae565b81146125fe57600080fd5b50565b600081359050612610816125ea565b92915050565b6000806040838503121561262d5761262c6123ab565b5b600061263b85828601612601565b925050602061264c8582860161254c565b9150509250929050565b61265f8161252b565b82525050565b600060208201905061267a6000830184612656565b92915050565b600080600060608486031215612699576126986123ab565b5b60006126a786828701612601565b93505060206126b886828701612601565b92505060406126c98682870161254c565b9150509250925092565b600080604083850312156126ea576126e96123ab565b5b60006126f885828601612601565b925050602061270985828601612601565b9150509250929050565b600060208284031215612729576127286123ab565b5b600061273784828501612601565b91505092915050565b6127498161243a565b811461275457600080fd5b50565b60008135905061276681612740565b92915050565b60008060408385031215612783576127826123ab565b5b600061279185828601612601565b92505060206127a285828601612757565b9150509250929050565b600080fd5b600080fd5b7f4e487b7100000000000000000000000000000000000000000000000000000000600052604160045260246000fd5b6127ee826124bf565b810181811067ffffffffffffffff8211171561280d5761280c6127b6565b5b80604052505050565b60006128206123a1565b905061282c82826127e5565b919050565b600067ffffffffffffffff82111561284c5761284b6127b6565b5b612855826124bf565b9050602081019050919050565b82818337600083830152505050565b600061288461287f84612831565b612816565b9050828152602081018484840111156128a05761289f6127b1565b5b6128ab848285612862565b509392505050565b600082601f8301126128c8576128c76127ac565b5b81356128d8848260208601612871565b91505092915050565b600080600080608085870312156128fb576128fa6123ab565b5b600061290987828801612601565b945050602061291a87828801612601565b935050604061292b8782880161254c565b925050606085013567ffffffffffffffff81111561294c5761294b6123b0565b5b612958878288016128b3565b91505092959194509250565b7f4e487b7100000000000000000000000000000000000000000000000000000000600052602260045260246000fd5b600060028204905060018216806129ab57607f821691505b602082108114156129bf576129be612964565b5b50919050565b7f4552433732313a20617070726f76656420717565727920666f72206e6f6e657860008201527f697374656e7420746f6b656e0000000000000000000000000000000000000000602082015250565b6000612a21602c8361247b565b9150612a2c826129c5565b604082019050919050565b60006020820190508181036000830152612a5081612a14565b9050919050565b7f4552433732313a20617070726f76616c20746f2063757272656e74206f776e6560008201527f7200000000000000000000000000000000000000000000000000000000000000602082015250565b6000612ab360218361247b565b9150612abe82612a57565b604082019050919050565b60006020820190508181036000830152612ae281612aa6565b9050919050565b7f4552433732313a20617070726f76652063616c6c6572206973206e6f74206f7760008201527f6e6572206e6f7220617070726f76656420666f7220616c6c0000000000000000602082015250565b6000612b4560388361247b565b9150612b5082612ae9565b604082019050919050565b60006020820190508181036000830152612b7481612b38565b9050919050565b7f4552433732313a207472616e736665722063616c6c6572206973206e6f74206f60008201527f776e6572206e6f7220617070726f766564000000000000000000000000000000602082015250565b6000612bd760318361247b565b9150612be282612b7b565b604082019050919050565b60006020820190508181036000830152612c0681612bca565b9050919050565b6000819050919050565b600060ff82169050919050565b6000819050919050565b6000612c49612c44612c3f84612c0d565b612c24565b612c17565b9050919050565b612c5981612c2e565b82525050565b6000602082019050612c746000830184612c50565b92915050565b7f496e76616c6964204d696e746572000000000000000000000000000000000000600082015250565b6000612cb0600e8361247b565b9150612cbb82612c7a565b602082019050919050565b60006020820190508181036000830152612cdf81612ca3565b9050919050565b7f4e487b7100000000000000000000000000000000000000000000000000000000600052601160045260246000fd5b6000612d208261252b565b9150612d2b8361252b565b9250827fffffffffffffffffffffffffffffffffffffffffffffffffffffffffffffffff03821115612d6057612d5f612ce6565b5b828201905092915050565b7f4552433732313a206f776e657220717565727920666f72206e6f6e657869737460008201527f656e7420746f6b656e0000000000000000000000000000000000000000000000602082015250565b6000612dc760298361247b565b9150612dd282612d6b565b604082019050919050565b60006020820190508181036000830152612df681612dba565b9050919050565b7f4552433732313a2062616c616e636520717565727920666f7220746865207a6560008201527f726f206164647265737300000000000000000000000000000000000000000000602082015250565b6000612e59602a8361247b565b9150612e6482612dfd565b604082019050919050565b60006020820190508181036000830152612e8881612e4c565b9050919050565b7f4f776e61626c653a2063616c6c6572206973206e6f7420746865206f776e6572600082015250565b6000612ec560208361247b565b9150612ed082612e8f565b602082019050919050565b60006020820190508181036000830152612ef481612eb8565b9050919050565b7f416464726573732043616e6e6f74206265203020416464726573730000000000600082015250565b6000612f31601b8361247b565b9150612f3c82612efb565b602082019050919050565b60006020820190508181036000830152612f6081612f24565b9050919050565b7f506c656173652070726f766964652061206e6577206164647265737300000000600082015250565b6000612f9d601c8361247b565b9150612fa882612f67565b602082019050919050565b60006020820190508181036000830152612fcc81612f90565b9050919050565b7f4552433732314d657461646174613a2055524920717565727920666f72206e6f60008201527f6e6578697374656e7420746f6b656e0000000000000000000000000000000000602082015250565b600061302f602f8361247b565b915061303a82612fd3565b604082019050919050565b6000602082019050818103600083015261305e81613022565b9050919050565b600081905092915050565b600061307b82612470565b6130858185613065565b935061309581856020860161248c565b80840191505092915050565b60006130ad8285613070565b91506130b98284613070565b91508190509392505050565b7f4f776e61626c653a206e6577206f776e657220697320746865207a65726f206160008201527f6464726573730000000000000000000000000000000000000000000000000000602082015250565b600061312160268361247b565b915061312c826130c5565b604082019050919050565b6000602082019050818103600083015261315081613114565b9050919050565b7f4552433732313a206f70657261746f7220717565727920666f72206e6f6e657860008201527f697374656e7420746f6b656e0000000000000000000000000000000000000000602082015250565b60006131b3602c8361247b565b91506131be82613157565b604082019050919050565b600060208201905081810360008301526131e2816131a6565b9050919050565b7f4552433732313a207472616e736665722066726f6d20696e636f72726563742060008201527f6f776e6572000000000000000000000000000000000000000000000000000000602082015250565b600061324560258361247b565b9150613250826131e9565b604082019050919050565b6000602082019050818103600083015261327481613238565b9050919050565b7f4552433732313a207472616e7366657220746f20746865207a65726f2061646460008201527f7265737300000000000000000000000000000000000000000000000000000000602082015250565b60006132d760248361247b565b91506132e28261327b565b604082019050919050565b60006020820190508181036000830152613306816132ca565b9050919050565b60006133188261252b565b91506133238361252b565b92508282101561333657613335612ce6565b5b828203905092915050565b7f496e697469616c697a61626c653a20636f6e747261637420697320616c72656160008201527f647920696e697469616c697a6564000000000000000000000000000000000000602082015250565b600061339d602e8361247b565b91506133a882613341565b604082019050919050565b600060208201905081810360008301526133cc81613390565b9050919050565b7f496e697469616c697a61626c653a20636f6e7472616374206973206e6f74206960008201527f6e697469616c697a696e67000000000000000000000000000000000000000000602082015250565b600061342f602b8361247b565b915061343a826133d3565b604082019050919050565b6000602082019050818103600083015261345e81613422565b9050919050565b7f302041646472657373204e6f742056616c696400000000000000000000000000600082015250565b600061349b60138361247b565b91506134a682613465565b602082019050919050565b600060208201905081810360008301526134ca8161348e565b9050919050565b600081519050919050565b600081905092915050565b60006134f2826134d1565b6134fc81856134dc565b935061350c81856020860161248c565b80840191505092915050565b600061352482846134e7565b915081905092915050565b7f4572726f7220546f7070696e6720557020532d4675656c000000000000000000600082015250565b600061356560178361247b565b91506135708261352f565b602082019050919050565b6000602082019050818103600083015261359481613558565b9050919050565b7f4552433732313a20617070726f766520746f2063616c6c657200000000000000600082015250565b60006135d160198361247b565b91506135dc8261359b565b602082019050919050565b60006020820190508181036000830152613600816135c4565b9050919050565b7f4552433732313a207472616e7366657220746f206e6f6e20455243373231526560008201527f63656976657220696d706c656d656e7465720000000000000000000000000000602082015250565b600061366360328361247b565b915061366e82613607565b604082019050919050565b6000602082019050818103600083015261369281613656565b9050919050565b60006136a48261252b565b91507fffffffffffffffffffffffffffffffffffffffffffffffffffffffffffffffff8214156136d7576136d6612ce6565b5b600182019050919050565b7f4e487b7100000000000000000000000000000000000000000000000000000000600052601260045260246000fd5b600061371c8261252b565b91506137278361252b565b925082613737576137366136e2565b5b828204905092915050565b600061374d8261252b565b91506137588361252b565b925082613768576137676136e2565b5b828206905092915050565b7f4e487b7100000000000000000000000000000000000000000000000000000000600052603260045260246000fd5b600082825260208201905092915050565b60006137be826134d1565b6137c881856137a2565b93506137d881856020860161248c565b6137e1816124bf565b840191505092915050565b600060808201905061380160008301876125c0565b61380e60208301866125c0565b61381b6040830185612656565b818103606083015261382d81846137b3565b905095945050505050565b600081519050613847816123e1565b92915050565b600060208284031215613863576138626123ab565b5b600061387184828501613838565b91505092915050565b7f4552433732313a206d696e7420746f20746865207a65726f2061646472657373600082015250565b60006138b060208361247b565b91506138bb8261387a565b602082019050919050565b600060208201905081810360008301526138df816138a3565b9050919050565b7f4552433732313a20746f6b656e20616c7265616479206d696e74656400000000600082015250565b600061391c601c8361247b565b9150613927826138e6565b602082019050919050565b6000602082019050818103600083015261394b8161390f565b905091905056fea26469706673582212205df25de7c2a943eeb816be56f7ed1391e0ecbd1a3dd3add7b4e01c3f4573bc7f64736f6c63430008090033",
  "linkReferences": {},
  "deployedLinkReferences": {}
}