{
  "_format": "hh-sol-artifact-1",
  "contractName": "SFuelContracts",
  "sourceName": "sfuel/contracts/s_fuel/SFuelContracts.sol",
  "abi": [
    {
      "inputs": [],
      "stateMutability": "nonpayable",
      "type": "constructor"
    },
    {
      "anonymous": false,
      "inputs": [
        {
          "indexed": true,
          "internalType": "address",
          "name": "caller",
          "type": "address"
        },
        {
          "indexed": false,
          "internalType": "uint256",
          "name": "value",
          "type": "uint256"
        }
      ],
      "name": "ContractFilled",
      "type": "event"
    },
    {
      "anonymous": false,
      "inputs": [
        {
          "indexed": true,
          "internalType": "address",
          "name": "sender",
          "type": "address"
        },
        {
          "indexed": false,
          "internalType": "uint256",
          "name": "value",
          "type": "uint256"
        }
      ],
      "name": "EtherDeposit",
      "type": "event"
    },
    {
      "anonymous": false,
      "inputs": [
        {
          "indexed": true,
          "internalType": "address",
          "name": "reciever",
          "type": "address"
        },
        {
          "indexed": true,
          "internalType": "address",
          "name": "whitelistedContract",
          "type": "address"
        },
        {
          "indexed": false,
          "internalType": "uint256",
          "name": "amount",
          "type": "uint256"
        }
      ],
      "name": "RetrievedSFuel",
      "type": "event"
    },
    {
      "anonymous": false,
      "inputs": [
        {
          "indexed": true,
          "internalType": "address",
          "name": "returner",
          "type": "address"
        },
        {
          "indexed": true,
          "internalType": "address",
          "name": "whitelistedContract",
          "type": "address"
        },
        {
          "indexed": false,
          "internalType": "uint256",
          "name": "amount",
          "type": "uint256"
        }
      ],
      "name": "ReturnedSFuel",
      "type": "event"
    },
    {
      "anonymous": false,
      "inputs": [
        {
          "indexed": true,
          "internalType": "bytes32",
          "name": "role",
          "type": "bytes32"
        },
        {
          "indexed": true,
          "internalType": "bytes32",
          "name": "previousAdminRole",
          "type": "bytes32"
        },
        {
          "indexed": true,
          "internalType": "bytes32",
          "name": "newAdminRole",
          "type": "bytes32"
        }
      ],
      "name": "RoleAdminChanged",
      "type": "event"
    },
    {
      "anonymous": false,
      "inputs": [
        {
          "indexed": true,
          "internalType": "bytes32",
          "name": "role",
          "type": "bytes32"
        },
        {
          "indexed": true,
          "internalType": "address",
          "name": "account",
          "type": "address"
        },
        {
          "indexed": true,
          "internalType": "address",
          "name": "sender",
          "type": "address"
        }
      ],
      "name": "RoleGranted",
      "type": "event"
    },
    {
      "anonymous": false,
      "inputs": [
        {
          "indexed": true,
          "internalType": "bytes32",
          "name": "role",
          "type": "bytes32"
        },
        {
          "indexed": true,
          "internalType": "address",
          "name": "account",
          "type": "address"
        },
        {
          "indexed": true,
          "internalType": "address",
          "name": "sender",
          "type": "address"
        }
      ],
      "name": "RoleRevoked",
      "type": "event"
    },
    {
      "stateMutability": "payable",
      "type": "fallback"
    },
    {
      "inputs": [],
      "name": "CONTRACT_MANAGER_ROLE",
      "outputs": [
        {
          "internalType": "bytes32",
          "name": "",
          "type": "bytes32"
        }
      ],
      "stateMutability": "view",
      "type": "function"
    },
    {
      "inputs": [],
      "name": "DEFAULT_ADMIN_ROLE",
      "outputs": [
        {
          "internalType": "bytes32",
          "name": "",
          "type": "bytes32"
        }
      ],
      "stateMutability": "view",
      "type": "function"
    },
    {
      "inputs": [],
      "name": "IS_WHITELISTED_CONTRACT",
      "outputs": [
        {
          "internalType": "bytes32",
          "name": "",
          "type": "bytes32"
        }
      ],
      "stateMutability": "view",
      "type": "function"
    },
    {
      "inputs": [],
      "name": "WHITELIST_MANAGER_ROLE",
      "outputs": [
        {
          "internalType": "bytes32",
          "name": "",
          "type": "bytes32"
        }
      ],
      "stateMutability": "view",
      "type": "function"
    },
    {
      "inputs": [],
      "name": "fillContract",
      "outputs": [],
      "stateMutability": "nonpayable",
      "type": "function"
    },
    {
      "inputs": [],
      "name": "getActiveState",
      "outputs": [
        {
          "internalType": "bool",
          "name": "",
          "type": "bool"
        }
      ],
      "stateMutability": "view",
      "type": "function"
    },
    {
      "inputs": [
        {
          "internalType": "address",
          "name": "_address",
          "type": "address"
        }
      ],
      "name": "getBalance",
      "outputs": [
        {
          "internalType": "uint256",
          "name": "",
          "type": "uint256"
        }
      ],
      "stateMutability": "view",
      "type": "function"
    },
    {
      "inputs": [],
      "name": "getExpectedContractBalance",
      "outputs": [
        {
          "internalType": "uint256",
          "name": "",
          "type": "uint256"
        }
      ],
      "stateMutability": "view",
      "type": "function"
    },
    {
      "inputs": [],
      "name": "getExpectedUserBalance",
      "outputs": [
        {
          "internalType": "uint256",
          "name": "",
          "type": "uint256"
        }
      ],
      "stateMutability": "view",
      "type": "function"
    },
    {
      "inputs": [
        {
          "internalType": "bytes32",
          "name": "role",
          "type": "bytes32"
        }
      ],
      "name": "getRoleAdmin",
      "outputs": [
        {
          "internalType": "bytes32",
          "name": "",
          "type": "bytes32"
        }
      ],
      "stateMutability": "view",
      "type": "function"
    },
    {
      "inputs": [
        {
          "internalType": "bytes32",
          "name": "role",
          "type": "bytes32"
        },
        {
          "internalType": "uint256",
          "name": "index",
          "type": "uint256"
        }
      ],
      "name": "getRoleMember",
      "outputs": [
        {
          "internalType": "address",
          "name": "",
          "type": "address"
        }
      ],
      "stateMutability": "view",
      "type": "function"
    },
    {
      "inputs": [
        {
          "internalType": "bytes32",
          "name": "role",
          "type": "bytes32"
        }
      ],
      "name": "getRoleMemberCount",
      "outputs": [
        {
          "internalType": "uint256",
          "name": "",
          "type": "uint256"
        }
      ],
      "stateMutability": "view",
      "type": "function"
    },
    {
      "inputs": [
        {
          "internalType": "bytes32",
          "name": "role",
          "type": "bytes32"
        },
        {
          "internalType": "address",
          "name": "account",
          "type": "address"
        }
      ],
      "name": "grantRole",
      "outputs": [],
      "stateMutability": "nonpayable",
      "type": "function"
    },
    {
      "inputs": [
        {
          "internalType": "bytes32",
          "name": "role",
          "type": "bytes32"
        },
        {
          "internalType": "address",
          "name": "account",
          "type": "address"
        }
      ],
      "name": "hasRole",
      "outputs": [
        {
          "internalType": "bool",
          "name": "",
          "type": "bool"
        }
      ],
      "stateMutability": "view",
      "type": "function"
    },
    {
      "inputs": [
        {
          "internalType": "bytes32",
          "name": "role",
          "type": "bytes32"
        },
        {
          "internalType": "address",
          "name": "account",
          "type": "address"
        }
      ],
      "name": "renounceRole",
      "outputs": [],
      "stateMutability": "nonpayable",
      "type": "function"
    },
    {
      "inputs": [
        {
          "internalType": "address payable",
          "name": "_retriever",
          "type": "address"
        }
      ],
      "name": "retrieveSFuel",
      "outputs": [],
      "stateMutability": "payable",
      "type": "function"
    },
    {
      "inputs": [
        {
          "internalType": "bytes32",
          "name": "role",
          "type": "bytes32"
        },
        {
          "internalType": "address",
          "name": "account",
          "type": "address"
        }
      ],
      "name": "revokeRole",
      "outputs": [],
      "stateMutability": "nonpayable",
      "type": "function"
    },
    {
      "inputs": [],
      "name": "selfDestruct",
      "outputs": [],
      "stateMutability": "nonpayable",
      "type": "function"
    },
    {
      "inputs": [
        {
          "internalType": "uint256",
          "name": "balance",
          "type": "uint256"
        }
      ],
      "name": "setExpectedContractBalance",
      "outputs": [],
      "stateMutability": "nonpayable",
      "type": "function"
    },
    {
      "inputs": [
        {
          "internalType": "uint256",
          "name": "balance",
          "type": "uint256"
        }
      ],
      "name": "setExpectedUserBalance",
      "outputs": [],
      "stateMutability": "nonpayable",
      "type": "function"
    },
    {
      "inputs": [
        {
          "internalType": "bytes4",
          "name": "interfaceId",
          "type": "bytes4"
        }
      ],
      "name": "supportsInterface",
      "outputs": [
        {
          "internalType": "bool",
          "name": "",
          "type": "bool"
        }
      ],
      "stateMutability": "view",
      "type": "function"
    },
    {
      "inputs": [],
      "name": "updateActiveState",
      "outputs": [],
      "stateMutability": "nonpayable",
      "type": "function"
    },
    {
      "stateMutability": "payable",
      "type": "receive"
    }
  ],
  "bytecode": "0x60806040523480156200001157600080fd5b50620000276000801b33620000c760201b60201c565b620000597f2a3dab589bcc9747970dd85ac3f222668741ae51f2a1bbb8f8355be28dd8a86833620000c760201b60201c565b6200008b7f8135f02737a6b32709c1f229001b55183df0d6abcb3022e8bae091ad43fd9e6d33620000c760201b60201c565b6402540be400600281905550674563918244f400006003819055506000600460006101000a81548160ff02191690831515021790555062000347565b620000de82826200010f60201b62000e241760201c565b6200010a81600160008581526020019081526020016000206200020060201b62000f041790919060201c565b505050565b6200012182826200023860201b60201c565b620001fc57600160008084815260200190815260200160002060000160008373ffffffffffffffffffffffffffffffffffffffff1673ffffffffffffffffffffffffffffffffffffffff16815260200190815260200160002060006101000a81548160ff021916908315150217905550620001a1620002a260201b60201c565b73ffffffffffffffffffffffffffffffffffffffff168173ffffffffffffffffffffffffffffffffffffffff16837f2f8788117e7eff1d82e926ec794901d17c78024a50270940304540a733656f0d60405160405180910390a45b5050565b600062000230836000018373ffffffffffffffffffffffffffffffffffffffff1660001b620002aa60201b60201c565b905092915050565b600080600084815260200190815260200160002060000160008373ffffffffffffffffffffffffffffffffffffffff1673ffffffffffffffffffffffffffffffffffffffff16815260200190815260200160002060009054906101000a900460ff16905092915050565b600033905090565b6000620002be83836200032460201b60201c565b620003195782600001829080600181540180825580915050600190039060005260206000200160009091909190915055826000018054905083600101600084815260200190815260200160002081905550600190506200031e565b600090505b92915050565b600080836001016000848152602001908152602001600020541415905092915050565b61215f80620003576000396000f3fe6080604052600436106101395760003560e01c80639010d07c116100ab578063a217fddf1161006f578063a217fddf146104a3578063b91531cf146104ce578063ca15c873146104f7578063ca2c16a414610534578063d547741f1461054b578063f8b2cb4f146105745761018e565b80639010d07c146103bc57806391d14854146103f95780639a6c9747146104365780639cb8a26a146104615780639d28b506146104785761018e565b806336568abe116100fd57806336568abe146102cb5780633eb5938a146102f45780635f7f4632146103105780636abac1151461033b5780636d2c62ce146103665780637295ed93146103915761018e565b806301ffc9a7146101e85780631f1b943e14610225578063215ac4be1461024e578063248a9ca3146102655780632f2ff15d146102a25761018e565b3661018e573373ffffffffffffffffffffffffffffffffffffffff167fa58b71ad2e6ce803dd1eec62e2f3717a164a8912ee33eb51a57a234ba56b55353460405161018491906116e3565b60405180910390a2005b60003411156101e6573373ffffffffffffffffffffffffffffffffffffffff167fa58b71ad2e6ce803dd1eec62e2f3717a164a8912ee33eb51a57a234ba56b5535346040516101dd91906116e3565b60405180910390a25b005b3480156101f457600080fd5b5061020f600480360381019061020a919061175b565b6105b1565b60405161021c91906117a3565b60405180910390f35b34801561023157600080fd5b5061024c600480360381019061024791906117ea565b61062b565b005b34801561025a57600080fd5b5061026361069e565b005b34801561027157600080fd5b5061028c6004803603810190610287919061184d565b6107d6565b6040516102999190611889565b60405180910390f35b3480156102ae57600080fd5b506102c960048036038101906102c49190611902565b6107f5565b005b3480156102d757600080fd5b506102f260048036038101906102ed9190611902565b610816565b005b61030e60048036038101906103099190611980565b610899565b005b34801561031c57600080fd5b50610325610ae9565b6040516103329190611889565b60405180910390f35b34801561034757600080fd5b50610350610b0d565b60405161035d91906117a3565b60405180910390f35b34801561037257600080fd5b5061037b610b24565b60405161038891906116e3565b60405180910390f35b34801561039d57600080fd5b506103a6610b2e565b6040516103b39190611889565b60405180910390f35b3480156103c857600080fd5b506103e360048036038101906103de91906119ad565b610b52565b6040516103f091906119fc565b60405180910390f35b34801561040557600080fd5b50610420600480360381019061041b9190611902565b610b81565b60405161042d91906117a3565b60405180910390f35b34801561044257600080fd5b5061044b610beb565b60405161045891906116e3565b60405180910390f35b34801561046d57600080fd5b50610476610bf5565b005b34801561048457600080fd5b5061048d610c8b565b60405161049a9190611889565b60405180910390f35b3480156104af57600080fd5b506104b8610caf565b6040516104c59190611889565b60405180910390f35b3480156104da57600080fd5b506104f560048036038101906104f091906117ea565b610cb6565b005b34801561050357600080fd5b5061051e6004803603810190610519919061184d565b610d29565b60405161052b91906116e3565b60405180910390f35b34801561054057600080fd5b50610549610d4d565b005b34801561055757600080fd5b50610572600480360381019061056d9190611902565b610de2565b005b34801561058057600080fd5b5061059b60048036038101906105969190611a17565b610e03565b6040516105a891906116e3565b60405180910390f35b60007f5a05180f000000000000000000000000000000000000000000000000000000007bffffffffffffffffffffffffffffffffffffffffffffffffffffffff1916827bffffffffffffffffffffffffffffffffffffffffffffffffffffffff19161480610624575061062382610f34565b5b9050919050565b6106557f8135f02737a6b32709c1f229001b55183df0d6abcb3022e8bae091ad43fd9e6d33610b81565b610694576040517f08c379a000000000000000000000000000000000000000000000000000000000815260040161068b90611aa1565b60405180910390fd5b8060028190555050565b60006106a930610e03565b905060006106c282600354610fae90919063ffffffff16565b90506106cc610fc4565b73ffffffffffffffffffffffffffffffffffffffff1663204a3e9330836040518363ffffffff1660e01b8152600401610706929190611ad0565b600060405180830381600087803b15801561072057600080fd5b505af1158015610734573d6000803e3d6000fd5b5050505060035461074430610e03565b14610784576040517f08c379a000000000000000000000000000000000000000000000000000000000815260040161077b90611b45565b60405180910390fd5b3373ffffffffffffffffffffffffffffffffffffffff167f2d6e436d93e4e3143f5d97f5786f48e9736d037972d20e408bb1aa2284bf6c0f826040516107ca91906116e3565b60405180910390a25050565b6000806000838152602001908152602001600020600101549050919050565b6107fe826107d6565b61080781610fe0565b6108118383610ff4565b505050565b61081e611028565b73ffffffffffffffffffffffffffffffffffffffff168173ffffffffffffffffffffffffffffffffffffffff161461088b576040517f08c379a000000000000000000000000000000000000000000000000000000000815260040161088290611bd7565b60405180910390fd5b6108958282611030565b5050565b600460009054906101000a900460ff16156108e9576040517f08c379a00000000000000000000000000000000000000000000000000000000081526004016108e090611c43565b60405180910390fd5b6109137f5ce17f380ca23160a7c5ce147cd0292497d6246fba3530e88f1c6691cf3ce20633610b81565b610952576040517f08c379a000000000000000000000000000000000000000000000000000000000815260040161094990611caf565b60405180910390fd5b60025461095e82610e03565b1015610a8257600061098361097283610e03565b600254610fae90919063ffffffff16565b90508061098f30610e03565b10156109d0576040517f08c379a00000000000000000000000000000000000000000000000000000000081526004016109c790611d1b565b60405180910390fd5b8173ffffffffffffffffffffffffffffffffffffffff166108fc829081150290604051600060405180830381858888f19350505050158015610a16573d6000803e3d6000fd5b503373ffffffffffffffffffffffffffffffffffffffff168273ffffffffffffffffffffffffffffffffffffffff167f3bd6ed6e41c189d37b6c3d633df447b94748e1f0c01a702e6314df17bbf40d7c83604051610a7491906116e3565b60405180910390a350610ae6565b3073ffffffffffffffffffffffffffffffffffffffff166108fc610ab9600254610aab85610e03565b610fae90919063ffffffff16565b9081150290604051600060405180830381858888f19350505050158015610ae4573d6000803e3d6000fd5b505b50565b7f5ce17f380ca23160a7c5ce147cd0292497d6246fba3530e88f1c6691cf3ce20681565b6000600460009054906101000a900460ff16905090565b6000600254905090565b7f2a3dab589bcc9747970dd85ac3f222668741ae51f2a1bbb8f8355be28dd8a86881565b6000610b79826001600086815260200190815260200160002061106490919063ffffffff16565b905092915050565b600080600084815260200190815260200160002060000160008373ffffffffffffffffffffffffffffffffffffffff1673ffffffffffffffffffffffffffffffffffffffff16815260200190815260200160002060009054906101000a900460ff16905092915050565b6000600354905090565b610c1f7f8135f02737a6b32709c1f229001b55183df0d6abcb3022e8bae091ad43fd9e6d33610b81565b610c5e576040517f08c379a0000000000000000000000000000000000000000000000000000000008152600401610c5590611aa1565b60405180910390fd5b73d2ba3e000000000000000000000000000000000073ffffffffffffffffffffffffffffffffffffffff16ff5b7f8135f02737a6b32709c1f229001b55183df0d6abcb3022e8bae091ad43fd9e6d81565b6000801b81565b610ce07f8135f02737a6b32709c1f229001b55183df0d6abcb3022e8bae091ad43fd9e6d33610b81565b610d1f576040517f08c379a0000000000000000000000000000000000000000000000000000000008152600401610d1690611aa1565b60405180910390fd5b8060038190555050565b6000610d466001600084815260200190815260200160002061107e565b9050919050565b610d777f8135f02737a6b32709c1f229001b55183df0d6abcb3022e8bae091ad43fd9e6d33610b81565b610db6576040517f08c379a0000000000000000000000000000000000000000000000000000000008152600401610dad90611aa1565b60405180910390fd5b600460009054906101000a900460ff1615600460006101000a81548160ff021916908315150217905550565b610deb826107d6565b610df481610fe0565b610dfe8383611030565b505050565b60008173ffffffffffffffffffffffffffffffffffffffff16319050919050565b610e2e8282610b81565b610f0057600160008084815260200190815260200160002060000160008373ffffffffffffffffffffffffffffffffffffffff1673ffffffffffffffffffffffffffffffffffffffff16815260200190815260200160002060006101000a81548160ff021916908315150217905550610ea5611028565b73ffffffffffffffffffffffffffffffffffffffff168173ffffffffffffffffffffffffffffffffffffffff16837f2f8788117e7eff1d82e926ec794901d17c78024a50270940304540a733656f0d60405160405180910390a45b5050565b6000610f2c836000018373ffffffffffffffffffffffffffffffffffffffff1660001b611093565b905092915050565b60007f7965db0b000000000000000000000000000000000000000000000000000000007bffffffffffffffffffffffffffffffffffffffffffffffffffffffff1916827bffffffffffffffffffffffffffffffffffffffffffffffffffffffff19161480610fa75750610fa682611103565b5b9050919050565b60008183610fbc9190611d6a565b905092915050565b600073d2ba3e0000000000000000000000000000000000905090565b610ff181610fec611028565b61116d565b50565b610ffe8282610e24565b6110238160016000858152602001908152602001600020610f0490919063ffffffff16565b505050565b600033905090565b61103a828261120a565b61105f81600160008581526020019081526020016000206112eb90919063ffffffff16565b505050565b6000611073836000018361131b565b60001c905092915050565b600061108c82600001611346565b9050919050565b600061109f8383611357565b6110f85782600001829080600181540180825580915050600190039060005260206000200160009091909190915055826000018054905083600101600084815260200190815260200160002081905550600190506110fd565b600090505b92915050565b60007f01ffc9a7000000000000000000000000000000000000000000000000000000007bffffffffffffffffffffffffffffffffffffffffffffffffffffffff1916827bffffffffffffffffffffffffffffffffffffffffffffffffffffffff1916149050919050565b6111778282610b81565b6112065761119c8173ffffffffffffffffffffffffffffffffffffffff16601461137a565b6111aa8360001c602061137a565b6040516020016111bb929190611eb0565b6040516020818303038152906040526040517f08c379a00000000000000000000000000000000000000000000000000000000081526004016111fd9190611f34565b60405180910390fd5b5050565b6112148282610b81565b156112e757600080600084815260200190815260200160002060000160008373ffffffffffffffffffffffffffffffffffffffff1673ffffffffffffffffffffffffffffffffffffffff16815260200190815260200160002060006101000a81548160ff02191690831515021790555061128c611028565b73ffffffffffffffffffffffffffffffffffffffff168173ffffffffffffffffffffffffffffffffffffffff16837ff6391f5c32d9c69d2a47ea670b442974b53935d1edc7fd64eb21e047a839171b60405160405180910390a45b5050565b6000611313836000018373ffffffffffffffffffffffffffffffffffffffff1660001b6115b6565b905092915050565b600082600001828154811061133357611332611f56565b5b9060005260206000200154905092915050565b600081600001805490509050919050565b600080836001016000848152602001908152602001600020541415905092915050565b60606000600283600261138d9190611f85565b6113979190611fdf565b67ffffffffffffffff8111156113b0576113af612035565b5b6040519080825280601f01601f1916602001820160405280156113e25781602001600182028036833780820191505090505b5090507f30000000000000000000000000000000000000000000000000000000000000008160008151811061141a57611419611f56565b5b60200101907effffffffffffffffffffffffffffffffffffffffffffffffffffffffffffff1916908160001a9053507f78000000000000000000000000000000000000000000000000000000000000008160018151811061147e5761147d611f56565b5b60200101907effffffffffffffffffffffffffffffffffffffffffffffffffffffffffffff1916908160001a905350600060018460026114be9190611f85565b6114c89190611fdf565b90505b6001811115611568577f3031323334353637383961626364656600000000000000000000000000000000600f86166010811061150a57611509611f56565b5b1a60f81b82828151811061152157611520611f56565b5b60200101907effffffffffffffffffffffffffffffffffffffffffffffffffffffffffffff1916908160001a905350600485901c94508061156190612064565b90506114cb565b50600084146115ac576040517f08c379a00000000000000000000000000000000000000000000000000000000081526004016115a3906120da565b60405180910390fd5b8091505092915050565b600080836001016000848152602001908152602001600020549050600081146116be5760006001826115e89190611d6a565b90506000600186600001805490506116009190611d6a565b905081811461166f57600086600001828154811061162157611620611f56565b5b906000526020600020015490508087600001848154811061164557611644611f56565b5b90600052602060002001819055508387600101600083815260200190815260200160002081905550505b85600001805480611683576116826120fa565b5b6001900381819060005260206000200160009055905585600101600086815260200190815260200160002060009055600193505050506116c4565b60009150505b92915050565b6000819050919050565b6116dd816116ca565b82525050565b60006020820190506116f860008301846116d4565b92915050565b600080fd5b60007fffffffff0000000000000000000000000000000000000000000000000000000082169050919050565b61173881611703565b811461174357600080fd5b50565b6000813590506117558161172f565b92915050565b600060208284031215611771576117706116fe565b5b600061177f84828501611746565b91505092915050565b60008115159050919050565b61179d81611788565b82525050565b60006020820190506117b86000830184611794565b92915050565b6117c7816116ca565b81146117d257600080fd5b50565b6000813590506117e4816117be565b92915050565b600060208284031215611800576117ff6116fe565b5b600061180e848285016117d5565b91505092915050565b6000819050919050565b61182a81611817565b811461183557600080fd5b50565b60008135905061184781611821565b92915050565b600060208284031215611863576118626116fe565b5b600061187184828501611838565b91505092915050565b61188381611817565b82525050565b600060208201905061189e600083018461187a565b92915050565b600073ffffffffffffffffffffffffffffffffffffffff82169050919050565b60006118cf826118a4565b9050919050565b6118df816118c4565b81146118ea57600080fd5b50565b6000813590506118fc816118d6565b92915050565b60008060408385031215611919576119186116fe565b5b600061192785828601611838565b9250506020611938858286016118ed565b9150509250929050565b600061194d826118a4565b9050919050565b61195d81611942565b811461196857600080fd5b50565b60008135905061197a81611954565b92915050565b600060208284031215611996576119956116fe565b5b60006119a48482850161196b565b91505092915050565b600080604083850312156119c4576119c36116fe565b5b60006119d285828601611838565b92505060206119e3858286016117d5565b9150509250929050565b6119f6816118c4565b82525050565b6000602082019050611a1160008301846119ed565b92915050565b600060208284031215611a2d57611a2c6116fe565b5b6000611a3b848285016118ed565b91505092915050565b600082825260208201905092915050565b7f434f4e54524143545f4d414e414745525f524f4c452052657175697265640000600082015250565b6000611a8b601e83611a44565b9150611a9682611a55565b602082019050919050565b60006020820190508181036000830152611aba81611a7e565b9050919050565b611aca81611942565b82525050565b6000604082019050611ae56000830185611ac1565b611af260208301846116d4565b9392505050565b7f4572726f722046696c6c696e6720557000000000000000000000000000000000600082015250565b6000611b2f601083611a44565b9150611b3a82611af9565b602082019050919050565b60006020820190508181036000830152611b5e81611b22565b9050919050565b7f416363657373436f6e74726f6c3a2063616e206f6e6c792072656e6f756e636560008201527f20726f6c657320666f722073656c660000000000000000000000000000000000602082015250565b6000611bc1602f83611a44565b9150611bcc82611b65565b604082019050919050565b60006020820190508181036000830152611bf081611bb4565b9050919050565b7f436f6e7472616374206973205061757365640000000000000000000000000000600082015250565b6000611c2d601283611a44565b9150611c3882611bf7565b602082019050919050565b60006020820190508181036000830152611c5c81611c20565b9050919050565b7f49535f57484954454c4953544544205265717569726564000000000000000000600082015250565b6000611c99601783611a44565b9150611ca482611c63565b602082019050919050565b60006020820190508181036000830152611cc881611c8c565b9050919050565b7f496e737566666963656e742042616c616e636520696e20436f6e747261637400600082015250565b6000611d05601f83611a44565b9150611d1082611ccf565b602082019050919050565b60006020820190508181036000830152611d3481611cf8565b9050919050565b7f4e487b7100000000000000000000000000000000000000000000000000000000600052601160045260246000fd5b6000611d75826116ca565b9150611d80836116ca565b925082821015611d9357611d92611d3b565b5b828203905092915050565b600081905092915050565b7f416363657373436f6e74726f6c3a206163636f756e7420000000000000000000600082015250565b6000611ddf601783611d9e565b9150611dea82611da9565b601782019050919050565b600081519050919050565b60005b83811015611e1e578082015181840152602081019050611e03565b83811115611e2d576000848401525b50505050565b6000611e3e82611df5565b611e488185611d9e565b9350611e58818560208601611e00565b80840191505092915050565b7f206973206d697373696e6720726f6c6520000000000000000000000000000000600082015250565b6000611e9a601183611d9e565b9150611ea582611e64565b601182019050919050565b6000611ebb82611dd2565b9150611ec78285611e33565b9150611ed282611e8d565b9150611ede8284611e33565b91508190509392505050565b6000601f19601f8301169050919050565b6000611f0682611df5565b611f108185611a44565b9350611f20818560208601611e00565b611f2981611eea565b840191505092915050565b60006020820190508181036000830152611f4e8184611efb565b905092915050565b7f4e487b7100000000000000000000000000000000000000000000000000000000600052603260045260246000fd5b6000611f90826116ca565b9150611f9b836116ca565b9250817fffffffffffffffffffffffffffffffffffffffffffffffffffffffffffffffff0483118215151615611fd457611fd3611d3b565b5b828202905092915050565b6000611fea826116ca565b9150611ff5836116ca565b9250827fffffffffffffffffffffffffffffffffffffffffffffffffffffffffffffffff0382111561202a57612029611d3b565b5b828201905092915050565b7f4e487b7100000000000000000000000000000000000000000000000000000000600052604160045260246000fd5b600061206f826116ca565b9150600082141561208357612082611d3b565b5b600182039050919050565b7f537472696e67733a20686578206c656e67746820696e73756666696369656e74600082015250565b60006120c4602083611a44565b91506120cf8261208e565b602082019050919050565b600060208201905081810360008301526120f3816120b7565b9050919050565b7f4e487b7100000000000000000000000000000000000000000000000000000000600052603160045260246000fdfea2646970667358221220f5174b3e1400afab22e3faaed60d9c446c70cbf20cbdd19c321d4443d46267ed64736f6c63430008090033",
  "linkReferences": {},
  "deployedLinkReferences": {}
}