{
  "_format": "hh-sol-artifact-1",
  "contractName": "SFuelContracts",
  "sourceName": "sfuel/contracts/s_fuel/SFuelContracts.sol",
  "abi": [
    {
      "inputs": [],
      "stateMutability": "nonpayable",
      "type": "constructor"
    },
    {
      "anonymous": false,
      "inputs": [
        {
          "indexed": true,
          "internalType": "address",
          "name": "caller",
          "type": "address"
        },
        {
          "indexed": false,
          "internalType": "uint256",
          "name": "value",
          "type": "uint256"
        }
      ],
      "name": "ContractFilled",
      "type": "event"
    },
    {
      "anonymous": false,
      "inputs": [
        {
          "indexed": true,
          "internalType": "address",
          "name": "sender",
          "type": "address"
        },
        {
          "indexed": false,
          "internalType": "uint256",
          "name": "value",
          "type": "uint256"
        }
      ],
      "name": "EtherDeposit",
      "type": "event"
    },
    {
      "anonymous": false,
      "inputs": [
        {
          "indexed": true,
          "internalType": "address",
          "name": "reciever",
          "type": "address"
        },
        {
          "indexed": true,
          "internalType": "address",
          "name": "whitelistedContract",
          "type": "address"
        },
        {
          "indexed": false,
          "internalType": "uint256",
          "name": "amount",
          "type": "uint256"
        }
      ],
      "name": "RetrievedSFuel",
      "type": "event"
    },
    {
      "anonymous": false,
      "inputs": [
        {
          "indexed": true,
          "internalType": "address",
          "name": "returner",
          "type": "address"
        },
        {
          "indexed": true,
          "internalType": "address",
          "name": "whitelistedContract",
          "type": "address"
        },
        {
          "indexed": false,
          "internalType": "uint256",
          "name": "amount",
          "type": "uint256"
        }
      ],
      "name": "ReturnedSFuel",
      "type": "event"
    },
    {
      "anonymous": false,
      "inputs": [
        {
          "indexed": true,
          "internalType": "bytes32",
          "name": "role",
          "type": "bytes32"
        },
        {
          "indexed": true,
          "internalType": "bytes32",
          "name": "previousAdminRole",
          "type": "bytes32"
        },
        {
          "indexed": true,
          "internalType": "bytes32",
          "name": "newAdminRole",
          "type": "bytes32"
        }
      ],
      "name": "RoleAdminChanged",
      "type": "event"
    },
    {
      "anonymous": false,
      "inputs": [
        {
          "indexed": true,
          "internalType": "address",
          "name": "reciever",
          "type": "address"
        },
        {
          "indexed": true,
          "internalType": "address",
          "name": "caller",
          "type": "address"
        },
        {
          "indexed": true,
          "internalType": "bytes32",
          "name": "role",
          "type": "bytes32"
        }
      ],
      "name": "RoleGranted",
      "type": "event"
    },
    {
      "anonymous": false,
      "inputs": [
        {
          "indexed": true,
          "internalType": "bytes32",
          "name": "role",
          "type": "bytes32"
        },
        {
          "indexed": true,
          "internalType": "address",
          "name": "account",
          "type": "address"
        },
        {
          "indexed": true,
          "internalType": "address",
          "name": "sender",
          "type": "address"
        }
      ],
      "name": "RoleGranted",
      "type": "event"
    },
    {
      "anonymous": false,
      "inputs": [
        {
          "indexed": true,
          "internalType": "address",
          "name": "removed",
          "type": "address"
        },
        {
          "indexed": true,
          "internalType": "address",
          "name": "caller",
          "type": "address"
        },
        {
          "indexed": true,
          "internalType": "bytes32",
          "name": "role",
          "type": "bytes32"
        }
      ],
      "name": "RoleRemoved",
      "type": "event"
    },
    {
      "anonymous": false,
      "inputs": [
        {
          "indexed": true,
          "internalType": "bytes32",
          "name": "role",
          "type": "bytes32"
        },
        {
          "indexed": true,
          "internalType": "address",
          "name": "account",
          "type": "address"
        },
        {
          "indexed": true,
          "internalType": "address",
          "name": "sender",
          "type": "address"
        }
      ],
      "name": "RoleRevoked",
      "type": "event"
    },
    {
      "stateMutability": "payable",
      "type": "fallback"
    },
    {
      "inputs": [],
      "name": "ACTIVE_MANAGER_ROLE",
      "outputs": [
        {
          "internalType": "bytes32",
          "name": "",
          "type": "bytes32"
        }
      ],
      "stateMutability": "view",
      "type": "function"
    },
    {
      "inputs": [],
      "name": "CONTRACT_MANAGER_ROLE",
      "outputs": [
        {
          "internalType": "bytes32",
          "name": "",
          "type": "bytes32"
        }
      ],
      "stateMutability": "view",
      "type": "function"
    },
    {
      "inputs": [],
      "name": "DEFAULT_ADMIN_ROLE",
      "outputs": [
        {
          "internalType": "bytes32",
          "name": "",
          "type": "bytes32"
        }
      ],
      "stateMutability": "view",
      "type": "function"
    },
    {
      "inputs": [],
      "name": "IS_WHITELISTED_CONTRACT",
      "outputs": [
        {
          "internalType": "bytes32",
          "name": "",
          "type": "bytes32"
        }
      ],
      "stateMutability": "view",
      "type": "function"
    },
    {
      "inputs": [],
      "name": "WHITELIST_MANAGER_ROLE",
      "outputs": [
        {
          "internalType": "bytes32",
          "name": "",
          "type": "bytes32"
        }
      ],
      "stateMutability": "view",
      "type": "function"
    },
    {
      "inputs": [],
      "name": "fillContract",
      "outputs": [],
      "stateMutability": "nonpayable",
      "type": "function"
    },
    {
      "inputs": [],
      "name": "getBalance",
      "outputs": [
        {
          "internalType": "uint256",
          "name": "",
          "type": "uint256"
        }
      ],
      "stateMutability": "view",
      "type": "function"
    },
    {
      "inputs": [],
      "name": "getContractBalance",
      "outputs": [
        {
          "internalType": "uint256",
          "name": "",
          "type": "uint256"
        }
      ],
      "stateMutability": "view",
      "type": "function"
    },
    {
      "inputs": [
        {
          "internalType": "bytes32",
          "name": "role",
          "type": "bytes32"
        }
      ],
      "name": "getRoleAdmin",
      "outputs": [
        {
          "internalType": "bytes32",
          "name": "",
          "type": "bytes32"
        }
      ],
      "stateMutability": "view",
      "type": "function"
    },
    {
      "inputs": [
        {
          "internalType": "bytes32",
          "name": "role",
          "type": "bytes32"
        },
        {
          "internalType": "uint256",
          "name": "index",
          "type": "uint256"
        }
      ],
      "name": "getRoleMember",
      "outputs": [
        {
          "internalType": "address",
          "name": "",
          "type": "address"
        }
      ],
      "stateMutability": "view",
      "type": "function"
    },
    {
      "inputs": [
        {
          "internalType": "bytes32",
          "name": "role",
          "type": "bytes32"
        }
      ],
      "name": "getRoleMemberCount",
      "outputs": [
        {
          "internalType": "uint256",
          "name": "",
          "type": "uint256"
        }
      ],
      "stateMutability": "view",
      "type": "function"
    },
    {
      "inputs": [
        {
          "internalType": "bytes32",
          "name": "role",
          "type": "bytes32"
        },
        {
          "internalType": "address",
          "name": "account",
          "type": "address"
        }
      ],
      "name": "grantRole",
      "outputs": [],
      "stateMutability": "nonpayable",
      "type": "function"
    },
    {
      "inputs": [
        {
          "internalType": "bytes32",
          "name": "role",
          "type": "bytes32"
        },
        {
          "internalType": "address",
          "name": "account",
          "type": "address"
        }
      ],
      "name": "hasRole",
      "outputs": [
        {
          "internalType": "bool",
          "name": "",
          "type": "bool"
        }
      ],
      "stateMutability": "view",
      "type": "function"
    },
    {
      "inputs": [
        {
          "internalType": "bytes32",
          "name": "role",
          "type": "bytes32"
        },
        {
          "internalType": "address",
          "name": "account",
          "type": "address"
        }
      ],
      "name": "renounceRole",
      "outputs": [],
      "stateMutability": "nonpayable",
      "type": "function"
    },
    {
      "inputs": [
        {
          "internalType": "address payable",
          "name": "_retriever",
          "type": "address"
        }
      ],
      "name": "retrieveSFuel",
      "outputs": [],
      "stateMutability": "payable",
      "type": "function"
    },
    {
      "inputs": [
        {
          "internalType": "bytes32",
          "name": "role",
          "type": "bytes32"
        },
        {
          "internalType": "address",
          "name": "account",
          "type": "address"
        }
      ],
      "name": "revokeRole",
      "outputs": [],
      "stateMutability": "nonpayable",
      "type": "function"
    },
    {
      "inputs": [
        {
          "internalType": "bytes4",
          "name": "interfaceId",
          "type": "bytes4"
        }
      ],
      "name": "supportsInterface",
      "outputs": [
        {
          "internalType": "bool",
          "name": "",
          "type": "bool"
        }
      ],
      "stateMutability": "view",
      "type": "function"
    },
    {
      "stateMutability": "payable",
      "type": "receive"
    }
  ],
  "bytecode": "0x60806040523480156200001157600080fd5b50620000276000801b336200010560201b60201c565b620000597f2a3dab589bcc9747970dd85ac3f222668741ae51f2a1bbb8f8355be28dd8a868336200010560201b60201c565b6200008b7f8135f02737a6b32709c1f229001b55183df0d6abcb3022e8bae091ad43fd9e6d336200010560201b60201c565b620000bd7faa35297b265f70e7864cdb6b468dec7c6b363aa63d0fb01919c66f6548a9ff27336200010560201b60201c565b66038d7ea4c68000600281905550620f4240600254620000de9190620003be565b6003819055506000600460006101000a81548160ff0219169083151502179055506200041f565b6200011c82826200014d60201b620008b91760201c565b6200014881600160008581526020019081526020016000206200023e60201b620009991790919060201c565b505050565b6200015f82826200027660201b60201c565b6200023a57600160008084815260200190815260200160002060000160008373ffffffffffffffffffffffffffffffffffffffff1673ffffffffffffffffffffffffffffffffffffffff16815260200190815260200160002060006101000a81548160ff021916908315150217905550620001df620002e060201b60201c565b73ffffffffffffffffffffffffffffffffffffffff168173ffffffffffffffffffffffffffffffffffffffff16837f2f8788117e7eff1d82e926ec794901d17c78024a50270940304540a733656f0d60405160405180910390a45b5050565b60006200026e836000018373ffffffffffffffffffffffffffffffffffffffff1660001b620002e860201b60201c565b905092915050565b600080600084815260200190815260200160002060000160008373ffffffffffffffffffffffffffffffffffffffff1673ffffffffffffffffffffffffffffffffffffffff16815260200190815260200160002060009054906101000a900460ff16905092915050565b600033905090565b6000620002fc83836200036260201b60201c565b620003575782600001829080600181540180825580915050600190039060005260206000200160009091909190915055826000018054905083600101600084815260200190815260200160002081905550600190506200035c565b600090505b92915050565b600080836001016000848152602001908152602001600020541415905092915050565b6000819050919050565b7f4e487b7100000000000000000000000000000000000000000000000000000000600052601160045260246000fd5b6000620003cb8262000385565b9150620003d88362000385565b9250817fffffffffffffffffffffffffffffffffffffffffffffffffffffffffffffffff04831182151516156200041457620004136200038f565b5b828202905092915050565b611c6f806200042f6000396000f3fe6080604052600436106101025760003560e01c80635f7f46321161009557806391d148541161006457806391d14854146103c45780639d28b50614610401578063a217fddf1461042c578063ca15c87314610457578063d547741f1461049457610157565b80635f7f4632146103065780636f9fb98a146103315780637295ed931461035c5780639010d07c1461038757610157565b8063248a9ca3116100d1578063248a9ca31461025b5780632f2ff15d1461029857806336568abe146102c15780633eb5938a146102ea57610157565b806301ffc9a7146101b157806312065fe0146101ee578063131c53d914610219578063215ac4be1461024457610157565b36610157573373ffffffffffffffffffffffffffffffffffffffff167fa58b71ad2e6ce803dd1eec62e2f3717a164a8912ee33eb51a57a234ba56b55353460405161014d9190611325565b60405180910390a2005b60003411156101af573373ffffffffffffffffffffffffffffffffffffffff167fa58b71ad2e6ce803dd1eec62e2f3717a164a8912ee33eb51a57a234ba56b5535346040516101a69190611325565b60405180910390a25b005b3480156101bd57600080fd5b506101d860048036038101906101d3919061139d565b6104bd565b6040516101e591906113e5565b60405180910390f35b3480156101fa57600080fd5b50610203610537565b6040516102109190611325565b60405180910390f35b34801561022557600080fd5b5061022e610556565b60405161023b9190611419565b60405180910390f35b34801561025057600080fd5b5061025961057a565b005b34801561026757600080fd5b50610282600480360381019061027d9190611460565b610584565b60405161028f9190611419565b60405180910390f35b3480156102a457600080fd5b506102bf60048036038101906102ba91906114eb565b6105a3565b005b3480156102cd57600080fd5b506102e860048036038101906102e391906114eb565b6105c4565b005b61030460048036038101906102ff9190611569565b610647565b005b34801561031257600080fd5b5061031b610760565b6040516103289190611419565b60405180910390f35b34801561033d57600080fd5b50610346610784565b6040516103539190611325565b60405180910390f35b34801561036857600080fd5b5061037161078c565b60405161037e9190611419565b60405180910390f35b34801561039357600080fd5b506103ae60048036038101906103a991906115c2565b6107b0565b6040516103bb9190611611565b60405180910390f35b3480156103d057600080fd5b506103eb60048036038101906103e691906114eb565b6107df565b6040516103f891906113e5565b60405180910390f35b34801561040d57600080fd5b50610416610849565b6040516104239190611419565b60405180910390f35b34801561043857600080fd5b5061044161086d565b60405161044e9190611419565b60405180910390f35b34801561046357600080fd5b5061047e60048036038101906104799190611460565b610874565b60405161048b9190611325565b60405180910390f35b3480156104a057600080fd5b506104bb60048036038101906104b691906114eb565b610898565b005b60007f5a05180f000000000000000000000000000000000000000000000000000000007bffffffffffffffffffffffffffffffffffffffffffffffffffffffff1916827bffffffffffffffffffffffffffffffffffffffffffffffffffffffff19161480610530575061052f826109c9565b5b9050919050565b60003373ffffffffffffffffffffffffffffffffffffffff1631905090565b7faa35297b265f70e7864cdb6b468dec7c6b363aa63d0fb01919c66f6548a9ff2781565b610582610a43565b565b6000806000838152602001908152602001600020600101549050919050565b6105ac82610584565b6105b581610bbf565b6105bf8383610bd3565b505050565b6105cc610c07565b73ffffffffffffffffffffffffffffffffffffffff168173ffffffffffffffffffffffffffffffffffffffff1614610639576040517f08c379a0000000000000000000000000000000000000000000000000000000008152600401610630906116af565b60405180910390fd5b6106438282610c0f565b5050565b600460009054906101000a900460ff1615610697576040517f08c379a000000000000000000000000000000000000000000000000000000000815260040161068e9061171b565b60405180910390fd5b6106c17f5ce17f380ca23160a7c5ce147cd0292497d6246fba3530e88f1c6691cf3ce206336107df565b610700576040517f08c379a00000000000000000000000000000000000000000000000000000000081526004016106f790611787565b60405180910390fd5b600061070b82610c43565b90508173ffffffffffffffffffffffffffffffffffffffff166108fc670de0b6b3a76400009081150290604051600060405180830381858888f1935050505015801561075b573d6000803e3d6000fd5b505050565b7f5ce17f380ca23160a7c5ce147cd0292497d6246fba3530e88f1c6691cf3ce20681565b600047905090565b7f2a3dab589bcc9747970dd85ac3f222668741ae51f2a1bbb8f8355be28dd8a86881565b60006107d78260016000868152602001908152602001600020610c6490919063ffffffff16565b905092915050565b600080600084815260200190815260200160002060000160008373ffffffffffffffffffffffffffffffffffffffff1673ffffffffffffffffffffffffffffffffffffffff16815260200190815260200160002060009054906101000a900460ff16905092915050565b7f8135f02737a6b32709c1f229001b55183df0d6abcb3022e8bae091ad43fd9e6d81565b6000801b81565b600061089160016000848152602001908152602001600020610c7e565b9050919050565b6108a182610584565b6108aa81610bbf565b6108b48383610c0f565b505050565b6108c382826107df565b61099557600160008084815260200190815260200160002060000160008373ffffffffffffffffffffffffffffffffffffffff1673ffffffffffffffffffffffffffffffffffffffff16815260200190815260200160002060006101000a81548160ff02191690831515021790555061093a610c07565b73ffffffffffffffffffffffffffffffffffffffff168173ffffffffffffffffffffffffffffffffffffffff16837f2f8788117e7eff1d82e926ec794901d17c78024a50270940304540a733656f0d60405160405180910390a45b5050565b60006109c1836000018373ffffffffffffffffffffffffffffffffffffffff1660001b610c93565b905092915050565b60007f7965db0b000000000000000000000000000000000000000000000000000000007bffffffffffffffffffffffffffffffffffffffffffffffffffffffff1916827bffffffffffffffffffffffffffffffffffffffffffffffffffffffff19161480610a3c5750610a3b82610d03565b5b9050919050565b600460009054906101000a900460ff1615610a93576040517f08c379a0000000000000000000000000000000000000000000000000000000008152600401610a8a9061171b565b60405180910390fd5b6000610a9e30610c43565b90506000610aab82610d6d565b9050610ab5610d84565b73ffffffffffffffffffffffffffffffffffffffff1663204a3e9330836040518363ffffffff1660e01b8152600401610aef9291906117b6565b600060405180830381600087803b158015610b0957600080fd5b505af1158015610b1d573d6000803e3d6000fd5b50505050600354610b2d30610c43565b14610b6d576040517f08c379a0000000000000000000000000000000000000000000000000000000008152600401610b649061182b565b60405180910390fd5b3373ffffffffffffffffffffffffffffffffffffffff167f2d6e436d93e4e3143f5d97f5786f48e9736d037972d20e408bb1aa2284bf6c0f82604051610bb39190611325565b60405180910390a25050565b610bd081610bcb610c07565b610d93565b50565b610bdd82826108b9565b610c02816001600085815260200190815260200160002061099990919063ffffffff16565b505050565b600033905090565b610c198282610e30565b610c3e8160016000858152602001908152602001600020610f1190919063ffffffff16565b505050565b60008173ffffffffffffffffffffffffffffffffffffffff16319050919050565b6000610c738360000183610f41565b60001c905092915050565b6000610c8c82600001610f6c565b9050919050565b6000610c9f8383610f7d565b610cf8578260000182908060018154018082558091505060019003906000526020600020016000909190919091505582600001805490508360010160008481526020019081526020016000208190555060019050610cfd565b600090505b92915050565b60007f01ffc9a7000000000000000000000000000000000000000000000000000000007bffffffffffffffffffffffffffffffffffffffffffffffffffffffff1916827bffffffffffffffffffffffffffffffffffffffffffffffffffffffff1916149050919050565b600081600354610d7d919061187a565b9050919050565b6000610d8e610fa0565b905090565b610d9d82826107df565b610e2c57610dc28173ffffffffffffffffffffffffffffffffffffffff166014610fbc565b610dd08360001c6020610fbc565b604051602001610de19291906119c0565b6040516020818303038152906040526040517f08c379a0000000000000000000000000000000000000000000000000000000008152600401610e239190611a44565b60405180910390fd5b5050565b610e3a82826107df565b15610f0d57600080600084815260200190815260200160002060000160008373ffffffffffffffffffffffffffffffffffffffff1673ffffffffffffffffffffffffffffffffffffffff16815260200190815260200160002060006101000a81548160ff021916908315150217905550610eb2610c07565b73ffffffffffffffffffffffffffffffffffffffff168173ffffffffffffffffffffffffffffffffffffffff16837ff6391f5c32d9c69d2a47ea670b442974b53935d1edc7fd64eb21e047a839171b60405160405180910390a45b5050565b6000610f39836000018373ffffffffffffffffffffffffffffffffffffffff1660001b6111f8565b905092915050565b6000826000018281548110610f5957610f58611a66565b5b9060005260206000200154905092915050565b600081600001805490509050919050565b600080836001016000848152602001908152602001600020541415905092915050565b600073d2ba3e0000000000000000000000000000000000905090565b606060006002836002610fcf9190611a95565b610fd99190611aef565b67ffffffffffffffff811115610ff257610ff1611b45565b5b6040519080825280601f01601f1916602001820160405280156110245781602001600182028036833780820191505090505b5090507f30000000000000000000000000000000000000000000000000000000000000008160008151811061105c5761105b611a66565b5b60200101907effffffffffffffffffffffffffffffffffffffffffffffffffffffffffffff1916908160001a9053507f7800000000000000000000000000000000000000000000000000000000000000816001815181106110c0576110bf611a66565b5b60200101907effffffffffffffffffffffffffffffffffffffffffffffffffffffffffffff1916908160001a905350600060018460026111009190611a95565b61110a9190611aef565b90505b60018111156111aa577f3031323334353637383961626364656600000000000000000000000000000000600f86166010811061114c5761114b611a66565b5b1a60f81b82828151811061116357611162611a66565b5b60200101907effffffffffffffffffffffffffffffffffffffffffffffffffffffffffffff1916908160001a905350600485901c9450806111a390611b74565b905061110d565b50600084146111ee576040517f08c379a00000000000000000000000000000000000000000000000000000000081526004016111e590611bea565b60405180910390fd5b8091505092915050565b6000808360010160008481526020019081526020016000205490506000811461130057600060018261122a919061187a565b9050600060018660000180549050611242919061187a565b90508181146112b157600086600001828154811061126357611262611a66565b5b906000526020600020015490508087600001848154811061128757611286611a66565b5b90600052602060002001819055508387600101600083815260200190815260200160002081905550505b856000018054806112c5576112c4611c0a565b5b600190038181906000526020600020016000905590558560010160008681526020019081526020016000206000905560019350505050611306565b60009150505b92915050565b6000819050919050565b61131f8161130c565b82525050565b600060208201905061133a6000830184611316565b92915050565b600080fd5b60007fffffffff0000000000000000000000000000000000000000000000000000000082169050919050565b61137a81611345565b811461138557600080fd5b50565b60008135905061139781611371565b92915050565b6000602082840312156113b3576113b2611340565b5b60006113c184828501611388565b91505092915050565b60008115159050919050565b6113df816113ca565b82525050565b60006020820190506113fa60008301846113d6565b92915050565b6000819050919050565b61141381611400565b82525050565b600060208201905061142e600083018461140a565b92915050565b61143d81611400565b811461144857600080fd5b50565b60008135905061145a81611434565b92915050565b60006020828403121561147657611475611340565b5b60006114848482850161144b565b91505092915050565b600073ffffffffffffffffffffffffffffffffffffffff82169050919050565b60006114b88261148d565b9050919050565b6114c8816114ad565b81146114d357600080fd5b50565b6000813590506114e5816114bf565b92915050565b6000806040838503121561150257611501611340565b5b60006115108582860161144b565b9250506020611521858286016114d6565b9150509250929050565b60006115368261148d565b9050919050565b6115468161152b565b811461155157600080fd5b50565b6000813590506115638161153d565b92915050565b60006020828403121561157f5761157e611340565b5b600061158d84828501611554565b91505092915050565b61159f8161130c565b81146115aa57600080fd5b50565b6000813590506115bc81611596565b92915050565b600080604083850312156115d9576115d8611340565b5b60006115e78582860161144b565b92505060206115f8858286016115ad565b9150509250929050565b61160b816114ad565b82525050565b60006020820190506116266000830184611602565b92915050565b600082825260208201905092915050565b7f416363657373436f6e74726f6c3a2063616e206f6e6c792072656e6f756e636560008201527f20726f6c657320666f722073656c660000000000000000000000000000000000602082015250565b6000611699602f8361162c565b91506116a48261163d565b604082019050919050565b600060208201905081810360008301526116c88161168c565b9050919050565b7f436f6e7472616374206973205061757365640000000000000000000000000000600082015250565b600061170560128361162c565b9150611710826116cf565b602082019050919050565b60006020820190508181036000830152611734816116f8565b9050919050565b7f49535f57484954454c4953544544205265717569726564000000000000000000600082015250565b600061177160178361162c565b915061177c8261173b565b602082019050919050565b600060208201905081810360008301526117a081611764565b9050919050565b6117b08161152b565b82525050565b60006040820190506117cb60008301856117a7565b6117d86020830184611316565b9392505050565b7f4572726f722046696c6c696e6720557000000000000000000000000000000000600082015250565b600061181560108361162c565b9150611820826117df565b602082019050919050565b6000602082019050818103600083015261184481611808565b9050919050565b7f4e487b7100000000000000000000000000000000000000000000000000000000600052601160045260246000fd5b60006118858261130c565b91506118908361130c565b9250828210156118a3576118a261184b565b5b828203905092915050565b600081905092915050565b7f416363657373436f6e74726f6c3a206163636f756e7420000000000000000000600082015250565b60006118ef6017836118ae565b91506118fa826118b9565b601782019050919050565b600081519050919050565b60005b8381101561192e578082015181840152602081019050611913565b8381111561193d576000848401525b50505050565b600061194e82611905565b61195881856118ae565b9350611968818560208601611910565b80840191505092915050565b7f206973206d697373696e6720726f6c6520000000000000000000000000000000600082015250565b60006119aa6011836118ae565b91506119b582611974565b601182019050919050565b60006119cb826118e2565b91506119d78285611943565b91506119e28261199d565b91506119ee8284611943565b91508190509392505050565b6000601f19601f8301169050919050565b6000611a1682611905565b611a20818561162c565b9350611a30818560208601611910565b611a39816119fa565b840191505092915050565b60006020820190508181036000830152611a5e8184611a0b565b905092915050565b7f4e487b7100000000000000000000000000000000000000000000000000000000600052603260045260246000fd5b6000611aa08261130c565b9150611aab8361130c565b9250817fffffffffffffffffffffffffffffffffffffffffffffffffffffffffffffffff0483118215151615611ae457611ae361184b565b5b828202905092915050565b6000611afa8261130c565b9150611b058361130c565b9250827fffffffffffffffffffffffffffffffffffffffffffffffffffffffffffffffff03821115611b3a57611b3961184b565b5b828201905092915050565b7f4e487b7100000000000000000000000000000000000000000000000000000000600052604160045260246000fd5b6000611b7f8261130c565b91506000821415611b9357611b9261184b565b5b600182039050919050565b7f537472696e67733a20686578206c656e67746820696e73756666696369656e74600082015250565b6000611bd460208361162c565b9150611bdf82611b9e565b602082019050919050565b60006020820190508181036000830152611c0381611bc7565b9050919050565b7f4e487b7100000000000000000000000000000000000000000000000000000000600052603160045260246000fdfea2646970667358221220d519c1b2cc48db3323b6c73c5517fb033e7da6ac7d76f914f0889016b324876564736f6c63430008090033",
  "linkReferences": {},
  "deployedLinkReferences": {}
}