{
  "_format": "hh-sol-artifact-1",
  "contractName": "SFuelContracts",
  "sourceName": "sfuel/contracts/s_fuel/SFuelContracts.sol",
  "abi": [
    {
      "inputs": [],
      "stateMutability": "nonpayable",
      "type": "constructor"
    },
    {
      "anonymous": false,
      "inputs": [
        {
          "indexed": true,
          "internalType": "address",
          "name": "caller",
          "type": "address"
        },
        {
          "indexed": false,
          "internalType": "uint256",
          "name": "value",
          "type": "uint256"
        }
      ],
      "name": "ContractFilled",
      "type": "event"
    },
    {
      "anonymous": false,
      "inputs": [
        {
          "indexed": true,
          "internalType": "address",
          "name": "sender",
          "type": "address"
        },
        {
          "indexed": false,
          "internalType": "uint256",
          "name": "value",
          "type": "uint256"
        }
      ],
      "name": "EtherDeposit",
      "type": "event"
    },
    {
      "anonymous": false,
      "inputs": [
        {
          "indexed": true,
          "internalType": "address",
          "name": "reciever",
          "type": "address"
        },
        {
          "indexed": true,
          "internalType": "address",
          "name": "whitelistedContract",
          "type": "address"
        },
        {
          "indexed": false,
          "internalType": "uint256",
          "name": "amount",
          "type": "uint256"
        }
      ],
      "name": "RetrievedSFuel",
      "type": "event"
    },
    {
      "anonymous": false,
      "inputs": [
        {
          "indexed": true,
          "internalType": "address",
          "name": "returner",
          "type": "address"
        },
        {
          "indexed": true,
          "internalType": "address",
          "name": "whitelistedContract",
          "type": "address"
        },
        {
          "indexed": false,
          "internalType": "uint256",
          "name": "amount",
          "type": "uint256"
        }
      ],
      "name": "ReturnedSFuel",
      "type": "event"
    },
    {
      "anonymous": false,
      "inputs": [
        {
          "indexed": true,
          "internalType": "bytes32",
          "name": "role",
          "type": "bytes32"
        },
        {
          "indexed": true,
          "internalType": "bytes32",
          "name": "previousAdminRole",
          "type": "bytes32"
        },
        {
          "indexed": true,
          "internalType": "bytes32",
          "name": "newAdminRole",
          "type": "bytes32"
        }
      ],
      "name": "RoleAdminChanged",
      "type": "event"
    },
    {
      "anonymous": false,
      "inputs": [
        {
          "indexed": true,
          "internalType": "address",
          "name": "reciever",
          "type": "address"
        },
        {
          "indexed": true,
          "internalType": "address",
          "name": "caller",
          "type": "address"
        },
        {
          "indexed": true,
          "internalType": "bytes32",
          "name": "role",
          "type": "bytes32"
        }
      ],
      "name": "RoleGranted",
      "type": "event"
    },
    {
      "anonymous": false,
      "inputs": [
        {
          "indexed": true,
          "internalType": "bytes32",
          "name": "role",
          "type": "bytes32"
        },
        {
          "indexed": true,
          "internalType": "address",
          "name": "account",
          "type": "address"
        },
        {
          "indexed": true,
          "internalType": "address",
          "name": "sender",
          "type": "address"
        }
      ],
      "name": "RoleGranted",
      "type": "event"
    },
    {
      "anonymous": false,
      "inputs": [
        {
          "indexed": true,
          "internalType": "address",
          "name": "removed",
          "type": "address"
        },
        {
          "indexed": true,
          "internalType": "address",
          "name": "caller",
          "type": "address"
        },
        {
          "indexed": true,
          "internalType": "bytes32",
          "name": "role",
          "type": "bytes32"
        }
      ],
      "name": "RoleRemoved",
      "type": "event"
    },
    {
      "anonymous": false,
      "inputs": [
        {
          "indexed": true,
          "internalType": "bytes32",
          "name": "role",
          "type": "bytes32"
        },
        {
          "indexed": true,
          "internalType": "address",
          "name": "account",
          "type": "address"
        },
        {
          "indexed": true,
          "internalType": "address",
          "name": "sender",
          "type": "address"
        }
      ],
      "name": "RoleRevoked",
      "type": "event"
    },
    {
      "stateMutability": "payable",
      "type": "fallback"
    },
    {
      "inputs": [],
      "name": "ACTIVE_MANAGER_ROLE",
      "outputs": [
        {
          "internalType": "bytes32",
          "name": "",
          "type": "bytes32"
        }
      ],
      "stateMutability": "view",
      "type": "function"
    },
    {
      "inputs": [],
      "name": "CONTRACT_MANAGER_ROLE",
      "outputs": [
        {
          "internalType": "bytes32",
          "name": "",
          "type": "bytes32"
        }
      ],
      "stateMutability": "view",
      "type": "function"
    },
    {
      "inputs": [],
      "name": "DEFAULT_ADMIN_ROLE",
      "outputs": [
        {
          "internalType": "bytes32",
          "name": "",
          "type": "bytes32"
        }
      ],
      "stateMutability": "view",
      "type": "function"
    },
    {
      "inputs": [],
      "name": "IS_WHITELISTED_CONTRACT",
      "outputs": [
        {
          "internalType": "bytes32",
          "name": "",
          "type": "bytes32"
        }
      ],
      "stateMutability": "view",
      "type": "function"
    },
    {
      "inputs": [],
      "name": "WHITELIST_MANAGER_ROLE",
      "outputs": [
        {
          "internalType": "bytes32",
          "name": "",
          "type": "bytes32"
        }
      ],
      "stateMutability": "view",
      "type": "function"
    },
    {
      "inputs": [],
      "name": "fillContract",
      "outputs": [],
      "stateMutability": "nonpayable",
      "type": "function"
    },
    {
      "inputs": [],
      "name": "getBalance",
      "outputs": [
        {
          "internalType": "uint256",
          "name": "",
          "type": "uint256"
        }
      ],
      "stateMutability": "view",
      "type": "function"
    },
    {
      "inputs": [],
      "name": "getContractBalance",
      "outputs": [
        {
          "internalType": "uint256",
          "name": "",
          "type": "uint256"
        }
      ],
      "stateMutability": "view",
      "type": "function"
    },
    {
      "inputs": [
        {
          "internalType": "bytes32",
          "name": "role",
          "type": "bytes32"
        }
      ],
      "name": "getRoleAdmin",
      "outputs": [
        {
          "internalType": "bytes32",
          "name": "",
          "type": "bytes32"
        }
      ],
      "stateMutability": "view",
      "type": "function"
    },
    {
      "inputs": [
        {
          "internalType": "bytes32",
          "name": "role",
          "type": "bytes32"
        },
        {
          "internalType": "uint256",
          "name": "index",
          "type": "uint256"
        }
      ],
      "name": "getRoleMember",
      "outputs": [
        {
          "internalType": "address",
          "name": "",
          "type": "address"
        }
      ],
      "stateMutability": "view",
      "type": "function"
    },
    {
      "inputs": [
        {
          "internalType": "bytes32",
          "name": "role",
          "type": "bytes32"
        }
      ],
      "name": "getRoleMemberCount",
      "outputs": [
        {
          "internalType": "uint256",
          "name": "",
          "type": "uint256"
        }
      ],
      "stateMutability": "view",
      "type": "function"
    },
    {
      "inputs": [
        {
          "internalType": "bytes32",
          "name": "role",
          "type": "bytes32"
        },
        {
          "internalType": "address",
          "name": "account",
          "type": "address"
        }
      ],
      "name": "grantRole",
      "outputs": [],
      "stateMutability": "nonpayable",
      "type": "function"
    },
    {
      "inputs": [
        {
          "internalType": "bytes32",
          "name": "role",
          "type": "bytes32"
        },
        {
          "internalType": "address",
          "name": "account",
          "type": "address"
        }
      ],
      "name": "hasRole",
      "outputs": [
        {
          "internalType": "bool",
          "name": "",
          "type": "bool"
        }
      ],
      "stateMutability": "view",
      "type": "function"
    },
    {
      "inputs": [
        {
          "internalType": "bytes32",
          "name": "role",
          "type": "bytes32"
        },
        {
          "internalType": "address",
          "name": "account",
          "type": "address"
        }
      ],
      "name": "renounceRole",
      "outputs": [],
      "stateMutability": "nonpayable",
      "type": "function"
    },
    {
      "inputs": [
        {
          "internalType": "address payable",
          "name": "_retriever",
          "type": "address"
        }
      ],
      "name": "retrieveSFuel",
      "outputs": [],
      "stateMutability": "nonpayable",
      "type": "function"
    },
    {
      "inputs": [
        {
          "internalType": "bytes32",
          "name": "role",
          "type": "bytes32"
        },
        {
          "internalType": "address",
          "name": "account",
          "type": "address"
        }
      ],
      "name": "revokeRole",
      "outputs": [],
      "stateMutability": "nonpayable",
      "type": "function"
    },
    {
      "inputs": [
        {
          "internalType": "bytes4",
          "name": "interfaceId",
          "type": "bytes4"
        }
      ],
      "name": "supportsInterface",
      "outputs": [
        {
          "internalType": "bool",
          "name": "",
          "type": "bool"
        }
      ],
      "stateMutability": "view",
      "type": "function"
    },
    {
      "stateMutability": "payable",
      "type": "receive"
    }
  ],
  "bytecode": "0x60806040523480156200001157600080fd5b50620000447f2a3dab589bcc9747970dd85ac3f222668741ae51f2a1bbb8f8355be28dd8a86833620000ed60201b60201c565b620000767f8135f02737a6b32709c1f229001b55183df0d6abcb3022e8bae091ad43fd9e6d33620000ed60201b60201c565b620000a87faa35297b265f70e7864cdb6b468dec7c6b363aa63d0fb01919c66f6548a9ff2733620000ed60201b60201c565b633b9aca00600281905550620f4240600254620000c69190620003a6565b6003819055506000600460006101000a81548160ff02191690831515021790555062000407565b6200010482826200013560201b62000bdc1760201c565b6200013081600160008581526020019081526020016000206200022660201b62000cbc1790919060201c565b505050565b6200014782826200025e60201b60201c565b6200022257600160008084815260200190815260200160002060000160008373ffffffffffffffffffffffffffffffffffffffff1673ffffffffffffffffffffffffffffffffffffffff16815260200190815260200160002060006101000a81548160ff021916908315150217905550620001c7620002c860201b60201c565b73ffffffffffffffffffffffffffffffffffffffff168173ffffffffffffffffffffffffffffffffffffffff16837f2f8788117e7eff1d82e926ec794901d17c78024a50270940304540a733656f0d60405160405180910390a45b5050565b600062000256836000018373ffffffffffffffffffffffffffffffffffffffff1660001b620002d060201b60201c565b905092915050565b600080600084815260200190815260200160002060000160008373ffffffffffffffffffffffffffffffffffffffff1673ffffffffffffffffffffffffffffffffffffffff16815260200190815260200160002060009054906101000a900460ff16905092915050565b600033905090565b6000620002e483836200034a60201b60201c565b6200033f57826000018290806001815401808255809150506001900390600052602060002001600090919091909150558260000180549050836001016000848152602001908152602001600020819055506001905062000344565b600090505b92915050565b600080836001016000848152602001908152602001600020541415905092915050565b6000819050919050565b7f4e487b7100000000000000000000000000000000000000000000000000000000600052601160045260246000fd5b6000620003b3826200036d565b9150620003c0836200036d565b9250817fffffffffffffffffffffffffffffffffffffffffffffffffffffffffffffffff0483118215151615620003fc57620003fb62000377565b5b828202905092915050565b611eb080620004176000396000f3fe6080604052600436106101025760003560e01c80635f7f46321161009557806391d148541161006457806391d14854146103d15780639d28b5061461040e578063a217fddf14610439578063ca15c87314610464578063d547741f146104a157610157565b80635f7f4632146103135780636f9fb98a1461033e5780637295ed93146103695780639010d07c1461039457610157565b8063248a9ca3116100d1578063248a9ca31461025b5780632f2ff15d1461029857806336568abe146102c15780633eb5938a146102ea57610157565b806301ffc9a7146101b157806312065fe0146101ee578063131c53d914610219578063215ac4be1461024457610157565b36610157573373ffffffffffffffffffffffffffffffffffffffff167fa58b71ad2e6ce803dd1eec62e2f3717a164a8912ee33eb51a57a234ba56b55353460405161014d91906114fa565b60405180910390a2005b60003411156101af573373ffffffffffffffffffffffffffffffffffffffff167fa58b71ad2e6ce803dd1eec62e2f3717a164a8912ee33eb51a57a234ba56b5535346040516101a691906114fa565b60405180910390a25b005b3480156101bd57600080fd5b506101d860048036038101906101d39190611572565b6104ca565b6040516101e591906115ba565b60405180910390f35b3480156101fa57600080fd5b50610203610544565b60405161021091906114fa565b60405180910390f35b34801561022557600080fd5b5061022e610563565b60405161023b91906115ee565b60405180910390f35b34801561025057600080fd5b50610259610587565b005b34801561026757600080fd5b50610282600480360381019061027d9190611635565b61076c565b60405161028f91906115ee565b60405180910390f35b3480156102a457600080fd5b506102bf60048036038101906102ba91906116c0565b61078b565b005b3480156102cd57600080fd5b506102e860048036038101906102e391906116c0565b6107ac565b005b3480156102f657600080fd5b50610311600480360381019061030c919061173e565b61082f565b005b34801561031f57600080fd5b50610328610a83565b60405161033591906115ee565b60405180910390f35b34801561034a57600080fd5b50610353610aa7565b60405161036091906114fa565b60405180910390f35b34801561037557600080fd5b5061037e610aaf565b60405161038b91906115ee565b60405180910390f35b3480156103a057600080fd5b506103bb60048036038101906103b69190611797565b610ad3565b6040516103c891906117e6565b60405180910390f35b3480156103dd57600080fd5b506103f860048036038101906103f391906116c0565b610b02565b60405161040591906115ba565b60405180910390f35b34801561041a57600080fd5b50610423610b6c565b60405161043091906115ee565b60405180910390f35b34801561044557600080fd5b5061044e610b90565b60405161045b91906115ee565b60405180910390f35b34801561047057600080fd5b5061048b60048036038101906104869190611635565b610b97565b60405161049891906114fa565b60405180910390f35b3480156104ad57600080fd5b506104c860048036038101906104c391906116c0565b610bbb565b005b60007f5a05180f000000000000000000000000000000000000000000000000000000007bffffffffffffffffffffffffffffffffffffffffffffffffffffffff1916827bffffffffffffffffffffffffffffffffffffffffffffffffffffffff1916148061053d575061053c82610cec565b5b9050919050565b60003373ffffffffffffffffffffffffffffffffffffffff1631905090565b7faa35297b265f70e7864cdb6b468dec7c6b363aa63d0fb01919c66f6548a9ff2781565b600460009054906101000a900460ff16156105d7576040517f08c379a00000000000000000000000000000000000000000000000000000000081526004016105ce9061185e565b60405180910390fd5b6106017f8135f02737a6b32709c1f229001b55183df0d6abcb3022e8bae091ad43fd9e6d33610b02565b610640576040517f08c379a0000000000000000000000000000000000000000000000000000000008152600401610637906118ca565b60405180910390fd5b600061064b30610d66565b9050600061065882610d87565b9050610662610d9e565b73ffffffffffffffffffffffffffffffffffffffff1663204a3e9330836040518363ffffffff1660e01b815260040161069c9291906118f9565b600060405180830381600087803b1580156106b657600080fd5b505af11580156106ca573d6000803e3d6000fd5b505050506003546106da30610d66565b1461071a576040517f08c379a00000000000000000000000000000000000000000000000000000000081526004016107119061196e565b60405180910390fd5b3373ffffffffffffffffffffffffffffffffffffffff167f2d6e436d93e4e3143f5d97f5786f48e9736d037972d20e408bb1aa2284bf6c0f8260405161076091906114fa565b60405180910390a25050565b6000806000838152602001908152602001600020600101549050919050565b6107948261076c565b61079d81610dad565b6107a78383610dc1565b505050565b6107b4610df5565b73ffffffffffffffffffffffffffffffffffffffff168173ffffffffffffffffffffffffffffffffffffffff1614610821576040517f08c379a000000000000000000000000000000000000000000000000000000000815260040161081890611a00565b60405180910390fd5b61082b8282610dfd565b5050565b600460009054906101000a900460ff161561087f576040517f08c379a00000000000000000000000000000000000000000000000000000000081526004016108769061185e565b60405180910390fd5b6108a97f5ce17f380ca23160a7c5ce147cd0292497d6246fba3530e88f1c6691cf3ce20633610b02565b6108e8576040517f08c379a00000000000000000000000000000000000000000000000000000000081526004016108df90611a6c565b60405180910390fd5b60006108f382610d66565b90506002548110156109ba57600061090a82610e31565b90508273ffffffffffffffffffffffffffffffffffffffff166108fc829081150290604051600060405180830381858888f19350505050158015610952573d6000803e3d6000fd5b503373ffffffffffffffffffffffffffffffffffffffff168373ffffffffffffffffffffffffffffffffffffffff167f3bd6ed6e41c189d37b6c3d633df447b94748e1f0c01a702e6314df17bbf40d7c836040516109b091906114fa565b60405180910390a3505b600254811115610a7f5760006109cf82610e48565b90503073ffffffffffffffffffffffffffffffffffffffff166108fc829081150290604051600060405180830381858888f19350505050158015610a17573d6000803e3d6000fd5b503373ffffffffffffffffffffffffffffffffffffffff168373ffffffffffffffffffffffffffffffffffffffff167fe2e1e9320a5cf37a72fa3c59ac904c2a23148e09a48a23767a487f806157f2df83604051610a7591906114fa565b60405180910390a3505b5050565b7f5ce17f380ca23160a7c5ce147cd0292497d6246fba3530e88f1c6691cf3ce20681565b600047905090565b7f2a3dab589bcc9747970dd85ac3f222668741ae51f2a1bbb8f8355be28dd8a86881565b6000610afa8260016000868152602001908152602001600020610e5f90919063ffffffff16565b905092915050565b600080600084815260200190815260200160002060000160008373ffffffffffffffffffffffffffffffffffffffff1673ffffffffffffffffffffffffffffffffffffffff16815260200190815260200160002060009054906101000a900460ff16905092915050565b7f8135f02737a6b32709c1f229001b55183df0d6abcb3022e8bae091ad43fd9e6d81565b6000801b81565b6000610bb460016000848152602001908152602001600020610e79565b9050919050565b610bc48261076c565b610bcd81610dad565b610bd78383610dfd565b505050565b610be68282610b02565b610cb857600160008084815260200190815260200160002060000160008373ffffffffffffffffffffffffffffffffffffffff1673ffffffffffffffffffffffffffffffffffffffff16815260200190815260200160002060006101000a81548160ff021916908315150217905550610c5d610df5565b73ffffffffffffffffffffffffffffffffffffffff168173ffffffffffffffffffffffffffffffffffffffff16837f2f8788117e7eff1d82e926ec794901d17c78024a50270940304540a733656f0d60405160405180910390a45b5050565b6000610ce4836000018373ffffffffffffffffffffffffffffffffffffffff1660001b610e8e565b905092915050565b60007f7965db0b000000000000000000000000000000000000000000000000000000007bffffffffffffffffffffffffffffffffffffffffffffffffffffffff1916827bffffffffffffffffffffffffffffffffffffffffffffffffffffffff19161480610d5f5750610d5e82610efe565b5b9050919050565b60008173ffffffffffffffffffffffffffffffffffffffff16319050919050565b600081600354610d979190611abb565b9050919050565b6000610da8610f68565b905090565b610dbe81610db9610df5565b610f84565b50565b610dcb8282610bdc565b610df08160016000858152602001908152602001600020610cbc90919063ffffffff16565b505050565b600033905090565b610e078282611021565b610e2c816001600085815260200190815260200160002061110290919063ffffffff16565b505050565b600081600254610e419190611abb565b9050919050565b600060025482610e589190611abb565b9050919050565b6000610e6e8360000183611132565b60001c905092915050565b6000610e878260000161115d565b9050919050565b6000610e9a838361116e565b610ef3578260000182908060018154018082558091505060019003906000526020600020016000909190919091505582600001805490508360010160008481526020019081526020016000208190555060019050610ef8565b600090505b92915050565b60007f01ffc9a7000000000000000000000000000000000000000000000000000000007bffffffffffffffffffffffffffffffffffffffffffffffffffffffff1916827bffffffffffffffffffffffffffffffffffffffffffffffffffffffff1916149050919050565b600073d2ba3e0000000000000000000000000000000000905090565b610f8e8282610b02565b61101d57610fb38173ffffffffffffffffffffffffffffffffffffffff166014611191565b610fc18360001c6020611191565b604051602001610fd2929190611c01565b6040516020818303038152906040526040517f08c379a00000000000000000000000000000000000000000000000000000000081526004016110149190611c85565b60405180910390fd5b5050565b61102b8282610b02565b156110fe57600080600084815260200190815260200160002060000160008373ffffffffffffffffffffffffffffffffffffffff1673ffffffffffffffffffffffffffffffffffffffff16815260200190815260200160002060006101000a81548160ff0219169083151502179055506110a3610df5565b73ffffffffffffffffffffffffffffffffffffffff168173ffffffffffffffffffffffffffffffffffffffff16837ff6391f5c32d9c69d2a47ea670b442974b53935d1edc7fd64eb21e047a839171b60405160405180910390a45b5050565b600061112a836000018373ffffffffffffffffffffffffffffffffffffffff1660001b6113cd565b905092915050565b600082600001828154811061114a57611149611ca7565b5b9060005260206000200154905092915050565b600081600001805490509050919050565b600080836001016000848152602001908152602001600020541415905092915050565b6060600060028360026111a49190611cd6565b6111ae9190611d30565b67ffffffffffffffff8111156111c7576111c6611d86565b5b6040519080825280601f01601f1916602001820160405280156111f95781602001600182028036833780820191505090505b5090507f30000000000000000000000000000000000000000000000000000000000000008160008151811061123157611230611ca7565b5b60200101907effffffffffffffffffffffffffffffffffffffffffffffffffffffffffffff1916908160001a9053507f78000000000000000000000000000000000000000000000000000000000000008160018151811061129557611294611ca7565b5b60200101907effffffffffffffffffffffffffffffffffffffffffffffffffffffffffffff1916908160001a905350600060018460026112d59190611cd6565b6112df9190611d30565b90505b600181111561137f577f3031323334353637383961626364656600000000000000000000000000000000600f86166010811061132157611320611ca7565b5b1a60f81b82828151811061133857611337611ca7565b5b60200101907effffffffffffffffffffffffffffffffffffffffffffffffffffffffffffff1916908160001a905350600485901c94508061137890611db5565b90506112e2565b50600084146113c3576040517f08c379a00000000000000000000000000000000000000000000000000000000081526004016113ba90611e2b565b60405180910390fd5b8091505092915050565b600080836001016000848152602001908152602001600020549050600081146114d55760006001826113ff9190611abb565b90506000600186600001805490506114179190611abb565b905081811461148657600086600001828154811061143857611437611ca7565b5b906000526020600020015490508087600001848154811061145c5761145b611ca7565b5b90600052602060002001819055508387600101600083815260200190815260200160002081905550505b8560000180548061149a57611499611e4b565b5b6001900381819060005260206000200160009055905585600101600086815260200190815260200160002060009055600193505050506114db565b60009150505b92915050565b6000819050919050565b6114f4816114e1565b82525050565b600060208201905061150f60008301846114eb565b92915050565b600080fd5b60007fffffffff0000000000000000000000000000000000000000000000000000000082169050919050565b61154f8161151a565b811461155a57600080fd5b50565b60008135905061156c81611546565b92915050565b60006020828403121561158857611587611515565b5b60006115968482850161155d565b91505092915050565b60008115159050919050565b6115b48161159f565b82525050565b60006020820190506115cf60008301846115ab565b92915050565b6000819050919050565b6115e8816115d5565b82525050565b600060208201905061160360008301846115df565b92915050565b611612816115d5565b811461161d57600080fd5b50565b60008135905061162f81611609565b92915050565b60006020828403121561164b5761164a611515565b5b600061165984828501611620565b91505092915050565b600073ffffffffffffffffffffffffffffffffffffffff82169050919050565b600061168d82611662565b9050919050565b61169d81611682565b81146116a857600080fd5b50565b6000813590506116ba81611694565b92915050565b600080604083850312156116d7576116d6611515565b5b60006116e585828601611620565b92505060206116f6858286016116ab565b9150509250929050565b600061170b82611662565b9050919050565b61171b81611700565b811461172657600080fd5b50565b60008135905061173881611712565b92915050565b60006020828403121561175457611753611515565b5b600061176284828501611729565b91505092915050565b611774816114e1565b811461177f57600080fd5b50565b6000813590506117918161176b565b92915050565b600080604083850312156117ae576117ad611515565b5b60006117bc85828601611620565b92505060206117cd85828601611782565b9150509250929050565b6117e081611682565b82525050565b60006020820190506117fb60008301846117d7565b92915050565b600082825260208201905092915050565b7f436f6e7472616374206973205061757365640000000000000000000000000000600082015250565b6000611848601283611801565b915061185382611812565b602082019050919050565b600060208201905081810360008301526118778161183b565b9050919050565b7f434f4e54524143545f4d414e414745525f524f4c452052657175697265640000600082015250565b60006118b4601e83611801565b91506118bf8261187e565b602082019050919050565b600060208201905081810360008301526118e3816118a7565b9050919050565b6118f381611700565b82525050565b600060408201905061190e60008301856118ea565b61191b60208301846114eb565b9392505050565b7f4572726f722046696c6c696e6720557000000000000000000000000000000000600082015250565b6000611958601083611801565b915061196382611922565b602082019050919050565b600060208201905081810360008301526119878161194b565b9050919050565b7f416363657373436f6e74726f6c3a2063616e206f6e6c792072656e6f756e636560008201527f20726f6c657320666f722073656c660000000000000000000000000000000000602082015250565b60006119ea602f83611801565b91506119f58261198e565b604082019050919050565b60006020820190508181036000830152611a19816119dd565b9050919050565b7f49535f57484954454c4953544544205265717569726564000000000000000000600082015250565b6000611a56601783611801565b9150611a6182611a20565b602082019050919050565b60006020820190508181036000830152611a8581611a49565b9050919050565b7f4e487b7100000000000000000000000000000000000000000000000000000000600052601160045260246000fd5b6000611ac6826114e1565b9150611ad1836114e1565b925082821015611ae457611ae3611a8c565b5b828203905092915050565b600081905092915050565b7f416363657373436f6e74726f6c3a206163636f756e7420000000000000000000600082015250565b6000611b30601783611aef565b9150611b3b82611afa565b601782019050919050565b600081519050919050565b60005b83811015611b6f578082015181840152602081019050611b54565b83811115611b7e576000848401525b50505050565b6000611b8f82611b46565b611b998185611aef565b9350611ba9818560208601611b51565b80840191505092915050565b7f206973206d697373696e6720726f6c6520000000000000000000000000000000600082015250565b6000611beb601183611aef565b9150611bf682611bb5565b601182019050919050565b6000611c0c82611b23565b9150611c188285611b84565b9150611c2382611bde565b9150611c2f8284611b84565b91508190509392505050565b6000601f19601f8301169050919050565b6000611c5782611b46565b611c618185611801565b9350611c71818560208601611b51565b611c7a81611c3b565b840191505092915050565b60006020820190508181036000830152611c9f8184611c4c565b905092915050565b7f4e487b7100000000000000000000000000000000000000000000000000000000600052603260045260246000fd5b6000611ce1826114e1565b9150611cec836114e1565b9250817fffffffffffffffffffffffffffffffffffffffffffffffffffffffffffffffff0483118215151615611d2557611d24611a8c565b5b828202905092915050565b6000611d3b826114e1565b9150611d46836114e1565b9250827fffffffffffffffffffffffffffffffffffffffffffffffffffffffffffffffff03821115611d7b57611d7a611a8c565b5b828201905092915050565b7f4e487b7100000000000000000000000000000000000000000000000000000000600052604160045260246000fd5b6000611dc0826114e1565b91506000821415611dd457611dd3611a8c565b5b600182039050919050565b7f537472696e67733a20686578206c656e67746820696e73756666696369656e74600082015250565b6000611e15602083611801565b9150611e2082611ddf565b602082019050919050565b60006020820190508181036000830152611e4481611e08565b9050919050565b7f4e487b7100000000000000000000000000000000000000000000000000000000600052603160045260246000fdfea2646970667358221220e25871f38f2f649f764468a5c84bb01029477ddf9d8aca46610c322bd0a7bafd64736f6c63430008090033",
  "linkReferences": {},
  "deployedLinkReferences": {}
}