{
  "_format": "hh-sol-artifact-1",
  "contractName": "SFuelContractsUpgradeable",
  "sourceName": "sfuel/contracts/s_fuel/SFuelContractsUpgradeable.sol",
  "abi": [
    {
      "anonymous": false,
      "inputs": [
        {
          "indexed": true,
          "internalType": "address",
          "name": "caller",
          "type": "address"
        },
        {
          "indexed": false,
          "internalType": "uint256",
          "name": "value",
          "type": "uint256"
        }
      ],
      "name": "ContractFilled",
      "type": "event"
    },
    {
      "anonymous": false,
      "inputs": [
        {
          "indexed": true,
          "internalType": "address",
          "name": "sender",
          "type": "address"
        },
        {
          "indexed": false,
          "internalType": "uint256",
          "name": "value",
          "type": "uint256"
        }
      ],
      "name": "EtherDeposit",
      "type": "event"
    },
    {
      "anonymous": false,
      "inputs": [
        {
          "indexed": false,
          "internalType": "uint8",
          "name": "version",
          "type": "uint8"
        }
      ],
      "name": "Initialized",
      "type": "event"
    },
    {
      "anonymous": false,
      "inputs": [
        {
          "indexed": true,
          "internalType": "address",
          "name": "reciever",
          "type": "address"
        },
        {
          "indexed": true,
          "internalType": "address",
          "name": "whitelistedContract",
          "type": "address"
        },
        {
          "indexed": false,
          "internalType": "uint256",
          "name": "amount",
          "type": "uint256"
        }
      ],
      "name": "RetrievedSFuel",
      "type": "event"
    },
    {
      "anonymous": false,
      "inputs": [
        {
          "indexed": true,
          "internalType": "address",
          "name": "returner",
          "type": "address"
        },
        {
          "indexed": true,
          "internalType": "address",
          "name": "whitelistedContract",
          "type": "address"
        },
        {
          "indexed": false,
          "internalType": "uint256",
          "name": "amount",
          "type": "uint256"
        }
      ],
      "name": "ReturnedSFuel",
      "type": "event"
    },
    {
      "anonymous": false,
      "inputs": [
        {
          "indexed": true,
          "internalType": "bytes32",
          "name": "role",
          "type": "bytes32"
        },
        {
          "indexed": true,
          "internalType": "bytes32",
          "name": "previousAdminRole",
          "type": "bytes32"
        },
        {
          "indexed": true,
          "internalType": "bytes32",
          "name": "newAdminRole",
          "type": "bytes32"
        }
      ],
      "name": "RoleAdminChanged",
      "type": "event"
    },
    {
      "anonymous": false,
      "inputs": [
        {
          "indexed": true,
          "internalType": "address",
          "name": "reciever",
          "type": "address"
        },
        {
          "indexed": true,
          "internalType": "address",
          "name": "caller",
          "type": "address"
        },
        {
          "indexed": true,
          "internalType": "bytes32",
          "name": "role",
          "type": "bytes32"
        }
      ],
      "name": "RoleGranted",
      "type": "event"
    },
    {
      "anonymous": false,
      "inputs": [
        {
          "indexed": true,
          "internalType": "bytes32",
          "name": "role",
          "type": "bytes32"
        },
        {
          "indexed": true,
          "internalType": "address",
          "name": "account",
          "type": "address"
        },
        {
          "indexed": true,
          "internalType": "address",
          "name": "sender",
          "type": "address"
        }
      ],
      "name": "RoleGranted",
      "type": "event"
    },
    {
      "anonymous": false,
      "inputs": [
        {
          "indexed": true,
          "internalType": "address",
          "name": "removed",
          "type": "address"
        },
        {
          "indexed": true,
          "internalType": "address",
          "name": "caller",
          "type": "address"
        },
        {
          "indexed": true,
          "internalType": "bytes32",
          "name": "role",
          "type": "bytes32"
        }
      ],
      "name": "RoleRemoved",
      "type": "event"
    },
    {
      "anonymous": false,
      "inputs": [
        {
          "indexed": true,
          "internalType": "bytes32",
          "name": "role",
          "type": "bytes32"
        },
        {
          "indexed": true,
          "internalType": "address",
          "name": "account",
          "type": "address"
        },
        {
          "indexed": true,
          "internalType": "address",
          "name": "sender",
          "type": "address"
        }
      ],
      "name": "RoleRevoked",
      "type": "event"
    },
    {
      "stateMutability": "payable",
      "type": "fallback"
    },
    {
      "inputs": [],
      "name": "ACTIVE_MANAGER_ROLE",
      "outputs": [
        {
          "internalType": "bytes32",
          "name": "",
          "type": "bytes32"
        }
      ],
      "stateMutability": "view",
      "type": "function"
    },
    {
      "inputs": [],
      "name": "CONTRACT_MANAGER_ROLE",
      "outputs": [
        {
          "internalType": "bytes32",
          "name": "",
          "type": "bytes32"
        }
      ],
      "stateMutability": "view",
      "type": "function"
    },
    {
      "inputs": [],
      "name": "DEFAULT_ADMIN_ROLE",
      "outputs": [
        {
          "internalType": "bytes32",
          "name": "",
          "type": "bytes32"
        }
      ],
      "stateMutability": "view",
      "type": "function"
    },
    {
      "inputs": [],
      "name": "IS_WHITELISTED_CONTRACT",
      "outputs": [
        {
          "internalType": "bytes32",
          "name": "",
          "type": "bytes32"
        }
      ],
      "stateMutability": "view",
      "type": "function"
    },
    {
      "inputs": [],
      "name": "WHITELIST_MANAGER_ROLE",
      "outputs": [
        {
          "internalType": "bytes32",
          "name": "",
          "type": "bytes32"
        }
      ],
      "stateMutability": "view",
      "type": "function"
    },
    {
      "inputs": [],
      "name": "fillContract",
      "outputs": [],
      "stateMutability": "nonpayable",
      "type": "function"
    },
    {
      "inputs": [],
      "name": "getBalance",
      "outputs": [
        {
          "internalType": "uint256",
          "name": "",
          "type": "uint256"
        }
      ],
      "stateMutability": "view",
      "type": "function"
    },
    {
      "inputs": [],
      "name": "getContractBalance",
      "outputs": [
        {
          "internalType": "uint256",
          "name": "",
          "type": "uint256"
        }
      ],
      "stateMutability": "view",
      "type": "function"
    },
    {
      "inputs": [
        {
          "internalType": "bytes32",
          "name": "role",
          "type": "bytes32"
        }
      ],
      "name": "getRoleAdmin",
      "outputs": [
        {
          "internalType": "bytes32",
          "name": "",
          "type": "bytes32"
        }
      ],
      "stateMutability": "view",
      "type": "function"
    },
    {
      "inputs": [
        {
          "internalType": "bytes32",
          "name": "role",
          "type": "bytes32"
        },
        {
          "internalType": "uint256",
          "name": "index",
          "type": "uint256"
        }
      ],
      "name": "getRoleMember",
      "outputs": [
        {
          "internalType": "address",
          "name": "",
          "type": "address"
        }
      ],
      "stateMutability": "view",
      "type": "function"
    },
    {
      "inputs": [
        {
          "internalType": "bytes32",
          "name": "role",
          "type": "bytes32"
        }
      ],
      "name": "getRoleMemberCount",
      "outputs": [
        {
          "internalType": "uint256",
          "name": "",
          "type": "uint256"
        }
      ],
      "stateMutability": "view",
      "type": "function"
    },
    {
      "inputs": [
        {
          "internalType": "bytes32",
          "name": "role",
          "type": "bytes32"
        },
        {
          "internalType": "address",
          "name": "account",
          "type": "address"
        }
      ],
      "name": "grantRole",
      "outputs": [],
      "stateMutability": "nonpayable",
      "type": "function"
    },
    {
      "inputs": [
        {
          "internalType": "bytes32",
          "name": "role",
          "type": "bytes32"
        },
        {
          "internalType": "address",
          "name": "account",
          "type": "address"
        }
      ],
      "name": "hasRole",
      "outputs": [
        {
          "internalType": "bool",
          "name": "",
          "type": "bool"
        }
      ],
      "stateMutability": "view",
      "type": "function"
    },
    {
      "inputs": [],
      "name": "initialize",
      "outputs": [],
      "stateMutability": "nonpayable",
      "type": "function"
    },
    {
      "inputs": [
        {
          "internalType": "bytes32",
          "name": "role",
          "type": "bytes32"
        },
        {
          "internalType": "address",
          "name": "account",
          "type": "address"
        }
      ],
      "name": "renounceRole",
      "outputs": [],
      "stateMutability": "nonpayable",
      "type": "function"
    },
    {
      "inputs": [
        {
          "internalType": "address payable",
          "name": "_retriever",
          "type": "address"
        }
      ],
      "name": "retrieveSFuel",
      "outputs": [],
      "stateMutability": "nonpayable",
      "type": "function"
    },
    {
      "inputs": [
        {
          "internalType": "bytes32",
          "name": "role",
          "type": "bytes32"
        },
        {
          "internalType": "address",
          "name": "account",
          "type": "address"
        }
      ],
      "name": "revokeRole",
      "outputs": [],
      "stateMutability": "nonpayable",
      "type": "function"
    },
    {
      "inputs": [
        {
          "internalType": "bytes4",
          "name": "interfaceId",
          "type": "bytes4"
        }
      ],
      "name": "supportsInterface",
      "outputs": [
        {
          "internalType": "bool",
          "name": "",
          "type": "bool"
        }
      ],
      "stateMutability": "view",
      "type": "function"
    },
    {
      "stateMutability": "payable",
      "type": "receive"
    }
  ],
  "bytecode": "0x608060405234801561001057600080fd5b5061231a806100206000396000f3fe60806040526004361061010d5760003560e01c80636f9fb98a1161009557806391d148541161006457806391d14854146103f35780639d28b50614610430578063a217fddf1461045b578063ca15c87314610486578063d547741f146104c357610162565b80636f9fb98a146103495780637295ed93146103745780638129fc1c1461039f5780639010d07c146103b657610162565b8063248a9ca3116100dc578063248a9ca3146102665780632f2ff15d146102a357806336568abe146102cc5780633eb5938a146102f55780635f7f46321461031e57610162565b806301ffc9a7146101bc57806312065fe0146101f9578063131c53d914610224578063215ac4be1461024f57610162565b36610162573373ffffffffffffffffffffffffffffffffffffffff167fa58b71ad2e6ce803dd1eec62e2f3717a164a8912ee33eb51a57a234ba56b55353460405161015891906117d3565b60405180910390a2005b60003411156101ba573373ffffffffffffffffffffffffffffffffffffffff167fa58b71ad2e6ce803dd1eec62e2f3717a164a8912ee33eb51a57a234ba56b5535346040516101b191906117d3565b60405180910390a25b005b3480156101c857600080fd5b506101e360048036038101906101de919061184b565b6104ec565b6040516101f09190611893565b60405180910390f35b34801561020557600080fd5b5061020e610566565b60405161021b91906117d3565b60405180910390f35b34801561023057600080fd5b50610239610585565b60405161024691906118c7565b60405180910390f35b34801561025b57600080fd5b506102646105a9565b005b34801561027257600080fd5b5061028d6004803603810190610288919061190e565b61078e565b60405161029a91906118c7565b60405180910390f35b3480156102af57600080fd5b506102ca60048036038101906102c59190611999565b6107ae565b005b3480156102d857600080fd5b506102f360048036038101906102ee9190611999565b6107cf565b005b34801561030157600080fd5b5061031c60048036038101906103179190611a17565b610852565b005b34801561032a57600080fd5b50610333610aa6565b60405161034091906118c7565b60405180910390f35b34801561035557600080fd5b5061035e610aca565b60405161036b91906117d3565b60405180910390f35b34801561038057600080fd5b50610389610ad2565b60405161039691906118c7565b60405180910390f35b3480156103ab57600080fd5b506103b4610af6565b005b3480156103c257600080fd5b506103dd60048036038101906103d89190611a70565b610c45565b6040516103ea9190611abf565b60405180910390f35b3480156103ff57600080fd5b5061041a60048036038101906104159190611999565b610c74565b6040516104279190611893565b60405180910390f35b34801561043c57600080fd5b50610445610cdf565b60405161045291906118c7565b60405180910390f35b34801561046757600080fd5b50610470610d03565b60405161047d91906118c7565b60405180910390f35b34801561049257600080fd5b506104ad60048036038101906104a8919061190e565b610d0a565b6040516104ba91906117d3565b60405180910390f35b3480156104cf57600080fd5b506104ea60048036038101906104e59190611999565b610d2e565b005b60007f5a05180f000000000000000000000000000000000000000000000000000000007bffffffffffffffffffffffffffffffffffffffffffffffffffffffff1916827bffffffffffffffffffffffffffffffffffffffffffffffffffffffff1916148061055f575061055e82610d4f565b5b9050919050565b60003373ffffffffffffffffffffffffffffffffffffffff1631905090565b7faa35297b265f70e7864cdb6b468dec7c6b363aa63d0fb01919c66f6548a9ff2781565b60cb60009054906101000a900460ff16156105f9576040517f08c379a00000000000000000000000000000000000000000000000000000000081526004016105f090611b37565b60405180910390fd5b6106237f8135f02737a6b32709c1f229001b55183df0d6abcb3022e8bae091ad43fd9e6d33610c74565b610662576040517f08c379a000000000000000000000000000000000000000000000000000000000815260040161065990611ba3565b60405180910390fd5b600061066d30610dc9565b9050600061067a82610dea565b9050610684610e01565b73ffffffffffffffffffffffffffffffffffffffff1663204a3e9330836040518363ffffffff1660e01b81526004016106be929190611bd2565b600060405180830381600087803b1580156106d857600080fd5b505af11580156106ec573d6000803e3d6000fd5b5050505060ca546106fc30610dc9565b1461073c576040517f08c379a000000000000000000000000000000000000000000000000000000000815260040161073390611c47565b60405180910390fd5b3373ffffffffffffffffffffffffffffffffffffffff167f2d6e436d93e4e3143f5d97f5786f48e9736d037972d20e408bb1aa2284bf6c0f8260405161078291906117d3565b60405180910390a25050565b600060656000838152602001908152602001600020600101549050919050565b6107b78261078e565b6107c081610e10565b6107ca8383610e24565b505050565b6107d7610e58565b73ffffffffffffffffffffffffffffffffffffffff168173ffffffffffffffffffffffffffffffffffffffff1614610844576040517f08c379a000000000000000000000000000000000000000000000000000000000815260040161083b90611cd9565b60405180910390fd5b61084e8282610e60565b5050565b60cb60009054906101000a900460ff16156108a2576040517f08c379a000000000000000000000000000000000000000000000000000000000815260040161089990611b37565b60405180910390fd5b6108cc7f5ce17f380ca23160a7c5ce147cd0292497d6246fba3530e88f1c6691cf3ce20633610c74565b61090b576040517f08c379a000000000000000000000000000000000000000000000000000000000815260040161090290611d45565b60405180910390fd5b600061091682610dc9565b905060c9548110156109dd57600061092d82610e94565b90508273ffffffffffffffffffffffffffffffffffffffff166108fc829081150290604051600060405180830381858888f19350505050158015610975573d6000803e3d6000fd5b503373ffffffffffffffffffffffffffffffffffffffff168373ffffffffffffffffffffffffffffffffffffffff167f3bd6ed6e41c189d37b6c3d633df447b94748e1f0c01a702e6314df17bbf40d7c836040516109d391906117d3565b60405180910390a3505b60c954811115610aa25760006109f282610eab565b90503073ffffffffffffffffffffffffffffffffffffffff166108fc829081150290604051600060405180830381858888f19350505050158015610a3a573d6000803e3d6000fd5b503373ffffffffffffffffffffffffffffffffffffffff168373ffffffffffffffffffffffffffffffffffffffff167fe2e1e9320a5cf37a72fa3c59ac904c2a23148e09a48a23767a487f806157f2df83604051610a9891906117d3565b60405180910390a3505b5050565b7f5ce17f380ca23160a7c5ce147cd0292497d6246fba3530e88f1c6691cf3ce20681565b600047905090565b7f2a3dab589bcc9747970dd85ac3f222668741ae51f2a1bbb8f8355be28dd8a86881565b6000610b026001610ec2565b90508015610b26576001600060016101000a81548160ff0219169083151502179055505b610b2e610fb2565b610b587f2a3dab589bcc9747970dd85ac3f222668741ae51f2a1bbb8f8355be28dd8a86833610e24565b610b827f8135f02737a6b32709c1f229001b55183df0d6abcb3022e8bae091ad43fd9e6d33610e24565b610bac7faa35297b265f70e7864cdb6b468dec7c6b363aa63d0fb01919c66f6548a9ff2733610e24565b633b9aca0060c981905550620f424060c954610bc89190611d94565b60ca81905550600060cb60006101000a81548160ff0219169083151502179055508015610c425760008060016101000a81548160ff0219169083151502179055507f7f26b83ff96e1f2b6a682f133852f6798a09c465da95921460cefb38474024986001604051610c399190611e40565b60405180910390a15b50565b6000610c6c826097600086815260200190815260200160002061100390919063ffffffff16565b905092915050565b60006065600084815260200190815260200160002060000160008373ffffffffffffffffffffffffffffffffffffffff1673ffffffffffffffffffffffffffffffffffffffff16815260200190815260200160002060009054906101000a900460ff16905092915050565b7f8135f02737a6b32709c1f229001b55183df0d6abcb3022e8bae091ad43fd9e6d81565b6000801b81565b6000610d276097600084815260200190815260200160002061101d565b9050919050565b610d378261078e565b610d4081610e10565b610d4a8383610e60565b505050565b60007f7965db0b000000000000000000000000000000000000000000000000000000007bffffffffffffffffffffffffffffffffffffffffffffffffffffffff1916827bffffffffffffffffffffffffffffffffffffffffffffffffffffffff19161480610dc25750610dc182611032565b5b9050919050565b60008173ffffffffffffffffffffffffffffffffffffffff16319050919050565b60008160ca54610dfa9190611e5b565b9050919050565b6000610e0b61109c565b905090565b610e2181610e1c610e58565b6110b8565b50565b610e2e8282611155565b610e53816097600085815260200190815260200160002061123690919063ffffffff16565b505050565b600033905090565b610e6a8282611266565b610e8f816097600085815260200190815260200160002061134890919063ffffffff16565b505050565b60008160c954610ea49190611e5b565b9050919050565b600060c95482610ebb9190611e5b565b9050919050565b60008060019054906101000a900460ff1615610f395760018260ff16148015610ef15750610eef30611378565b155b610f30576040517f08c379a0000000000000000000000000000000000000000000000000000000008152600401610f2790611f01565b60405180910390fd5b60009050610fad565b8160ff1660008054906101000a900460ff1660ff1610610f8e576040517f08c379a0000000000000000000000000000000000000000000000000000000008152600401610f8590611f01565b60405180910390fd5b816000806101000a81548160ff021916908360ff160217905550600190505b919050565b600060019054906101000a900460ff16611001576040517f08c379a0000000000000000000000000000000000000000000000000000000008152600401610ff890611f93565b60405180910390fd5b565b6000611012836000018361139b565b60001c905092915050565b600061102b826000016113c6565b9050919050565b60007f01ffc9a7000000000000000000000000000000000000000000000000000000007bffffffffffffffffffffffffffffffffffffffffffffffffffffffff1916827bffffffffffffffffffffffffffffffffffffffffffffffffffffffff1916149050919050565b600073d2ba3e0000000000000000000000000000000000905090565b6110c28282610c74565b611151576110e78173ffffffffffffffffffffffffffffffffffffffff1660146113d7565b6110f58360001c60206113d7565b6040516020016111069291906120c5565b6040516020818303038152906040526040517f08c379a00000000000000000000000000000000000000000000000000000000081526004016111489190612149565b60405180910390fd5b5050565b61115f8282610c74565b6112325760016065600084815260200190815260200160002060000160008373ffffffffffffffffffffffffffffffffffffffff1673ffffffffffffffffffffffffffffffffffffffff16815260200190815260200160002060006101000a81548160ff0219169083151502179055506111d7610e58565b73ffffffffffffffffffffffffffffffffffffffff168173ffffffffffffffffffffffffffffffffffffffff16837f2f8788117e7eff1d82e926ec794901d17c78024a50270940304540a733656f0d60405160405180910390a45b5050565b600061125e836000018373ffffffffffffffffffffffffffffffffffffffff1660001b611613565b905092915050565b6112708282610c74565b156113445760006065600084815260200190815260200160002060000160008373ffffffffffffffffffffffffffffffffffffffff1673ffffffffffffffffffffffffffffffffffffffff16815260200190815260200160002060006101000a81548160ff0219169083151502179055506112e9610e58565b73ffffffffffffffffffffffffffffffffffffffff168173ffffffffffffffffffffffffffffffffffffffff16837ff6391f5c32d9c69d2a47ea670b442974b53935d1edc7fd64eb21e047a839171b60405160405180910390a45b5050565b6000611370836000018373ffffffffffffffffffffffffffffffffffffffff1660001b611683565b905092915050565b6000808273ffffffffffffffffffffffffffffffffffffffff163b119050919050565b60008260000182815481106113b3576113b261216b565b5b9060005260206000200154905092915050565b600081600001805490509050919050565b6060600060028360026113ea9190611d94565b6113f4919061219a565b67ffffffffffffffff81111561140d5761140c6121f0565b5b6040519080825280601f01601f19166020018201604052801561143f5781602001600182028036833780820191505090505b5090507f3000000000000000000000000000000000000000000000000000000000000000816000815181106114775761147661216b565b5b60200101907effffffffffffffffffffffffffffffffffffffffffffffffffffffffffffff1916908160001a9053507f7800000000000000000000000000000000000000000000000000000000000000816001815181106114db576114da61216b565b5b60200101907effffffffffffffffffffffffffffffffffffffffffffffffffffffffffffff1916908160001a9053506000600184600261151b9190611d94565b611525919061219a565b90505b60018111156115c5577f3031323334353637383961626364656600000000000000000000000000000000600f8616601081106115675761156661216b565b5b1a60f81b82828151811061157e5761157d61216b565b5b60200101907effffffffffffffffffffffffffffffffffffffffffffffffffffffffffffff1916908160001a905350600485901c9450806115be9061221f565b9050611528565b5060008414611609576040517f08c379a000000000000000000000000000000000000000000000000000000000815260040161160090612295565b60405180910390fd5b8091505092915050565b600061161f8383611797565b61167857826000018290806001815401808255809150506001900390600052602060002001600090919091909150558260000180549050836001016000848152602001908152602001600020819055506001905061167d565b600090505b92915050565b6000808360010160008481526020019081526020016000205490506000811461178b5760006001826116b59190611e5b565b90506000600186600001805490506116cd9190611e5b565b905081811461173c5760008660000182815481106116ee576116ed61216b565b5b90600052602060002001549050808760000184815481106117125761171161216b565b5b90600052602060002001819055508387600101600083815260200190815260200160002081905550505b856000018054806117505761174f6122b5565b5b600190038181906000526020600020016000905590558560010160008681526020019081526020016000206000905560019350505050611791565b60009150505b92915050565b600080836001016000848152602001908152602001600020541415905092915050565b6000819050919050565b6117cd816117ba565b82525050565b60006020820190506117e860008301846117c4565b92915050565b600080fd5b60007fffffffff0000000000000000000000000000000000000000000000000000000082169050919050565b611828816117f3565b811461183357600080fd5b50565b6000813590506118458161181f565b92915050565b600060208284031215611861576118606117ee565b5b600061186f84828501611836565b91505092915050565b60008115159050919050565b61188d81611878565b82525050565b60006020820190506118a86000830184611884565b92915050565b6000819050919050565b6118c1816118ae565b82525050565b60006020820190506118dc60008301846118b8565b92915050565b6118eb816118ae565b81146118f657600080fd5b50565b600081359050611908816118e2565b92915050565b600060208284031215611924576119236117ee565b5b6000611932848285016118f9565b91505092915050565b600073ffffffffffffffffffffffffffffffffffffffff82169050919050565b60006119668261193b565b9050919050565b6119768161195b565b811461198157600080fd5b50565b6000813590506119938161196d565b92915050565b600080604083850312156119b0576119af6117ee565b5b60006119be858286016118f9565b92505060206119cf85828601611984565b9150509250929050565b60006119e48261193b565b9050919050565b6119f4816119d9565b81146119ff57600080fd5b50565b600081359050611a11816119eb565b92915050565b600060208284031215611a2d57611a2c6117ee565b5b6000611a3b84828501611a02565b91505092915050565b611a4d816117ba565b8114611a5857600080fd5b50565b600081359050611a6a81611a44565b92915050565b60008060408385031215611a8757611a866117ee565b5b6000611a95858286016118f9565b9250506020611aa685828601611a5b565b9150509250929050565b611ab98161195b565b82525050565b6000602082019050611ad46000830184611ab0565b92915050565b600082825260208201905092915050565b7f436f6e7472616374206973205061757365640000000000000000000000000000600082015250565b6000611b21601283611ada565b9150611b2c82611aeb565b602082019050919050565b60006020820190508181036000830152611b5081611b14565b9050919050565b7f434f4e54524143545f4d414e414745525f524f4c452052657175697265640000600082015250565b6000611b8d601e83611ada565b9150611b9882611b57565b602082019050919050565b60006020820190508181036000830152611bbc81611b80565b9050919050565b611bcc816119d9565b82525050565b6000604082019050611be76000830185611bc3565b611bf460208301846117c4565b9392505050565b7f4572726f722046696c6c696e6720557000000000000000000000000000000000600082015250565b6000611c31601083611ada565b9150611c3c82611bfb565b602082019050919050565b60006020820190508181036000830152611c6081611c24565b9050919050565b7f416363657373436f6e74726f6c3a2063616e206f6e6c792072656e6f756e636560008201527f20726f6c657320666f722073656c660000000000000000000000000000000000602082015250565b6000611cc3602f83611ada565b9150611cce82611c67565b604082019050919050565b60006020820190508181036000830152611cf281611cb6565b9050919050565b7f49535f57484954454c4953544544205265717569726564000000000000000000600082015250565b6000611d2f601783611ada565b9150611d3a82611cf9565b602082019050919050565b60006020820190508181036000830152611d5e81611d22565b9050919050565b7f4e487b7100000000000000000000000000000000000000000000000000000000600052601160045260246000fd5b6000611d9f826117ba565b9150611daa836117ba565b9250817fffffffffffffffffffffffffffffffffffffffffffffffffffffffffffffffff0483118215151615611de357611de2611d65565b5b828202905092915050565b6000819050919050565b600060ff82169050919050565b6000819050919050565b6000611e2a611e25611e2084611dee565b611e05565b611df8565b9050919050565b611e3a81611e0f565b82525050565b6000602082019050611e556000830184611e31565b92915050565b6000611e66826117ba565b9150611e71836117ba565b925082821015611e8457611e83611d65565b5b828203905092915050565b7f496e697469616c697a61626c653a20636f6e747261637420697320616c72656160008201527f647920696e697469616c697a6564000000000000000000000000000000000000602082015250565b6000611eeb602e83611ada565b9150611ef682611e8f565b604082019050919050565b60006020820190508181036000830152611f1a81611ede565b9050919050565b7f496e697469616c697a61626c653a20636f6e7472616374206973206e6f74206960008201527f6e697469616c697a696e67000000000000000000000000000000000000000000602082015250565b6000611f7d602b83611ada565b9150611f8882611f21565b604082019050919050565b60006020820190508181036000830152611fac81611f70565b9050919050565b600081905092915050565b7f416363657373436f6e74726f6c3a206163636f756e7420000000000000000000600082015250565b6000611ff4601783611fb3565b9150611fff82611fbe565b601782019050919050565b600081519050919050565b60005b83811015612033578082015181840152602081019050612018565b83811115612042576000848401525b50505050565b60006120538261200a565b61205d8185611fb3565b935061206d818560208601612015565b80840191505092915050565b7f206973206d697373696e6720726f6c6520000000000000000000000000000000600082015250565b60006120af601183611fb3565b91506120ba82612079565b601182019050919050565b60006120d082611fe7565b91506120dc8285612048565b91506120e7826120a2565b91506120f38284612048565b91508190509392505050565b6000601f19601f8301169050919050565b600061211b8261200a565b6121258185611ada565b9350612135818560208601612015565b61213e816120ff565b840191505092915050565b600060208201905081810360008301526121638184612110565b905092915050565b7f4e487b7100000000000000000000000000000000000000000000000000000000600052603260045260246000fd5b60006121a5826117ba565b91506121b0836117ba565b9250827fffffffffffffffffffffffffffffffffffffffffffffffffffffffffffffffff038211156121e5576121e4611d65565b5b828201905092915050565b7f4e487b7100000000000000000000000000000000000000000000000000000000600052604160045260246000fd5b600061222a826117ba565b9150600082141561223e5761223d611d65565b5b600182039050919050565b7f537472696e67733a20686578206c656e67746820696e73756666696369656e74600082015250565b600061227f602083611ada565b915061228a82612249565b602082019050919050565b600060208201905081810360008301526122ae81612272565b9050919050565b7f4e487b7100000000000000000000000000000000000000000000000000000000600052603160045260246000fdfea26469706673582212202a5978b2484904c82f5d20e422ddf4d718757c6cae3912366796b813964c07bf64736f6c63430008090033",
  "linkReferences": {},
  "deployedLinkReferences": {}
}