{
  "_format": "hh-sol-artifact-1",
  "contractName": "SFuelContractsUpgradeable",
  "sourceName": "sfuel/contracts/s_fuel/SFuelContractsUpgradeable.sol",
  "abi": [
    {
      "anonymous": false,
      "inputs": [
        {
          "indexed": true,
          "internalType": "address",
          "name": "caller",
          "type": "address"
        },
        {
          "indexed": false,
          "internalType": "uint256",
          "name": "value",
          "type": "uint256"
        }
      ],
      "name": "ContractFilled",
      "type": "event"
    },
    {
      "anonymous": false,
      "inputs": [
        {
          "indexed": true,
          "internalType": "address",
          "name": "sender",
          "type": "address"
        },
        {
          "indexed": false,
          "internalType": "uint256",
          "name": "value",
          "type": "uint256"
        }
      ],
      "name": "EtherDeposit",
      "type": "event"
    },
    {
      "anonymous": false,
      "inputs": [
        {
          "indexed": false,
          "internalType": "uint8",
          "name": "version",
          "type": "uint8"
        }
      ],
      "name": "Initialized",
      "type": "event"
    },
    {
      "anonymous": false,
      "inputs": [
        {
          "indexed": true,
          "internalType": "address",
          "name": "reciever",
          "type": "address"
        },
        {
          "indexed": true,
          "internalType": "address",
          "name": "whitelistedContract",
          "type": "address"
        },
        {
          "indexed": false,
          "internalType": "uint256",
          "name": "amount",
          "type": "uint256"
        }
      ],
      "name": "RetrievedSFuel",
      "type": "event"
    },
    {
      "anonymous": false,
      "inputs": [
        {
          "indexed": true,
          "internalType": "address",
          "name": "returner",
          "type": "address"
        },
        {
          "indexed": true,
          "internalType": "address",
          "name": "whitelistedContract",
          "type": "address"
        },
        {
          "indexed": false,
          "internalType": "uint256",
          "name": "amount",
          "type": "uint256"
        }
      ],
      "name": "ReturnedSFuel",
      "type": "event"
    },
    {
      "anonymous": false,
      "inputs": [
        {
          "indexed": true,
          "internalType": "bytes32",
          "name": "role",
          "type": "bytes32"
        },
        {
          "indexed": true,
          "internalType": "bytes32",
          "name": "previousAdminRole",
          "type": "bytes32"
        },
        {
          "indexed": true,
          "internalType": "bytes32",
          "name": "newAdminRole",
          "type": "bytes32"
        }
      ],
      "name": "RoleAdminChanged",
      "type": "event"
    },
    {
      "anonymous": false,
      "inputs": [
        {
          "indexed": true,
          "internalType": "address",
          "name": "reciever",
          "type": "address"
        },
        {
          "indexed": true,
          "internalType": "address",
          "name": "caller",
          "type": "address"
        },
        {
          "indexed": true,
          "internalType": "bytes32",
          "name": "role",
          "type": "bytes32"
        }
      ],
      "name": "RoleGranted",
      "type": "event"
    },
    {
      "anonymous": false,
      "inputs": [
        {
          "indexed": true,
          "internalType": "bytes32",
          "name": "role",
          "type": "bytes32"
        },
        {
          "indexed": true,
          "internalType": "address",
          "name": "account",
          "type": "address"
        },
        {
          "indexed": true,
          "internalType": "address",
          "name": "sender",
          "type": "address"
        }
      ],
      "name": "RoleGranted",
      "type": "event"
    },
    {
      "anonymous": false,
      "inputs": [
        {
          "indexed": true,
          "internalType": "address",
          "name": "removed",
          "type": "address"
        },
        {
          "indexed": true,
          "internalType": "address",
          "name": "caller",
          "type": "address"
        },
        {
          "indexed": true,
          "internalType": "bytes32",
          "name": "role",
          "type": "bytes32"
        }
      ],
      "name": "RoleRemoved",
      "type": "event"
    },
    {
      "anonymous": false,
      "inputs": [
        {
          "indexed": true,
          "internalType": "bytes32",
          "name": "role",
          "type": "bytes32"
        },
        {
          "indexed": true,
          "internalType": "address",
          "name": "account",
          "type": "address"
        },
        {
          "indexed": true,
          "internalType": "address",
          "name": "sender",
          "type": "address"
        }
      ],
      "name": "RoleRevoked",
      "type": "event"
    },
    {
      "stateMutability": "payable",
      "type": "fallback"
    },
    {
      "inputs": [],
      "name": "ACTIVE_MANAGER_ROLE",
      "outputs": [
        {
          "internalType": "bytes32",
          "name": "",
          "type": "bytes32"
        }
      ],
      "stateMutability": "view",
      "type": "function"
    },
    {
      "inputs": [],
      "name": "CONTRACT_MANAGER_ROLE",
      "outputs": [
        {
          "internalType": "bytes32",
          "name": "",
          "type": "bytes32"
        }
      ],
      "stateMutability": "view",
      "type": "function"
    },
    {
      "inputs": [],
      "name": "DEFAULT_ADMIN_ROLE",
      "outputs": [
        {
          "internalType": "bytes32",
          "name": "",
          "type": "bytes32"
        }
      ],
      "stateMutability": "view",
      "type": "function"
    },
    {
      "inputs": [],
      "name": "IS_WHITELISTED_CONTRACT",
      "outputs": [
        {
          "internalType": "bytes32",
          "name": "",
          "type": "bytes32"
        }
      ],
      "stateMutability": "view",
      "type": "function"
    },
    {
      "inputs": [],
      "name": "WHITELIST_MANAGER_ROLE",
      "outputs": [
        {
          "internalType": "bytes32",
          "name": "",
          "type": "bytes32"
        }
      ],
      "stateMutability": "view",
      "type": "function"
    },
    {
      "inputs": [],
      "name": "fillContract",
      "outputs": [],
      "stateMutability": "nonpayable",
      "type": "function"
    },
    {
      "inputs": [],
      "name": "getBalance",
      "outputs": [
        {
          "internalType": "uint256",
          "name": "",
          "type": "uint256"
        }
      ],
      "stateMutability": "view",
      "type": "function"
    },
    {
      "inputs": [],
      "name": "getContractBalance",
      "outputs": [
        {
          "internalType": "uint256",
          "name": "",
          "type": "uint256"
        }
      ],
      "stateMutability": "view",
      "type": "function"
    },
    {
      "inputs": [
        {
          "internalType": "bytes32",
          "name": "role",
          "type": "bytes32"
        }
      ],
      "name": "getRoleAdmin",
      "outputs": [
        {
          "internalType": "bytes32",
          "name": "",
          "type": "bytes32"
        }
      ],
      "stateMutability": "view",
      "type": "function"
    },
    {
      "inputs": [
        {
          "internalType": "bytes32",
          "name": "role",
          "type": "bytes32"
        },
        {
          "internalType": "uint256",
          "name": "index",
          "type": "uint256"
        }
      ],
      "name": "getRoleMember",
      "outputs": [
        {
          "internalType": "address",
          "name": "",
          "type": "address"
        }
      ],
      "stateMutability": "view",
      "type": "function"
    },
    {
      "inputs": [
        {
          "internalType": "bytes32",
          "name": "role",
          "type": "bytes32"
        }
      ],
      "name": "getRoleMemberCount",
      "outputs": [
        {
          "internalType": "uint256",
          "name": "",
          "type": "uint256"
        }
      ],
      "stateMutability": "view",
      "type": "function"
    },
    {
      "inputs": [
        {
          "internalType": "bytes32",
          "name": "role",
          "type": "bytes32"
        },
        {
          "internalType": "address",
          "name": "account",
          "type": "address"
        }
      ],
      "name": "grantRole",
      "outputs": [],
      "stateMutability": "nonpayable",
      "type": "function"
    },
    {
      "inputs": [
        {
          "internalType": "bytes32",
          "name": "role",
          "type": "bytes32"
        },
        {
          "internalType": "address",
          "name": "account",
          "type": "address"
        }
      ],
      "name": "hasRole",
      "outputs": [
        {
          "internalType": "bool",
          "name": "",
          "type": "bool"
        }
      ],
      "stateMutability": "view",
      "type": "function"
    },
    {
      "inputs": [],
      "name": "initialize",
      "outputs": [],
      "stateMutability": "nonpayable",
      "type": "function"
    },
    {
      "inputs": [
        {
          "internalType": "bytes32",
          "name": "role",
          "type": "bytes32"
        },
        {
          "internalType": "address",
          "name": "account",
          "type": "address"
        }
      ],
      "name": "renounceRole",
      "outputs": [],
      "stateMutability": "nonpayable",
      "type": "function"
    },
    {
      "inputs": [
        {
          "internalType": "address payable",
          "name": "_retriever",
          "type": "address"
        }
      ],
      "name": "retrieveSFuel",
      "outputs": [],
      "stateMutability": "nonpayable",
      "type": "function"
    },
    {
      "inputs": [
        {
          "internalType": "bytes32",
          "name": "role",
          "type": "bytes32"
        },
        {
          "internalType": "address",
          "name": "account",
          "type": "address"
        }
      ],
      "name": "revokeRole",
      "outputs": [],
      "stateMutability": "nonpayable",
      "type": "function"
    },
    {
      "inputs": [
        {
          "internalType": "bytes4",
          "name": "interfaceId",
          "type": "bytes4"
        }
      ],
      "name": "supportsInterface",
      "outputs": [
        {
          "internalType": "bool",
          "name": "",
          "type": "bool"
        }
      ],
      "stateMutability": "view",
      "type": "function"
    },
    {
      "stateMutability": "payable",
      "type": "receive"
    }
  ],
  "bytecode": "0x608060405234801561001057600080fd5b5061222f806100206000396000f3fe60806040526004361061010d5760003560e01c80636f9fb98a1161009557806391d148541161006457806391d14854146103f35780639d28b50614610430578063a217fddf1461045b578063ca15c87314610486578063d547741f146104c357610162565b80636f9fb98a146103495780637295ed93146103745780638129fc1c1461039f5780639010d07c146103b657610162565b8063248a9ca3116100dc578063248a9ca3146102665780632f2ff15d146102a357806336568abe146102cc5780633eb5938a146102f55780635f7f46321461031e57610162565b806301ffc9a7146101bc57806312065fe0146101f9578063131c53d914610224578063215ac4be1461024f57610162565b36610162573373ffffffffffffffffffffffffffffffffffffffff167fa58b71ad2e6ce803dd1eec62e2f3717a164a8912ee33eb51a57a234ba56b553534604051610158919061177a565b60405180910390a2005b60003411156101ba573373ffffffffffffffffffffffffffffffffffffffff167fa58b71ad2e6ce803dd1eec62e2f3717a164a8912ee33eb51a57a234ba56b5535346040516101b1919061177a565b60405180910390a25b005b3480156101c857600080fd5b506101e360048036038101906101de91906117f2565b6104ec565b6040516101f0919061183a565b60405180910390f35b34801561020557600080fd5b5061020e610566565b60405161021b919061177a565b60405180910390f35b34801561023057600080fd5b50610239610585565b604051610246919061186e565b60405180910390f35b34801561025b57600080fd5b506102646105a9565b005b34801561027257600080fd5b5061028d600480360381019061028891906118b5565b61078e565b60405161029a919061186e565b60405180910390f35b3480156102af57600080fd5b506102ca60048036038101906102c59190611940565b6107ae565b005b3480156102d857600080fd5b506102f360048036038101906102ee9190611940565b6107cf565b005b34801561030157600080fd5b5061031c600480360381019061031791906119be565b610852565b005b34801561032a57600080fd5b50610333610aa6565b604051610340919061186e565b60405180910390f35b34801561035557600080fd5b5061035e610aca565b60405161036b919061177a565b60405180910390f35b34801561038057600080fd5b50610389610ad2565b604051610396919061186e565b60405180910390f35b3480156103ab57600080fd5b506103b4610af6565b005b3480156103c257600080fd5b506103dd60048036038101906103d89190611a17565b610c3d565b6040516103ea9190611a66565b60405180910390f35b3480156103ff57600080fd5b5061041a60048036038101906104159190611940565b610c6c565b604051610427919061183a565b60405180910390f35b34801561043c57600080fd5b50610445610cd7565b604051610452919061186e565b60405180910390f35b34801561046757600080fd5b50610470610cfb565b60405161047d919061186e565b60405180910390f35b34801561049257600080fd5b506104ad60048036038101906104a891906118b5565b610d02565b6040516104ba919061177a565b60405180910390f35b3480156104cf57600080fd5b506104ea60048036038101906104e59190611940565b610d26565b005b60007f5a05180f000000000000000000000000000000000000000000000000000000007bffffffffffffffffffffffffffffffffffffffffffffffffffffffff1916827bffffffffffffffffffffffffffffffffffffffffffffffffffffffff1916148061055f575061055e82610d47565b5b9050919050565b60003373ffffffffffffffffffffffffffffffffffffffff1631905090565b7faa35297b265f70e7864cdb6b468dec7c6b363aa63d0fb01919c66f6548a9ff2781565b60cb60009054906101000a900460ff16156105f9576040517f08c379a00000000000000000000000000000000000000000000000000000000081526004016105f090611ade565b60405180910390fd5b6106237f8135f02737a6b32709c1f229001b55183df0d6abcb3022e8bae091ad43fd9e6d33610c6c565b610662576040517f08c379a000000000000000000000000000000000000000000000000000000000815260040161065990611b4a565b60405180910390fd5b600061066d30610dc1565b9050600061067a82610de2565b9050610684610df9565b73ffffffffffffffffffffffffffffffffffffffff1663204a3e9330836040518363ffffffff1660e01b81526004016106be929190611b79565b600060405180830381600087803b1580156106d857600080fd5b505af11580156106ec573d6000803e3d6000fd5b5050505060ca546106fc30610dc1565b1461073c576040517f08c379a000000000000000000000000000000000000000000000000000000000815260040161073390611bee565b60405180910390fd5b3373ffffffffffffffffffffffffffffffffffffffff167f2d6e436d93e4e3143f5d97f5786f48e9736d037972d20e408bb1aa2284bf6c0f82604051610782919061177a565b60405180910390a25050565b600060656000838152602001908152602001600020600101549050919050565b6107b78261078e565b6107c081610e08565b6107ca8383610e1c565b505050565b6107d7610e50565b73ffffffffffffffffffffffffffffffffffffffff168173ffffffffffffffffffffffffffffffffffffffff1614610844576040517f08c379a000000000000000000000000000000000000000000000000000000000815260040161083b90611c80565b60405180910390fd5b61084e8282610e58565b5050565b60cb60009054906101000a900460ff16156108a2576040517f08c379a000000000000000000000000000000000000000000000000000000000815260040161089990611ade565b60405180910390fd5b6108cc7f5ce17f380ca23160a7c5ce147cd0292497d6246fba3530e88f1c6691cf3ce20633610c6c565b61090b576040517f08c379a000000000000000000000000000000000000000000000000000000000815260040161090290611cec565b60405180910390fd5b600061091682610dc1565b905060c9548110156109dd57600061092d82610e8c565b90508273ffffffffffffffffffffffffffffffffffffffff166108fc829081150290604051600060405180830381858888f19350505050158015610975573d6000803e3d6000fd5b503373ffffffffffffffffffffffffffffffffffffffff168373ffffffffffffffffffffffffffffffffffffffff167f3bd6ed6e41c189d37b6c3d633df447b94748e1f0c01a702e6314df17bbf40d7c836040516109d3919061177a565b60405180910390a3505b60c954811115610aa25760006109f282610ea3565b90503073ffffffffffffffffffffffffffffffffffffffff166108fc829081150290604051600060405180830381858888f19350505050158015610a3a573d6000803e3d6000fd5b503373ffffffffffffffffffffffffffffffffffffffff168373ffffffffffffffffffffffffffffffffffffffff167fe2e1e9320a5cf37a72fa3c59ac904c2a23148e09a48a23767a487f806157f2df83604051610a98919061177a565b60405180910390a3505b5050565b7f5ce17f380ca23160a7c5ce147cd0292497d6246fba3530e88f1c6691cf3ce20681565b600047905090565b7f2a3dab589bcc9747970dd85ac3f222668741ae51f2a1bbb8f8355be28dd8a86881565b6000610b026001610eba565b90508015610b26576001600060016101000a81548160ff0219169083151502179055505b610b507f2a3dab589bcc9747970dd85ac3f222668741ae51f2a1bbb8f8355be28dd8a86833610e1c565b610b7a7f8135f02737a6b32709c1f229001b55183df0d6abcb3022e8bae091ad43fd9e6d33610e1c565b610ba47faa35297b265f70e7864cdb6b468dec7c6b363aa63d0fb01919c66f6548a9ff2733610e1c565b633b9aca0060c981905550620f424060c954610bc09190611d3b565b60ca81905550600060cb60006101000a81548160ff0219169083151502179055508015610c3a5760008060016101000a81548160ff0219169083151502179055507f7f26b83ff96e1f2b6a682f133852f6798a09c465da95921460cefb38474024986001604051610c319190611de7565b60405180910390a15b50565b6000610c648260976000868152602001908152602001600020610faa90919063ffffffff16565b905092915050565b60006065600084815260200190815260200160002060000160008373ffffffffffffffffffffffffffffffffffffffff1673ffffffffffffffffffffffffffffffffffffffff16815260200190815260200160002060009054906101000a900460ff16905092915050565b7f8135f02737a6b32709c1f229001b55183df0d6abcb3022e8bae091ad43fd9e6d81565b6000801b81565b6000610d1f60976000848152602001908152602001600020610fc4565b9050919050565b610d2f8261078e565b610d3881610e08565b610d428383610e58565b505050565b60007f7965db0b000000000000000000000000000000000000000000000000000000007bffffffffffffffffffffffffffffffffffffffffffffffffffffffff1916827bffffffffffffffffffffffffffffffffffffffffffffffffffffffff19161480610dba5750610db982610fd9565b5b9050919050565b60008173ffffffffffffffffffffffffffffffffffffffff16319050919050565b60008160ca54610df29190611e02565b9050919050565b6000610e03611043565b905090565b610e1981610e14610e50565b61105f565b50565b610e2682826110fc565b610e4b81609760008581526020019081526020016000206111dd90919063ffffffff16565b505050565b600033905090565b610e62828261120d565b610e8781609760008581526020019081526020016000206112ef90919063ffffffff16565b505050565b60008160c954610e9c9190611e02565b9050919050565b600060c95482610eb39190611e02565b9050919050565b60008060019054906101000a900460ff1615610f315760018260ff16148015610ee95750610ee73061131f565b155b610f28576040517f08c379a0000000000000000000000000000000000000000000000000000000008152600401610f1f90611ea8565b60405180910390fd5b60009050610fa5565b8160ff1660008054906101000a900460ff1660ff1610610f86576040517f08c379a0000000000000000000000000000000000000000000000000000000008152600401610f7d90611ea8565b60405180910390fd5b816000806101000a81548160ff021916908360ff160217905550600190505b919050565b6000610fb98360000183611342565b60001c905092915050565b6000610fd28260000161136d565b9050919050565b60007f01ffc9a7000000000000000000000000000000000000000000000000000000007bffffffffffffffffffffffffffffffffffffffffffffffffffffffff1916827bffffffffffffffffffffffffffffffffffffffffffffffffffffffff1916149050919050565b600073d2ba3e0000000000000000000000000000000000905090565b6110698282610c6c565b6110f85761108e8173ffffffffffffffffffffffffffffffffffffffff16601461137e565b61109c8360001c602061137e565b6040516020016110ad929190611fda565b6040516020818303038152906040526040517f08c379a00000000000000000000000000000000000000000000000000000000081526004016110ef919061205e565b60405180910390fd5b5050565b6111068282610c6c565b6111d95760016065600084815260200190815260200160002060000160008373ffffffffffffffffffffffffffffffffffffffff1673ffffffffffffffffffffffffffffffffffffffff16815260200190815260200160002060006101000a81548160ff02191690831515021790555061117e610e50565b73ffffffffffffffffffffffffffffffffffffffff168173ffffffffffffffffffffffffffffffffffffffff16837f2f8788117e7eff1d82e926ec794901d17c78024a50270940304540a733656f0d60405160405180910390a45b5050565b6000611205836000018373ffffffffffffffffffffffffffffffffffffffff1660001b6115ba565b905092915050565b6112178282610c6c565b156112eb5760006065600084815260200190815260200160002060000160008373ffffffffffffffffffffffffffffffffffffffff1673ffffffffffffffffffffffffffffffffffffffff16815260200190815260200160002060006101000a81548160ff021916908315150217905550611290610e50565b73ffffffffffffffffffffffffffffffffffffffff168173ffffffffffffffffffffffffffffffffffffffff16837ff6391f5c32d9c69d2a47ea670b442974b53935d1edc7fd64eb21e047a839171b60405160405180910390a45b5050565b6000611317836000018373ffffffffffffffffffffffffffffffffffffffff1660001b61162a565b905092915050565b6000808273ffffffffffffffffffffffffffffffffffffffff163b119050919050565b600082600001828154811061135a57611359612080565b5b9060005260206000200154905092915050565b600081600001805490509050919050565b6060600060028360026113919190611d3b565b61139b91906120af565b67ffffffffffffffff8111156113b4576113b3612105565b5b6040519080825280601f01601f1916602001820160405280156113e65781602001600182028036833780820191505090505b5090507f30000000000000000000000000000000000000000000000000000000000000008160008151811061141e5761141d612080565b5b60200101907effffffffffffffffffffffffffffffffffffffffffffffffffffffffffffff1916908160001a9053507f78000000000000000000000000000000000000000000000000000000000000008160018151811061148257611481612080565b5b60200101907effffffffffffffffffffffffffffffffffffffffffffffffffffffffffffff1916908160001a905350600060018460026114c29190611d3b565b6114cc91906120af565b90505b600181111561156c577f3031323334353637383961626364656600000000000000000000000000000000600f86166010811061150e5761150d612080565b5b1a60f81b82828151811061152557611524612080565b5b60200101907effffffffffffffffffffffffffffffffffffffffffffffffffffffffffffff1916908160001a905350600485901c94508061156590612134565b90506114cf565b50600084146115b0576040517f08c379a00000000000000000000000000000000000000000000000000000000081526004016115a7906121aa565b60405180910390fd5b8091505092915050565b60006115c6838361173e565b61161f578260000182908060018154018082558091505060019003906000526020600020016000909190919091505582600001805490508360010160008481526020019081526020016000208190555060019050611624565b600090505b92915050565b6000808360010160008481526020019081526020016000205490506000811461173257600060018261165c9190611e02565b90506000600186600001805490506116749190611e02565b90508181146116e357600086600001828154811061169557611694612080565b5b90600052602060002001549050808760000184815481106116b9576116b8612080565b5b90600052602060002001819055508387600101600083815260200190815260200160002081905550505b856000018054806116f7576116f66121ca565b5b600190038181906000526020600020016000905590558560010160008681526020019081526020016000206000905560019350505050611738565b60009150505b92915050565b600080836001016000848152602001908152602001600020541415905092915050565b6000819050919050565b61177481611761565b82525050565b600060208201905061178f600083018461176b565b92915050565b600080fd5b60007fffffffff0000000000000000000000000000000000000000000000000000000082169050919050565b6117cf8161179a565b81146117da57600080fd5b50565b6000813590506117ec816117c6565b92915050565b60006020828403121561180857611807611795565b5b6000611816848285016117dd565b91505092915050565b60008115159050919050565b6118348161181f565b82525050565b600060208201905061184f600083018461182b565b92915050565b6000819050919050565b61186881611855565b82525050565b6000602082019050611883600083018461185f565b92915050565b61189281611855565b811461189d57600080fd5b50565b6000813590506118af81611889565b92915050565b6000602082840312156118cb576118ca611795565b5b60006118d9848285016118a0565b91505092915050565b600073ffffffffffffffffffffffffffffffffffffffff82169050919050565b600061190d826118e2565b9050919050565b61191d81611902565b811461192857600080fd5b50565b60008135905061193a81611914565b92915050565b6000806040838503121561195757611956611795565b5b6000611965858286016118a0565b92505060206119768582860161192b565b9150509250929050565b600061198b826118e2565b9050919050565b61199b81611980565b81146119a657600080fd5b50565b6000813590506119b881611992565b92915050565b6000602082840312156119d4576119d3611795565b5b60006119e2848285016119a9565b91505092915050565b6119f481611761565b81146119ff57600080fd5b50565b600081359050611a11816119eb565b92915050565b60008060408385031215611a2e57611a2d611795565b5b6000611a3c858286016118a0565b9250506020611a4d85828601611a02565b9150509250929050565b611a6081611902565b82525050565b6000602082019050611a7b6000830184611a57565b92915050565b600082825260208201905092915050565b7f436f6e7472616374206973205061757365640000000000000000000000000000600082015250565b6000611ac8601283611a81565b9150611ad382611a92565b602082019050919050565b60006020820190508181036000830152611af781611abb565b9050919050565b7f434f4e54524143545f4d414e414745525f524f4c452052657175697265640000600082015250565b6000611b34601e83611a81565b9150611b3f82611afe565b602082019050919050565b60006020820190508181036000830152611b6381611b27565b9050919050565b611b7381611980565b82525050565b6000604082019050611b8e6000830185611b6a565b611b9b602083018461176b565b9392505050565b7f4572726f722046696c6c696e6720557000000000000000000000000000000000600082015250565b6000611bd8601083611a81565b9150611be382611ba2565b602082019050919050565b60006020820190508181036000830152611c0781611bcb565b9050919050565b7f416363657373436f6e74726f6c3a2063616e206f6e6c792072656e6f756e636560008201527f20726f6c657320666f722073656c660000000000000000000000000000000000602082015250565b6000611c6a602f83611a81565b9150611c7582611c0e565b604082019050919050565b60006020820190508181036000830152611c9981611c5d565b9050919050565b7f49535f57484954454c4953544544205265717569726564000000000000000000600082015250565b6000611cd6601783611a81565b9150611ce182611ca0565b602082019050919050565b60006020820190508181036000830152611d0581611cc9565b9050919050565b7f4e487b7100000000000000000000000000000000000000000000000000000000600052601160045260246000fd5b6000611d4682611761565b9150611d5183611761565b9250817fffffffffffffffffffffffffffffffffffffffffffffffffffffffffffffffff0483118215151615611d8a57611d89611d0c565b5b828202905092915050565b6000819050919050565b600060ff82169050919050565b6000819050919050565b6000611dd1611dcc611dc784611d95565b611dac565b611d9f565b9050919050565b611de181611db6565b82525050565b6000602082019050611dfc6000830184611dd8565b92915050565b6000611e0d82611761565b9150611e1883611761565b925082821015611e2b57611e2a611d0c565b5b828203905092915050565b7f496e697469616c697a61626c653a20636f6e747261637420697320616c72656160008201527f647920696e697469616c697a6564000000000000000000000000000000000000602082015250565b6000611e92602e83611a81565b9150611e9d82611e36565b604082019050919050565b60006020820190508181036000830152611ec181611e85565b9050919050565b600081905092915050565b7f416363657373436f6e74726f6c3a206163636f756e7420000000000000000000600082015250565b6000611f09601783611ec8565b9150611f1482611ed3565b601782019050919050565b600081519050919050565b60005b83811015611f48578082015181840152602081019050611f2d565b83811115611f57576000848401525b50505050565b6000611f6882611f1f565b611f728185611ec8565b9350611f82818560208601611f2a565b80840191505092915050565b7f206973206d697373696e6720726f6c6520000000000000000000000000000000600082015250565b6000611fc4601183611ec8565b9150611fcf82611f8e565b601182019050919050565b6000611fe582611efc565b9150611ff18285611f5d565b9150611ffc82611fb7565b91506120088284611f5d565b91508190509392505050565b6000601f19601f8301169050919050565b600061203082611f1f565b61203a8185611a81565b935061204a818560208601611f2a565b61205381612014565b840191505092915050565b600060208201905081810360008301526120788184612025565b905092915050565b7f4e487b7100000000000000000000000000000000000000000000000000000000600052603260045260246000fd5b60006120ba82611761565b91506120c583611761565b9250827fffffffffffffffffffffffffffffffffffffffffffffffffffffffffffffffff038211156120fa576120f9611d0c565b5b828201905092915050565b7f4e487b7100000000000000000000000000000000000000000000000000000000600052604160045260246000fd5b600061213f82611761565b9150600082141561215357612152611d0c565b5b600182039050919050565b7f537472696e67733a20686578206c656e67746820696e73756666696369656e74600082015250565b6000612194602083611a81565b915061219f8261215e565b602082019050919050565b600060208201905081810360008301526121c381612187565b9050919050565b7f4e487b7100000000000000000000000000000000000000000000000000000000600052603160045260246000fdfea2646970667358221220a7cad7d2dc060f0826baf13674fa40c5039d54de5e1e464cad96f74d43252cae64736f6c63430008090033",
  "linkReferences": {},
  "deployedLinkReferences": {}
}