{
  "_format": "hh-sol-artifact-1",
  "contractName": "SFuelContractsUpgradeable",
  "sourceName": "sfuel/contracts/s_fuel/SFuelContractsUpgradeable.sol",
  "abi": [
    {
      "anonymous": false,
      "inputs": [
        {
          "indexed": true,
          "internalType": "address",
          "name": "caller",
          "type": "address"
        },
        {
          "indexed": false,
          "internalType": "uint256",
          "name": "value",
          "type": "uint256"
        }
      ],
      "name": "ContractFilled",
      "type": "event"
    },
    {
      "anonymous": false,
      "inputs": [
        {
          "indexed": true,
          "internalType": "address",
          "name": "sender",
          "type": "address"
        },
        {
          "indexed": false,
          "internalType": "uint256",
          "name": "value",
          "type": "uint256"
        }
      ],
      "name": "EtherDeposit",
      "type": "event"
    },
    {
      "anonymous": false,
      "inputs": [
        {
          "indexed": false,
          "internalType": "uint8",
          "name": "version",
          "type": "uint8"
        }
      ],
      "name": "Initialized",
      "type": "event"
    },
    {
      "anonymous": false,
      "inputs": [
        {
          "indexed": true,
          "internalType": "address",
          "name": "reciever",
          "type": "address"
        },
        {
          "indexed": true,
          "internalType": "address",
          "name": "whitelistedContract",
          "type": "address"
        },
        {
          "indexed": false,
          "internalType": "uint256",
          "name": "amount",
          "type": "uint256"
        }
      ],
      "name": "RetrievedSFuel",
      "type": "event"
    },
    {
      "anonymous": false,
      "inputs": [
        {
          "indexed": true,
          "internalType": "address",
          "name": "returner",
          "type": "address"
        },
        {
          "indexed": true,
          "internalType": "address",
          "name": "whitelistedContract",
          "type": "address"
        },
        {
          "indexed": false,
          "internalType": "uint256",
          "name": "amount",
          "type": "uint256"
        }
      ],
      "name": "ReturnedSFuel",
      "type": "event"
    },
    {
      "anonymous": false,
      "inputs": [
        {
          "indexed": true,
          "internalType": "bytes32",
          "name": "role",
          "type": "bytes32"
        },
        {
          "indexed": true,
          "internalType": "bytes32",
          "name": "previousAdminRole",
          "type": "bytes32"
        },
        {
          "indexed": true,
          "internalType": "bytes32",
          "name": "newAdminRole",
          "type": "bytes32"
        }
      ],
      "name": "RoleAdminChanged",
      "type": "event"
    },
    {
      "anonymous": false,
      "inputs": [
        {
          "indexed": true,
          "internalType": "bytes32",
          "name": "role",
          "type": "bytes32"
        },
        {
          "indexed": true,
          "internalType": "address",
          "name": "account",
          "type": "address"
        },
        {
          "indexed": true,
          "internalType": "address",
          "name": "sender",
          "type": "address"
        }
      ],
      "name": "RoleGranted",
      "type": "event"
    },
    {
      "anonymous": false,
      "inputs": [
        {
          "indexed": true,
          "internalType": "bytes32",
          "name": "role",
          "type": "bytes32"
        },
        {
          "indexed": true,
          "internalType": "address",
          "name": "account",
          "type": "address"
        },
        {
          "indexed": true,
          "internalType": "address",
          "name": "sender",
          "type": "address"
        }
      ],
      "name": "RoleRevoked",
      "type": "event"
    },
    {
      "stateMutability": "payable",
      "type": "fallback"
    },
    {
      "inputs": [],
      "name": "CONTRACT_MANAGER_ROLE",
      "outputs": [
        {
          "internalType": "bytes32",
          "name": "",
          "type": "bytes32"
        }
      ],
      "stateMutability": "view",
      "type": "function"
    },
    {
      "inputs": [],
      "name": "DEFAULT_ADMIN_ROLE",
      "outputs": [
        {
          "internalType": "bytes32",
          "name": "",
          "type": "bytes32"
        }
      ],
      "stateMutability": "view",
      "type": "function"
    },
    {
      "inputs": [],
      "name": "IS_WHITELISTED_CONTRACT",
      "outputs": [
        {
          "internalType": "bytes32",
          "name": "",
          "type": "bytes32"
        }
      ],
      "stateMutability": "view",
      "type": "function"
    },
    {
      "inputs": [],
      "name": "WHITELIST_MANAGER_ROLE",
      "outputs": [
        {
          "internalType": "bytes32",
          "name": "",
          "type": "bytes32"
        }
      ],
      "stateMutability": "view",
      "type": "function"
    },
    {
      "inputs": [],
      "name": "fillContract",
      "outputs": [],
      "stateMutability": "nonpayable",
      "type": "function"
    },
    {
      "inputs": [
        {
          "internalType": "address",
          "name": "_address",
          "type": "address"
        }
      ],
      "name": "getBalance",
      "outputs": [
        {
          "internalType": "uint256",
          "name": "",
          "type": "uint256"
        }
      ],
      "stateMutability": "view",
      "type": "function"
    },
    {
      "inputs": [
        {
          "internalType": "bytes32",
          "name": "role",
          "type": "bytes32"
        }
      ],
      "name": "getRoleAdmin",
      "outputs": [
        {
          "internalType": "bytes32",
          "name": "",
          "type": "bytes32"
        }
      ],
      "stateMutability": "view",
      "type": "function"
    },
    {
      "inputs": [
        {
          "internalType": "bytes32",
          "name": "role",
          "type": "bytes32"
        },
        {
          "internalType": "uint256",
          "name": "index",
          "type": "uint256"
        }
      ],
      "name": "getRoleMember",
      "outputs": [
        {
          "internalType": "address",
          "name": "",
          "type": "address"
        }
      ],
      "stateMutability": "view",
      "type": "function"
    },
    {
      "inputs": [
        {
          "internalType": "bytes32",
          "name": "role",
          "type": "bytes32"
        }
      ],
      "name": "getRoleMemberCount",
      "outputs": [
        {
          "internalType": "uint256",
          "name": "",
          "type": "uint256"
        }
      ],
      "stateMutability": "view",
      "type": "function"
    },
    {
      "inputs": [
        {
          "internalType": "bytes32",
          "name": "role",
          "type": "bytes32"
        },
        {
          "internalType": "address",
          "name": "account",
          "type": "address"
        }
      ],
      "name": "grantRole",
      "outputs": [],
      "stateMutability": "nonpayable",
      "type": "function"
    },
    {
      "inputs": [
        {
          "internalType": "bytes32",
          "name": "role",
          "type": "bytes32"
        },
        {
          "internalType": "address",
          "name": "account",
          "type": "address"
        }
      ],
      "name": "hasRole",
      "outputs": [
        {
          "internalType": "bool",
          "name": "",
          "type": "bool"
        }
      ],
      "stateMutability": "view",
      "type": "function"
    },
    {
      "inputs": [],
      "name": "initialize",
      "outputs": [],
      "stateMutability": "nonpayable",
      "type": "function"
    },
    {
      "inputs": [
        {
          "internalType": "bytes32",
          "name": "role",
          "type": "bytes32"
        },
        {
          "internalType": "address",
          "name": "account",
          "type": "address"
        }
      ],
      "name": "renounceRole",
      "outputs": [],
      "stateMutability": "nonpayable",
      "type": "function"
    },
    {
      "inputs": [
        {
          "internalType": "address payable",
          "name": "_retriever",
          "type": "address"
        }
      ],
      "name": "retrieveSFuel",
      "outputs": [],
      "stateMutability": "payable",
      "type": "function"
    },
    {
      "inputs": [
        {
          "internalType": "bytes32",
          "name": "role",
          "type": "bytes32"
        },
        {
          "internalType": "address",
          "name": "account",
          "type": "address"
        }
      ],
      "name": "revokeRole",
      "outputs": [],
      "stateMutability": "nonpayable",
      "type": "function"
    },
    {
      "inputs": [
        {
          "internalType": "bytes4",
          "name": "interfaceId",
          "type": "bytes4"
        }
      ],
      "name": "supportsInterface",
      "outputs": [
        {
          "internalType": "bool",
          "name": "",
          "type": "bool"
        }
      ],
      "stateMutability": "view",
      "type": "function"
    },
    {
      "inputs": [],
      "name": "updateActiveState",
      "outputs": [],
      "stateMutability": "nonpayable",
      "type": "function"
    },
    {
      "stateMutability": "payable",
      "type": "receive"
    }
  ],
  "bytecode": "0x608060405234801561001057600080fd5b506122ad806100206000396000f3fe6080604052600436106101025760003560e01c80638129fc1c11610095578063a217fddf11610064578063a217fddf146103c2578063ca15c873146103ed578063ca2c16a41461042a578063d547741f14610441578063f8b2cb4f1461046a57610157565b80638129fc1c146103065780639010d07c1461031d57806391d148541461035a5780639d28b5061461039757610157565b806336568abe116100d157806336568abe1461026b5780633eb5938a146102945780635f7f4632146102b05780637295ed93146102db57610157565b806301ffc9a7146101b1578063215ac4be146101ee578063248a9ca3146102055780632f2ff15d1461024257610157565b36610157573373ffffffffffffffffffffffffffffffffffffffff167fa58b71ad2e6ce803dd1eec62e2f3717a164a8912ee33eb51a57a234ba56b55353460405161014d91906116cd565b60405180910390a2005b60003411156101af573373ffffffffffffffffffffffffffffffffffffffff167fa58b71ad2e6ce803dd1eec62e2f3717a164a8912ee33eb51a57a234ba56b5535346040516101a691906116cd565b60405180910390a25b005b3480156101bd57600080fd5b506101d860048036038101906101d39190611745565b6104a7565b6040516101e5919061178d565b60405180910390f35b3480156101fa57600080fd5b50610203610521565b005b34801561021157600080fd5b5061022c600480360381019061022791906117de565b6106c2565b604051610239919061181a565b60405180910390f35b34801561024e57600080fd5b5061026960048036038101906102649190611893565b6106e2565b005b34801561027757600080fd5b50610292600480360381019061028d9190611893565b610703565b005b6102ae60048036038101906102a99190611911565b610786565b005b3480156102bc57600080fd5b506102c561096e565b6040516102d2919061181a565b60405180910390f35b3480156102e757600080fd5b506102f0610992565b6040516102fd919061181a565b60405180910390f35b34801561031257600080fd5b5061031b6109b6565b005b34801561032957600080fd5b50610344600480360381019061033f919061196a565b610ae8565b60405161035191906119b9565b60405180910390f35b34801561036657600080fd5b50610381600480360381019061037c9190611893565b610b17565b60405161038e919061178d565b60405180910390f35b3480156103a357600080fd5b506103ac610b82565b6040516103b9919061181a565b60405180910390f35b3480156103ce57600080fd5b506103d7610ba6565b6040516103e4919061181a565b60405180910390f35b3480156103f957600080fd5b50610414600480360381019061040f91906117de565b610bad565b60405161042191906116cd565b60405180910390f35b34801561043657600080fd5b5061043f610bd1565b005b34801561044d57600080fd5b5061046860048036038101906104639190611893565b610c66565b005b34801561047657600080fd5b50610491600480360381019061048c91906119d4565b610c87565b60405161049e91906116cd565b60405180910390f35b60007f5a05180f000000000000000000000000000000000000000000000000000000007bffffffffffffffffffffffffffffffffffffffffffffffffffffffff1916827bffffffffffffffffffffffffffffffffffffffffffffffffffffffff1916148061051a575061051982610ca8565b5b9050919050565b61054b7f8135f02737a6b32709c1f229001b55183df0d6abcb3022e8bae091ad43fd9e6d33610b17565b61058a576040517f08c379a000000000000000000000000000000000000000000000000000000000815260040161058190611a5e565b60405180910390fd5b600061059530610c87565b905060006105ae8260ca54610d2290919063ffffffff16565b90506105b8610d38565b73ffffffffffffffffffffffffffffffffffffffff1663204a3e9330836040518363ffffffff1660e01b81526004016105f2929190611a8d565b600060405180830381600087803b15801561060c57600080fd5b505af1158015610620573d6000803e3d6000fd5b5050505060ca5461063030610c87565b14610670576040517f08c379a000000000000000000000000000000000000000000000000000000000815260040161066790611b02565b60405180910390fd5b3373ffffffffffffffffffffffffffffffffffffffff167f2d6e436d93e4e3143f5d97f5786f48e9736d037972d20e408bb1aa2284bf6c0f826040516106b691906116cd565b60405180910390a25050565b600060656000838152602001908152602001600020600101549050919050565b6106eb826106c2565b6106f481610d54565b6106fe8383610d68565b505050565b61070b610d9c565b73ffffffffffffffffffffffffffffffffffffffff168173ffffffffffffffffffffffffffffffffffffffff1614610778576040517f08c379a000000000000000000000000000000000000000000000000000000000815260040161076f90611b94565b60405180910390fd5b6107828282610da4565b5050565b60cb60009054906101000a900460ff16156107d6576040517f08c379a00000000000000000000000000000000000000000000000000000000081526004016107cd90611c00565b60405180910390fd5b6108007f5ce17f380ca23160a7c5ce147cd0292497d6246fba3530e88f1c6691cf3ce20633610b17565b61083f576040517f08c379a000000000000000000000000000000000000000000000000000000000815260040161083690611c6c565b60405180910390fd5b60c95461084b82610c87565b101561096b57600061087061085f83610c87565b60c954610d2290919063ffffffff16565b90508061087c30610c87565b10156108bd576040517f08c379a00000000000000000000000000000000000000000000000000000000081526004016108b490611cd8565b60405180910390fd5b8173ffffffffffffffffffffffffffffffffffffffff166108fc829081150290604051600060405180830381858888f19350505050158015610903573d6000803e3d6000fd5b503373ffffffffffffffffffffffffffffffffffffffff168273ffffffffffffffffffffffffffffffffffffffff167f3bd6ed6e41c189d37b6c3d633df447b94748e1f0c01a702e6314df17bbf40d7c8360405161096191906116cd565b60405180910390a3505b50565b7f5ce17f380ca23160a7c5ce147cd0292497d6246fba3530e88f1c6691cf3ce20681565b7f2a3dab589bcc9747970dd85ac3f222668741ae51f2a1bbb8f8355be28dd8a86881565b60006109c26001610dd8565b905080156109e6576001600060016101000a81548160ff0219169083151502179055505b6109ee610ec8565b6109fb6000801b33610d68565b610a257f2a3dab589bcc9747970dd85ac3f222668741ae51f2a1bbb8f8355be28dd8a86833610d68565b610a4f7f8135f02737a6b32709c1f229001b55183df0d6abcb3022e8bae091ad43fd9e6d33610d68565b633b9aca0060c981905550620f424060c954610a6b9190611d27565b60ca81905550600060cb60006101000a81548160ff0219169083151502179055508015610ae55760008060016101000a81548160ff0219169083151502179055507f7f26b83ff96e1f2b6a682f133852f6798a09c465da95921460cefb38474024986001604051610adc9190611dd3565b60405180910390a15b50565b6000610b0f8260976000868152602001908152602001600020610f1990919063ffffffff16565b905092915050565b60006065600084815260200190815260200160002060000160008373ffffffffffffffffffffffffffffffffffffffff1673ffffffffffffffffffffffffffffffffffffffff16815260200190815260200160002060009054906101000a900460ff16905092915050565b7f8135f02737a6b32709c1f229001b55183df0d6abcb3022e8bae091ad43fd9e6d81565b6000801b81565b6000610bca60976000848152602001908152602001600020610f33565b9050919050565b610bfb7f8135f02737a6b32709c1f229001b55183df0d6abcb3022e8bae091ad43fd9e6d33610b17565b610c3a576040517f08c379a0000000000000000000000000000000000000000000000000000000008152600401610c3190611a5e565b60405180910390fd5b60cb60009054906101000a900460ff161560cb60006101000a81548160ff021916908315150217905550565b610c6f826106c2565b610c7881610d54565b610c828383610da4565b505050565b60008173ffffffffffffffffffffffffffffffffffffffff16319050919050565b60007f7965db0b000000000000000000000000000000000000000000000000000000007bffffffffffffffffffffffffffffffffffffffffffffffffffffffff1916827bffffffffffffffffffffffffffffffffffffffffffffffffffffffff19161480610d1b5750610d1a82610f48565b5b9050919050565b60008183610d309190611dee565b905092915050565b600073d2ba3e0000000000000000000000000000000000905090565b610d6581610d60610d9c565b610fb2565b50565b610d72828261104f565b610d97816097600085815260200190815260200160002061113090919063ffffffff16565b505050565b600033905090565b610dae8282611160565b610dd3816097600085815260200190815260200160002061124290919063ffffffff16565b505050565b60008060019054906101000a900460ff1615610e4f5760018260ff16148015610e075750610e0530611272565b155b610e46576040517f08c379a0000000000000000000000000000000000000000000000000000000008152600401610e3d90611e94565b60405180910390fd5b60009050610ec3565b8160ff1660008054906101000a900460ff1660ff1610610ea4576040517f08c379a0000000000000000000000000000000000000000000000000000000008152600401610e9b90611e94565b60405180910390fd5b816000806101000a81548160ff021916908360ff160217905550600190505b919050565b600060019054906101000a900460ff16610f17576040517f08c379a0000000000000000000000000000000000000000000000000000000008152600401610f0e90611f26565b60405180910390fd5b565b6000610f288360000183611295565b60001c905092915050565b6000610f41826000016112c0565b9050919050565b60007f01ffc9a7000000000000000000000000000000000000000000000000000000007bffffffffffffffffffffffffffffffffffffffffffffffffffffffff1916827bffffffffffffffffffffffffffffffffffffffffffffffffffffffff1916149050919050565b610fbc8282610b17565b61104b57610fe18173ffffffffffffffffffffffffffffffffffffffff1660146112d1565b610fef8360001c60206112d1565b604051602001611000929190612058565b6040516020818303038152906040526040517f08c379a000000000000000000000000000000000000000000000000000000000815260040161104291906120dc565b60405180910390fd5b5050565b6110598282610b17565b61112c5760016065600084815260200190815260200160002060000160008373ffffffffffffffffffffffffffffffffffffffff1673ffffffffffffffffffffffffffffffffffffffff16815260200190815260200160002060006101000a81548160ff0219169083151502179055506110d1610d9c565b73ffffffffffffffffffffffffffffffffffffffff168173ffffffffffffffffffffffffffffffffffffffff16837f2f8788117e7eff1d82e926ec794901d17c78024a50270940304540a733656f0d60405160405180910390a45b5050565b6000611158836000018373ffffffffffffffffffffffffffffffffffffffff1660001b61150d565b905092915050565b61116a8282610b17565b1561123e5760006065600084815260200190815260200160002060000160008373ffffffffffffffffffffffffffffffffffffffff1673ffffffffffffffffffffffffffffffffffffffff16815260200190815260200160002060006101000a81548160ff0219169083151502179055506111e3610d9c565b73ffffffffffffffffffffffffffffffffffffffff168173ffffffffffffffffffffffffffffffffffffffff16837ff6391f5c32d9c69d2a47ea670b442974b53935d1edc7fd64eb21e047a839171b60405160405180910390a45b5050565b600061126a836000018373ffffffffffffffffffffffffffffffffffffffff1660001b61157d565b905092915050565b6000808273ffffffffffffffffffffffffffffffffffffffff163b119050919050565b60008260000182815481106112ad576112ac6120fe565b5b9060005260206000200154905092915050565b600081600001805490509050919050565b6060600060028360026112e49190611d27565b6112ee919061212d565b67ffffffffffffffff81111561130757611306612183565b5b6040519080825280601f01601f1916602001820160405280156113395781602001600182028036833780820191505090505b5090507f300000000000000000000000000000000000000000000000000000000000000081600081518110611371576113706120fe565b5b60200101907effffffffffffffffffffffffffffffffffffffffffffffffffffffffffffff1916908160001a9053507f7800000000000000000000000000000000000000000000000000000000000000816001815181106113d5576113d46120fe565b5b60200101907effffffffffffffffffffffffffffffffffffffffffffffffffffffffffffff1916908160001a905350600060018460026114159190611d27565b61141f919061212d565b90505b60018111156114bf577f3031323334353637383961626364656600000000000000000000000000000000600f861660108110611461576114606120fe565b5b1a60f81b828281518110611478576114776120fe565b5b60200101907effffffffffffffffffffffffffffffffffffffffffffffffffffffffffffff1916908160001a905350600485901c9450806114b8906121b2565b9050611422565b5060008414611503576040517f08c379a00000000000000000000000000000000000000000000000000000000081526004016114fa90612228565b60405180910390fd5b8091505092915050565b60006115198383611691565b611572578260000182908060018154018082558091505060019003906000526020600020016000909190919091505582600001805490508360010160008481526020019081526020016000208190555060019050611577565b600090505b92915050565b600080836001016000848152602001908152602001600020549050600081146116855760006001826115af9190611dee565b90506000600186600001805490506115c79190611dee565b90508181146116365760008660000182815481106115e8576115e76120fe565b5b906000526020600020015490508087600001848154811061160c5761160b6120fe565b5b90600052602060002001819055508387600101600083815260200190815260200160002081905550505b8560000180548061164a57611649612248565b5b60019003818190600052602060002001600090559055856001016000868152602001908152602001600020600090556001935050505061168b565b60009150505b92915050565b600080836001016000848152602001908152602001600020541415905092915050565b6000819050919050565b6116c7816116b4565b82525050565b60006020820190506116e260008301846116be565b92915050565b600080fd5b60007fffffffff0000000000000000000000000000000000000000000000000000000082169050919050565b611722816116ed565b811461172d57600080fd5b50565b60008135905061173f81611719565b92915050565b60006020828403121561175b5761175a6116e8565b5b600061176984828501611730565b91505092915050565b60008115159050919050565b61178781611772565b82525050565b60006020820190506117a2600083018461177e565b92915050565b6000819050919050565b6117bb816117a8565b81146117c657600080fd5b50565b6000813590506117d8816117b2565b92915050565b6000602082840312156117f4576117f36116e8565b5b6000611802848285016117c9565b91505092915050565b611814816117a8565b82525050565b600060208201905061182f600083018461180b565b92915050565b600073ffffffffffffffffffffffffffffffffffffffff82169050919050565b600061186082611835565b9050919050565b61187081611855565b811461187b57600080fd5b50565b60008135905061188d81611867565b92915050565b600080604083850312156118aa576118a96116e8565b5b60006118b8858286016117c9565b92505060206118c98582860161187e565b9150509250929050565b60006118de82611835565b9050919050565b6118ee816118d3565b81146118f957600080fd5b50565b60008135905061190b816118e5565b92915050565b600060208284031215611927576119266116e8565b5b6000611935848285016118fc565b91505092915050565b611947816116b4565b811461195257600080fd5b50565b6000813590506119648161193e565b92915050565b60008060408385031215611981576119806116e8565b5b600061198f858286016117c9565b92505060206119a085828601611955565b9150509250929050565b6119b381611855565b82525050565b60006020820190506119ce60008301846119aa565b92915050565b6000602082840312156119ea576119e96116e8565b5b60006119f88482850161187e565b91505092915050565b600082825260208201905092915050565b7f434f4e54524143545f4d414e414745525f524f4c452052657175697265640000600082015250565b6000611a48601e83611a01565b9150611a5382611a12565b602082019050919050565b60006020820190508181036000830152611a7781611a3b565b9050919050565b611a87816118d3565b82525050565b6000604082019050611aa26000830185611a7e565b611aaf60208301846116be565b9392505050565b7f4572726f722046696c6c696e6720557000000000000000000000000000000000600082015250565b6000611aec601083611a01565b9150611af782611ab6565b602082019050919050565b60006020820190508181036000830152611b1b81611adf565b9050919050565b7f416363657373436f6e74726f6c3a2063616e206f6e6c792072656e6f756e636560008201527f20726f6c657320666f722073656c660000000000000000000000000000000000602082015250565b6000611b7e602f83611a01565b9150611b8982611b22565b604082019050919050565b60006020820190508181036000830152611bad81611b71565b9050919050565b7f436f6e7472616374206973205061757365640000000000000000000000000000600082015250565b6000611bea601283611a01565b9150611bf582611bb4565b602082019050919050565b60006020820190508181036000830152611c1981611bdd565b9050919050565b7f49535f57484954454c4953544544205265717569726564000000000000000000600082015250565b6000611c56601783611a01565b9150611c6182611c20565b602082019050919050565b60006020820190508181036000830152611c8581611c49565b9050919050565b7f496e737566666963656e742042616c616e636520696e20436f6e747261637400600082015250565b6000611cc2601f83611a01565b9150611ccd82611c8c565b602082019050919050565b60006020820190508181036000830152611cf181611cb5565b9050919050565b7f4e487b7100000000000000000000000000000000000000000000000000000000600052601160045260246000fd5b6000611d32826116b4565b9150611d3d836116b4565b9250817fffffffffffffffffffffffffffffffffffffffffffffffffffffffffffffffff0483118215151615611d7657611d75611cf8565b5b828202905092915050565b6000819050919050565b600060ff82169050919050565b6000819050919050565b6000611dbd611db8611db384611d81565b611d98565b611d8b565b9050919050565b611dcd81611da2565b82525050565b6000602082019050611de86000830184611dc4565b92915050565b6000611df9826116b4565b9150611e04836116b4565b925082821015611e1757611e16611cf8565b5b828203905092915050565b7f496e697469616c697a61626c653a20636f6e747261637420697320616c72656160008201527f647920696e697469616c697a6564000000000000000000000000000000000000602082015250565b6000611e7e602e83611a01565b9150611e8982611e22565b604082019050919050565b60006020820190508181036000830152611ead81611e71565b9050919050565b7f496e697469616c697a61626c653a20636f6e7472616374206973206e6f74206960008201527f6e697469616c697a696e67000000000000000000000000000000000000000000602082015250565b6000611f10602b83611a01565b9150611f1b82611eb4565b604082019050919050565b60006020820190508181036000830152611f3f81611f03565b9050919050565b600081905092915050565b7f416363657373436f6e74726f6c3a206163636f756e7420000000000000000000600082015250565b6000611f87601783611f46565b9150611f9282611f51565b601782019050919050565b600081519050919050565b60005b83811015611fc6578082015181840152602081019050611fab565b83811115611fd5576000848401525b50505050565b6000611fe682611f9d565b611ff08185611f46565b9350612000818560208601611fa8565b80840191505092915050565b7f206973206d697373696e6720726f6c6520000000000000000000000000000000600082015250565b6000612042601183611f46565b915061204d8261200c565b601182019050919050565b600061206382611f7a565b915061206f8285611fdb565b915061207a82612035565b91506120868284611fdb565b91508190509392505050565b6000601f19601f8301169050919050565b60006120ae82611f9d565b6120b88185611a01565b93506120c8818560208601611fa8565b6120d181612092565b840191505092915050565b600060208201905081810360008301526120f681846120a3565b905092915050565b7f4e487b7100000000000000000000000000000000000000000000000000000000600052603260045260246000fd5b6000612138826116b4565b9150612143836116b4565b9250827fffffffffffffffffffffffffffffffffffffffffffffffffffffffffffffffff0382111561217857612177611cf8565b5b828201905092915050565b7f4e487b7100000000000000000000000000000000000000000000000000000000600052604160045260246000fd5b60006121bd826116b4565b915060008214156121d1576121d0611cf8565b5b600182039050919050565b7f537472696e67733a20686578206c656e67746820696e73756666696369656e74600082015250565b6000612212602083611a01565b915061221d826121dc565b602082019050919050565b6000602082019050818103600083015261224181612205565b9050919050565b7f4e487b7100000000000000000000000000000000000000000000000000000000600052603160045260246000fdfea2646970667358221220bc61eb6b57924976834d1973ee04e1b2f727f604d611aa0c633e985417a157ef64736f6c63430008090033",
  "linkReferences": {},
  "deployedLinkReferences": {}
}