{
  "_format": "hh-sol-artifact-1",
  "contractName": "LiliNFT",
  "sourceName": "sfuel/contracts/nfts/LiliNFT.sol",
  "abi": [
    {
      "anonymous": false,
      "inputs": [
        {
          "indexed": true,
          "internalType": "address",
          "name": "owner",
          "type": "address"
        },
        {
          "indexed": true,
          "internalType": "address",
          "name": "approved",
          "type": "address"
        },
        {
          "indexed": true,
          "internalType": "uint256",
          "name": "tokenId",
          "type": "uint256"
        }
      ],
      "name": "Approval",
      "type": "event"
    },
    {
      "anonymous": false,
      "inputs": [
        {
          "indexed": true,
          "internalType": "address",
          "name": "owner",
          "type": "address"
        },
        {
          "indexed": true,
          "internalType": "address",
          "name": "operator",
          "type": "address"
        },
        {
          "indexed": false,
          "internalType": "bool",
          "name": "approved",
          "type": "bool"
        }
      ],
      "name": "ApprovalForAll",
      "type": "event"
    },
    {
      "anonymous": false,
      "inputs": [
        {
          "indexed": false,
          "internalType": "uint8",
          "name": "version",
          "type": "uint8"
        }
      ],
      "name": "Initialized",
      "type": "event"
    },
    {
      "anonymous": false,
      "inputs": [
        {
          "indexed": true,
          "internalType": "address",
          "name": "previousOwner",
          "type": "address"
        },
        {
          "indexed": true,
          "internalType": "address",
          "name": "newOwner",
          "type": "address"
        }
      ],
      "name": "OwnershipTransferred",
      "type": "event"
    },
    {
      "anonymous": false,
      "inputs": [
        {
          "indexed": true,
          "internalType": "address",
          "name": "from",
          "type": "address"
        },
        {
          "indexed": true,
          "internalType": "address",
          "name": "to",
          "type": "address"
        },
        {
          "indexed": true,
          "internalType": "uint256",
          "name": "tokenId",
          "type": "uint256"
        }
      ],
      "name": "Transfer",
      "type": "event"
    },
    {
      "inputs": [],
      "name": "NAME",
      "outputs": [
        {
          "internalType": "string",
          "name": "",
          "type": "string"
        }
      ],
      "stateMutability": "view",
      "type": "function"
    },
    {
      "inputs": [],
      "name": "SYMBOL",
      "outputs": [
        {
          "internalType": "string",
          "name": "",
          "type": "string"
        }
      ],
      "stateMutability": "view",
      "type": "function"
    },
    {
      "inputs": [
        {
          "internalType": "address",
          "name": "to",
          "type": "address"
        },
        {
          "internalType": "uint256",
          "name": "tokenId",
          "type": "uint256"
        }
      ],
      "name": "approve",
      "outputs": [],
      "stateMutability": "nonpayable",
      "type": "function"
    },
    {
      "inputs": [
        {
          "internalType": "address",
          "name": "owner",
          "type": "address"
        }
      ],
      "name": "balanceOf",
      "outputs": [
        {
          "internalType": "uint256",
          "name": "",
          "type": "uint256"
        }
      ],
      "stateMutability": "view",
      "type": "function"
    },
    {
      "inputs": [
        {
          "internalType": "uint256",
          "name": "tokenId",
          "type": "uint256"
        }
      ],
      "name": "getApproved",
      "outputs": [
        {
          "internalType": "address",
          "name": "",
          "type": "address"
        }
      ],
      "stateMutability": "view",
      "type": "function"
    },
    {
      "inputs": [
        {
          "internalType": "address",
          "name": "_owner",
          "type": "address"
        },
        {
          "internalType": "address",
          "name": "_sFuel",
          "type": "address"
        }
      ],
      "name": "initialize",
      "outputs": [],
      "stateMutability": "nonpayable",
      "type": "function"
    },
    {
      "inputs": [
        {
          "internalType": "address",
          "name": "owner",
          "type": "address"
        },
        {
          "internalType": "address",
          "name": "operator",
          "type": "address"
        }
      ],
      "name": "isApprovedForAll",
      "outputs": [
        {
          "internalType": "bool",
          "name": "",
          "type": "bool"
        }
      ],
      "stateMutability": "view",
      "type": "function"
    },
    {
      "inputs": [],
      "name": "name",
      "outputs": [
        {
          "internalType": "string",
          "name": "",
          "type": "string"
        }
      ],
      "stateMutability": "view",
      "type": "function"
    },
    {
      "inputs": [],
      "name": "owner",
      "outputs": [
        {
          "internalType": "address",
          "name": "",
          "type": "address"
        }
      ],
      "stateMutability": "view",
      "type": "function"
    },
    {
      "inputs": [
        {
          "internalType": "uint256",
          "name": "tokenId",
          "type": "uint256"
        }
      ],
      "name": "ownerOf",
      "outputs": [
        {
          "internalType": "address",
          "name": "",
          "type": "address"
        }
      ],
      "stateMutability": "view",
      "type": "function"
    },
    {
      "inputs": [],
      "name": "renounceOwnership",
      "outputs": [],
      "stateMutability": "nonpayable",
      "type": "function"
    },
    {
      "inputs": [],
      "name": "sFuel",
      "outputs": [
        {
          "internalType": "address",
          "name": "",
          "type": "address"
        }
      ],
      "stateMutability": "view",
      "type": "function"
    },
    {
      "inputs": [
        {
          "internalType": "address",
          "name": "_reciever",
          "type": "address"
        }
      ],
      "name": "safeMintWithSFuel",
      "outputs": [],
      "stateMutability": "nonpayable",
      "type": "function"
    },
    {
      "inputs": [
        {
          "internalType": "address",
          "name": "from",
          "type": "address"
        },
        {
          "internalType": "address",
          "name": "to",
          "type": "address"
        },
        {
          "internalType": "uint256",
          "name": "tokenId",
          "type": "uint256"
        }
      ],
      "name": "safeTransferFrom",
      "outputs": [],
      "stateMutability": "nonpayable",
      "type": "function"
    },
    {
      "inputs": [
        {
          "internalType": "address",
          "name": "from",
          "type": "address"
        },
        {
          "internalType": "address",
          "name": "to",
          "type": "address"
        },
        {
          "internalType": "uint256",
          "name": "tokenId",
          "type": "uint256"
        },
        {
          "internalType": "bytes",
          "name": "_data",
          "type": "bytes"
        }
      ],
      "name": "safeTransferFrom",
      "outputs": [],
      "stateMutability": "nonpayable",
      "type": "function"
    },
    {
      "inputs": [
        {
          "internalType": "address",
          "name": "operator",
          "type": "address"
        },
        {
          "internalType": "bool",
          "name": "approved",
          "type": "bool"
        }
      ],
      "name": "setApprovalForAll",
      "outputs": [],
      "stateMutability": "nonpayable",
      "type": "function"
    },
    {
      "inputs": [
        {
          "internalType": "bytes4",
          "name": "interfaceId",
          "type": "bytes4"
        }
      ],
      "name": "supportsInterface",
      "outputs": [
        {
          "internalType": "bool",
          "name": "",
          "type": "bool"
        }
      ],
      "stateMutability": "view",
      "type": "function"
    },
    {
      "inputs": [],
      "name": "symbol",
      "outputs": [
        {
          "internalType": "string",
          "name": "",
          "type": "string"
        }
      ],
      "stateMutability": "view",
      "type": "function"
    },
    {
      "inputs": [],
      "name": "tokenId",
      "outputs": [
        {
          "internalType": "uint256",
          "name": "",
          "type": "uint256"
        }
      ],
      "stateMutability": "view",
      "type": "function"
    },
    {
      "inputs": [
        {
          "internalType": "uint256",
          "name": "tokenId",
          "type": "uint256"
        }
      ],
      "name": "tokenURI",
      "outputs": [
        {
          "internalType": "string",
          "name": "",
          "type": "string"
        }
      ],
      "stateMutability": "view",
      "type": "function"
    },
    {
      "inputs": [
        {
          "internalType": "address",
          "name": "from",
          "type": "address"
        },
        {
          "internalType": "address",
          "name": "to",
          "type": "address"
        },
        {
          "internalType": "uint256",
          "name": "tokenId",
          "type": "uint256"
        }
      ],
      "name": "transferFrom",
      "outputs": [],
      "stateMutability": "nonpayable",
      "type": "function"
    },
    {
      "inputs": [
        {
          "internalType": "address",
          "name": "newOwner",
          "type": "address"
        }
      ],
      "name": "transferOwnership",
      "outputs": [],
      "stateMutability": "nonpayable",
      "type": "function"
    },
    {
      "inputs": [
        {
          "internalType": "address",
          "name": "_address",
          "type": "address"
        }
      ],
      "name": "updateSFuelAddress",
      "outputs": [],
      "stateMutability": "nonpayable",
      "type": "function"
    }
  ],
  "bytecode": "0x6080604052600060c95534801561001557600080fd5b50613980806100256000396000f3fe608060405234801561001057600080fd5b506004361061014d5760003560e01c8063715018a6116100c3578063ab43e78d1161007c578063ab43e78d14610376578063b88d4fde14610394578063c87b56dd146103b0578063e985e9c5146103e0578063f2fde38b14610410578063f76f8d781461042c5761014d565b8063715018a6146102da5780638c41114b146102e45780638da5cb5b1461030057806395d89b411461031e578063a22cb4651461033c578063a3f4df7e146103585761014d565b806323b872dd1161011557806323b872dd1461020a57806342842e0e14610226578063485cc955146102425780635b2b11131461025e5780636352211e1461027a57806370a08231146102aa5761014d565b806301ffc9a71461015257806306fdde0314610182578063081812fc146101a0578063095ea7b3146101d057806317d70f7c146101ec575b600080fd5b61016c60048036038101906101679190612405565b61044a565b604051610179919061244d565b60405180910390f35b61018a61052c565b6040516101979190612501565b60405180910390f35b6101ba60048036038101906101b59190612559565b6105be565b6040516101c791906125c7565b60405180910390f35b6101ea60048036038101906101e5919061260e565b610643565b005b6101f461075b565b604051610201919061265d565b60405180910390f35b610224600480360381019061021f9190612678565b610761565b005b610240600480360381019061023b9190612678565b6107c1565b005b61025c600480360381019061025791906126cb565b6107e1565b005b6102786004803603810190610273919061270b565b610935565b005b610294600480360381019061028f9190612559565b6109d1565b6040516102a191906125c7565b60405180910390f35b6102c460048036038101906102bf919061270b565b610a83565b6040516102d1919061265d565b60405180910390f35b6102e2610b3b565b005b6102fe60048036038101906102f9919061270b565b610bc3565b005b610308610d84565b60405161031591906125c7565b60405180910390f35b610326610dae565b6040516103339190612501565b60405180910390f35b61035660048036038101906103519190612764565b610e40565b005b610360610e56565b60405161036d9190612501565b60405180910390f35b61037e610e8f565b60405161038b91906125c7565b60405180910390f35b6103ae60048036038101906103a991906128d9565b610eb5565b005b6103ca60048036038101906103c59190612559565b610f17565b6040516103d79190612501565b60405180910390f35b6103fa60048036038101906103f591906126cb565b610fbe565b604051610407919061244d565b60405180910390f35b61042a6004803603810190610425919061270b565b611052565b005b61043461114a565b6040516104419190612501565b60405180910390f35b60007f80ac58cd000000000000000000000000000000000000000000000000000000007bffffffffffffffffffffffffffffffffffffffffffffffffffffffff1916827bffffffffffffffffffffffffffffffffffffffffffffffffffffffff1916148061051557507f5b5e139f000000000000000000000000000000000000000000000000000000007bffffffffffffffffffffffffffffffffffffffffffffffffffffffff1916827bffffffffffffffffffffffffffffffffffffffffffffffffffffffff1916145b80610525575061052482611183565b5b9050919050565b60606065805461053b9061298b565b80601f01602080910402602001604051908101604052809291908181526020018280546105679061298b565b80156105b45780601f10610589576101008083540402835291602001916105b4565b820191906000526020600020905b81548152906001019060200180831161059757829003601f168201915b5050505050905090565b60006105c9826111ed565b610608576040517f08c379a00000000000000000000000000000000000000000000000000000000081526004016105ff90612a2f565b60405180910390fd5b6069600083815260200190815260200160002060009054906101000a900473ffffffffffffffffffffffffffffffffffffffff169050919050565b600061064e826109d1565b90508073ffffffffffffffffffffffffffffffffffffffff168373ffffffffffffffffffffffffffffffffffffffff1614156106bf576040517f08c379a00000000000000000000000000000000000000000000000000000000081526004016106b690612ac1565b60405180910390fd5b8073ffffffffffffffffffffffffffffffffffffffff166106de611259565b73ffffffffffffffffffffffffffffffffffffffff16148061070d575061070c81610707611259565b610fbe565b5b61074c576040517f08c379a000000000000000000000000000000000000000000000000000000000815260040161074390612b53565b60405180910390fd5b6107568383611261565b505050565b60c95481565b61077261076c611259565b8261131a565b6107b1576040517f08c379a00000000000000000000000000000000000000000000000000000000081526004016107a890612be5565b60405180910390fd5b6107bc8383836113f8565b505050565b6107dc83838360405180602001604052806000815250610eb5565b505050565b60006107ed600161165f565b90508015610811576001600060016101000a81548160ff0219169083151502179055505b6108856040518060400160405280600781526020017f4c696c694e4654000000000000000000000000000000000000000000000000008152506040518060400160405280600781526020017f4c494c494e46540000000000000000000000000000000000000000000000000081525061174f565b61088d6117ac565b61089683611052565b8160ca60006101000a81548173ffffffffffffffffffffffffffffffffffffffff021916908373ffffffffffffffffffffffffffffffffffffffff16021790555080156109305760008060016101000a81548160ff0219169083151502179055507f7f26b83ff96e1f2b6a682f133852f6798a09c465da95921460cefb384740249860016040516109279190612c57565b60405180910390a15b505050565b61093d611805565b600073ffffffffffffffffffffffffffffffffffffffff168173ffffffffffffffffffffffffffffffffffffffff1614156109ad576040517f08c379a00000000000000000000000000000000000000000000000000000000081526004016109a490612cbe565b60405180910390fd5b6109b98160c9546119f6565b600160c9546109c89190612d0d565b60c98190555050565b6000806067600084815260200190815260200160002060009054906101000a900473ffffffffffffffffffffffffffffffffffffffff169050600073ffffffffffffffffffffffffffffffffffffffff168173ffffffffffffffffffffffffffffffffffffffff161415610a7a576040517f08c379a0000000000000000000000000000000000000000000000000000000008152600401610a7190612dd5565b60405180910390fd5b80915050919050565b60008073ffffffffffffffffffffffffffffffffffffffff168273ffffffffffffffffffffffffffffffffffffffff161415610af4576040517f08c379a0000000000000000000000000000000000000000000000000000000008152600401610aeb90612e67565b60405180910390fd5b606860008373ffffffffffffffffffffffffffffffffffffffff1673ffffffffffffffffffffffffffffffffffffffff168152602001908152602001600020549050919050565b610b43611259565b73ffffffffffffffffffffffffffffffffffffffff16610b61610d84565b73ffffffffffffffffffffffffffffffffffffffff1614610bb7576040517f08c379a0000000000000000000000000000000000000000000000000000000008152600401610bae90612ed3565b60405180910390fd5b610bc16000611a14565b565b610bcb611259565b73ffffffffffffffffffffffffffffffffffffffff16610be9610d84565b73ffffffffffffffffffffffffffffffffffffffff1614610c3f576040517f08c379a0000000000000000000000000000000000000000000000000000000008152600401610c3690612ed3565b60405180910390fd5b600073ffffffffffffffffffffffffffffffffffffffff168173ffffffffffffffffffffffffffffffffffffffff161415610caf576040517f08c379a0000000000000000000000000000000000000000000000000000000008152600401610ca690612f3f565b60405180910390fd5b60ca60009054906101000a900473ffffffffffffffffffffffffffffffffffffffff1673ffffffffffffffffffffffffffffffffffffffff168173ffffffffffffffffffffffffffffffffffffffff161415610d40576040517f08c379a0000000000000000000000000000000000000000000000000000000008152600401610d3790612fab565b60405180910390fd5b8060ca60006101000a81548173ffffffffffffffffffffffffffffffffffffffff021916908373ffffffffffffffffffffffffffffffffffffffff16021790555050565b6000609760009054906101000a900473ffffffffffffffffffffffffffffffffffffffff16905090565b606060668054610dbd9061298b565b80601f0160208091040260200160405190810160405280929190818152602001828054610de99061298b565b8015610e365780601f10610e0b57610100808354040283529160200191610e36565b820191906000526020600020905b815481529060010190602001808311610e1957829003601f168201915b5050505050905090565b610e52610e4b611259565b8383611ada565b5050565b6040518060400160405280600781526020017f4c696c694e46540000000000000000000000000000000000000000000000000081525081565b60ca60009054906101000a900473ffffffffffffffffffffffffffffffffffffffff1681565b610ec6610ec0611259565b8361131a565b610f05576040517f08c379a0000000000000000000000000000000000000000000000000000000008152600401610efc90612be5565b60405180910390fd5b610f1184848484611c47565b50505050565b6060610f22826111ed565b610f61576040517f08c379a0000000000000000000000000000000000000000000000000000000008152600401610f589061303d565b60405180910390fd5b6000610f6b611ca3565b90506000815111610f8b5760405180602001604052806000815250610fb6565b80610f9584611cba565b604051602001610fa6929190613099565b6040516020818303038152906040525b915050919050565b6000606a60008473ffffffffffffffffffffffffffffffffffffffff1673ffffffffffffffffffffffffffffffffffffffff16815260200190815260200160002060008373ffffffffffffffffffffffffffffffffffffffff1673ffffffffffffffffffffffffffffffffffffffff16815260200190815260200160002060009054906101000a900460ff16905092915050565b61105a611259565b73ffffffffffffffffffffffffffffffffffffffff16611078610d84565b73ffffffffffffffffffffffffffffffffffffffff16146110ce576040517f08c379a00000000000000000000000000000000000000000000000000000000081526004016110c590612ed3565b60405180910390fd5b600073ffffffffffffffffffffffffffffffffffffffff168173ffffffffffffffffffffffffffffffffffffffff16141561113e576040517f08c379a00000000000000000000000000000000000000000000000000000000081526004016111359061312f565b60405180910390fd5b61114781611a14565b50565b6040518060400160405280600781526020017f4c494c494e46540000000000000000000000000000000000000000000000000081525081565b60007f01ffc9a7000000000000000000000000000000000000000000000000000000007bffffffffffffffffffffffffffffffffffffffffffffffffffffffff1916827bffffffffffffffffffffffffffffffffffffffffffffffffffffffff1916149050919050565b60008073ffffffffffffffffffffffffffffffffffffffff166067600084815260200190815260200160002060009054906101000a900473ffffffffffffffffffffffffffffffffffffffff1673ffffffffffffffffffffffffffffffffffffffff1614159050919050565b600033905090565b816069600083815260200190815260200160002060006101000a81548173ffffffffffffffffffffffffffffffffffffffff021916908373ffffffffffffffffffffffffffffffffffffffff160217905550808273ffffffffffffffffffffffffffffffffffffffff166112d4836109d1565b73ffffffffffffffffffffffffffffffffffffffff167f8c5be1e5ebec7d5bd14f71427d1e84f3dd0314c0f7b2291e5b200ac8c7c3b92560405160405180910390a45050565b6000611325826111ed565b611364576040517f08c379a000000000000000000000000000000000000000000000000000000000815260040161135b906131c1565b60405180910390fd5b600061136f836109d1565b90508073ffffffffffffffffffffffffffffffffffffffff168473ffffffffffffffffffffffffffffffffffffffff1614806113b157506113b08185610fbe565b5b806113ef57508373ffffffffffffffffffffffffffffffffffffffff166113d7846105be565b73ffffffffffffffffffffffffffffffffffffffff16145b91505092915050565b8273ffffffffffffffffffffffffffffffffffffffff16611418826109d1565b73ffffffffffffffffffffffffffffffffffffffff161461146e576040517f08c379a000000000000000000000000000000000000000000000000000000000815260040161146590613253565b60405180910390fd5b600073ffffffffffffffffffffffffffffffffffffffff168273ffffffffffffffffffffffffffffffffffffffff1614156114de576040517f08c379a00000000000000000000000000000000000000000000000000000000081526004016114d5906132e5565b60405180910390fd5b6114e9838383611e1b565b6114f4600082611261565b6001606860008573ffffffffffffffffffffffffffffffffffffffff1673ffffffffffffffffffffffffffffffffffffffff16815260200190815260200160002060008282546115449190613305565b925050819055506001606860008473ffffffffffffffffffffffffffffffffffffffff1673ffffffffffffffffffffffffffffffffffffffff168152602001908152602001600020600082825461159b9190612d0d565b92505081905550816067600083815260200190815260200160002060006101000a81548173ffffffffffffffffffffffffffffffffffffffff021916908373ffffffffffffffffffffffffffffffffffffffff160217905550808273ffffffffffffffffffffffffffffffffffffffff168473ffffffffffffffffffffffffffffffffffffffff167fddf252ad1be2c89b69c2b068fc378daa952ba7f163c4a11628f55a4df523b3ef60405160405180910390a461165a838383611e20565b505050565b60008060019054906101000a900460ff16156116d65760018260ff1614801561168e575061168c30611e25565b155b6116cd576040517f08c379a00000000000000000000000000000000000000000000000000000000081526004016116c4906133ab565b60405180910390fd5b6000905061174a565b8160ff1660008054906101000a900460ff1660ff161061172b576040517f08c379a0000000000000000000000000000000000000000000000000000000008152600401611722906133ab565b60405180910390fd5b816000806101000a81548160ff021916908360ff160217905550600190505b919050565b600060019054906101000a900460ff1661179e576040517f08c379a00000000000000000000000000000000000000000000000000000000081526004016117959061343d565b60405180910390fd5b6117a88282611e48565b5050565b600060019054906101000a900460ff166117fb576040517f08c379a00000000000000000000000000000000000000000000000000000000081526004016117f29061343d565b60405180910390fd5b611803611ec9565b565b600073ffffffffffffffffffffffffffffffffffffffff1660ca60009054906101000a900473ffffffffffffffffffffffffffffffffffffffff1673ffffffffffffffffffffffffffffffffffffffff161415611897576040517f08c379a000000000000000000000000000000000000000000000000000000000815260040161188e906134a9565b60405180910390fd5b600060ca60009054906101000a900473ffffffffffffffffffffffffffffffffffffffff1673ffffffffffffffffffffffffffffffffffffffff16336040516024016118e391906125c7565b6040516020818303038152906040527f3eb5938a000000000000000000000000000000000000000000000000000000007bffffffffffffffffffffffffffffffffffffffffffffffffffffffff19166020820180517bffffffffffffffffffffffffffffffffffffffffffffffffffffffff838183161783525050505060405161196d9190613510565b6000604051808303816000865af19150503d80600081146119aa576040519150601f19603f3d011682016040523d82523d6000602084013e6119af565b606091505b50509050806119f3576040517f08c379a00000000000000000000000000000000000000000000000000000000081526004016119ea90613573565b60405180910390fd5b50565b611a10828260405180602001604052806000815250611f2a565b5050565b6000609760009054906101000a900473ffffffffffffffffffffffffffffffffffffffff16905081609760006101000a81548173ffffffffffffffffffffffffffffffffffffffff021916908373ffffffffffffffffffffffffffffffffffffffff1602179055508173ffffffffffffffffffffffffffffffffffffffff168173ffffffffffffffffffffffffffffffffffffffff167f8be0079c531659141344cd1fd0a4f28419497f9722a3daafe3b4186f6b6457e060405160405180910390a35050565b8173ffffffffffffffffffffffffffffffffffffffff168373ffffffffffffffffffffffffffffffffffffffff161415611b49576040517f08c379a0000000000000000000000000000000000000000000000000000000008152600401611b40906135df565b60405180910390fd5b80606a60008573ffffffffffffffffffffffffffffffffffffffff1673ffffffffffffffffffffffffffffffffffffffff16815260200190815260200160002060008473ffffffffffffffffffffffffffffffffffffffff1673ffffffffffffffffffffffffffffffffffffffff16815260200190815260200160002060006101000a81548160ff0219169083151502179055508173ffffffffffffffffffffffffffffffffffffffff168373ffffffffffffffffffffffffffffffffffffffff167f17307eab39ab6107e8899845ad3d59bd9653f200f220920489ca2b5937696c3183604051611c3a919061244d565b60405180910390a3505050565b611c528484846113f8565b611c5e84848484611f85565b611c9d576040517f08c379a0000000000000000000000000000000000000000000000000000000008152600401611c9490613671565b60405180910390fd5b50505050565b606060405180602001604052806000815250905090565b60606000821415611d02576040518060400160405280600181526020017f30000000000000000000000000000000000000000000000000000000000000008152509050611e16565b600082905060005b60008214611d34578080611d1d90613691565b915050600a82611d2d9190613709565b9150611d0a565b60008167ffffffffffffffff811115611d5057611d4f6127ae565b5b6040519080825280601f01601f191660200182016040528015611d825781602001600182028036833780820191505090505b5090505b60008514611e0f57600182611d9b9190613305565b9150600a85611daa919061373a565b6030611db69190612d0d565b60f81b818381518110611dcc57611dcb61376b565b5b60200101907effffffffffffffffffffffffffffffffffffffffffffffffffffffffffffff1916908160001a905350600a85611e089190613709565b9450611d86565b8093505050505b919050565b505050565b505050565b6000808273ffffffffffffffffffffffffffffffffffffffff163b119050919050565b600060019054906101000a900460ff16611e97576040517f08c379a0000000000000000000000000000000000000000000000000000000008152600401611e8e9061343d565b60405180910390fd5b8160659080519060200190611ead9291906122f6565b508060669080519060200190611ec49291906122f6565b505050565b600060019054906101000a900460ff16611f18576040517f08c379a0000000000000000000000000000000000000000000000000000000008152600401611f0f9061343d565b60405180910390fd5b611f28611f23611259565b611a14565b565b611f34838361211c565b611f416000848484611f85565b611f80576040517f08c379a0000000000000000000000000000000000000000000000000000000008152600401611f7790613671565b60405180910390fd5b505050565b6000611fa68473ffffffffffffffffffffffffffffffffffffffff16611e25565b1561210f578373ffffffffffffffffffffffffffffffffffffffff1663150b7a02611fcf611259565b8786866040518563ffffffff1660e01b8152600401611ff194939291906137e4565b602060405180830381600087803b15801561200b57600080fd5b505af192505050801561203c57506040513d601f19601f820116820180604052508101906120399190613845565b60015b6120bf573d806000811461206c576040519150601f19603f3d011682016040523d82523d6000602084013e612071565b606091505b506000815114156120b7576040517f08c379a00000000000000000000000000000000000000000000000000000000081526004016120ae90613671565b60405180910390fd5b805181602001fd5b63150b7a0260e01b7bffffffffffffffffffffffffffffffffffffffffffffffffffffffff1916817bffffffffffffffffffffffffffffffffffffffffffffffffffffffff191614915050612114565b600190505b949350505050565b600073ffffffffffffffffffffffffffffffffffffffff168273ffffffffffffffffffffffffffffffffffffffff16141561218c576040517f08c379a0000000000000000000000000000000000000000000000000000000008152600401612183906138be565b60405180910390fd5b612195816111ed565b156121d5576040517f08c379a00000000000000000000000000000000000000000000000000000000081526004016121cc9061392a565b60405180910390fd5b6121e160008383611e1b565b6001606860008473ffffffffffffffffffffffffffffffffffffffff1673ffffffffffffffffffffffffffffffffffffffff16815260200190815260200160002060008282546122319190612d0d565b92505081905550816067600083815260200190815260200160002060006101000a81548173ffffffffffffffffffffffffffffffffffffffff021916908373ffffffffffffffffffffffffffffffffffffffff160217905550808273ffffffffffffffffffffffffffffffffffffffff16600073ffffffffffffffffffffffffffffffffffffffff167fddf252ad1be2c89b69c2b068fc378daa952ba7f163c4a11628f55a4df523b3ef60405160405180910390a46122f260008383611e20565b5050565b8280546123029061298b565b90600052602060002090601f016020900481019282612324576000855561236b565b82601f1061233d57805160ff191683800117855561236b565b8280016001018555821561236b579182015b8281111561236a57825182559160200191906001019061234f565b5b509050612378919061237c565b5090565b5b8082111561239557600081600090555060010161237d565b5090565b6000604051905090565b600080fd5b600080fd5b60007fffffffff0000000000000000000000000000000000000000000000000000000082169050919050565b6123e2816123ad565b81146123ed57600080fd5b50565b6000813590506123ff816123d9565b92915050565b60006020828403121561241b5761241a6123a3565b5b6000612429848285016123f0565b91505092915050565b60008115159050919050565b61244781612432565b82525050565b6000602082019050612462600083018461243e565b92915050565b600081519050919050565b600082825260208201905092915050565b60005b838110156124a2578082015181840152602081019050612487565b838111156124b1576000848401525b50505050565b6000601f19601f8301169050919050565b60006124d382612468565b6124dd8185612473565b93506124ed818560208601612484565b6124f6816124b7565b840191505092915050565b6000602082019050818103600083015261251b81846124c8565b905092915050565b6000819050919050565b61253681612523565b811461254157600080fd5b50565b6000813590506125538161252d565b92915050565b60006020828403121561256f5761256e6123a3565b5b600061257d84828501612544565b91505092915050565b600073ffffffffffffffffffffffffffffffffffffffff82169050919050565b60006125b182612586565b9050919050565b6125c1816125a6565b82525050565b60006020820190506125dc60008301846125b8565b92915050565b6125eb816125a6565b81146125f657600080fd5b50565b600081359050612608816125e2565b92915050565b60008060408385031215612625576126246123a3565b5b6000612633858286016125f9565b925050602061264485828601612544565b9150509250929050565b61265781612523565b82525050565b6000602082019050612672600083018461264e565b92915050565b600080600060608486031215612691576126906123a3565b5b600061269f868287016125f9565b93505060206126b0868287016125f9565b92505060406126c186828701612544565b9150509250925092565b600080604083850312156126e2576126e16123a3565b5b60006126f0858286016125f9565b9250506020612701858286016125f9565b9150509250929050565b600060208284031215612721576127206123a3565b5b600061272f848285016125f9565b91505092915050565b61274181612432565b811461274c57600080fd5b50565b60008135905061275e81612738565b92915050565b6000806040838503121561277b5761277a6123a3565b5b6000612789858286016125f9565b925050602061279a8582860161274f565b9150509250929050565b600080fd5b600080fd5b7f4e487b7100000000000000000000000000000000000000000000000000000000600052604160045260246000fd5b6127e6826124b7565b810181811067ffffffffffffffff82111715612805576128046127ae565b5b80604052505050565b6000612818612399565b905061282482826127dd565b919050565b600067ffffffffffffffff821115612844576128436127ae565b5b61284d826124b7565b9050602081019050919050565b82818337600083830152505050565b600061287c61287784612829565b61280e565b905082815260208101848484011115612898576128976127a9565b5b6128a384828561285a565b509392505050565b600082601f8301126128c0576128bf6127a4565b5b81356128d0848260208601612869565b91505092915050565b600080600080608085870312156128f3576128f26123a3565b5b6000612901878288016125f9565b9450506020612912878288016125f9565b935050604061292387828801612544565b925050606085013567ffffffffffffffff811115612944576129436123a8565b5b612950878288016128ab565b91505092959194509250565b7f4e487b7100000000000000000000000000000000000000000000000000000000600052602260045260246000fd5b600060028204905060018216806129a357607f821691505b602082108114156129b7576129b661295c565b5b50919050565b7f4552433732313a20617070726f76656420717565727920666f72206e6f6e657860008201527f697374656e7420746f6b656e0000000000000000000000000000000000000000602082015250565b6000612a19602c83612473565b9150612a24826129bd565b604082019050919050565b60006020820190508181036000830152612a4881612a0c565b9050919050565b7f4552433732313a20617070726f76616c20746f2063757272656e74206f776e6560008201527f7200000000000000000000000000000000000000000000000000000000000000602082015250565b6000612aab602183612473565b9150612ab682612a4f565b604082019050919050565b60006020820190508181036000830152612ada81612a9e565b9050919050565b7f4552433732313a20617070726f76652063616c6c6572206973206e6f74206f7760008201527f6e6572206e6f7220617070726f76656420666f7220616c6c0000000000000000602082015250565b6000612b3d603883612473565b9150612b4882612ae1565b604082019050919050565b60006020820190508181036000830152612b6c81612b30565b9050919050565b7f4552433732313a207472616e736665722063616c6c6572206973206e6f74206f60008201527f776e6572206e6f7220617070726f766564000000000000000000000000000000602082015250565b6000612bcf603183612473565b9150612bda82612b73565b604082019050919050565b60006020820190508181036000830152612bfe81612bc2565b9050919050565b6000819050919050565b600060ff82169050919050565b6000819050919050565b6000612c41612c3c612c3784612c05565b612c1c565b612c0f565b9050919050565b612c5181612c26565b82525050565b6000602082019050612c6c6000830184612c48565b92915050565b7f496e76616c6964204d696e746572000000000000000000000000000000000000600082015250565b6000612ca8600e83612473565b9150612cb382612c72565b602082019050919050565b60006020820190508181036000830152612cd781612c9b565b9050919050565b7f4e487b7100000000000000000000000000000000000000000000000000000000600052601160045260246000fd5b6000612d1882612523565b9150612d2383612523565b9250827fffffffffffffffffffffffffffffffffffffffffffffffffffffffffffffffff03821115612d5857612d57612cde565b5b828201905092915050565b7f4552433732313a206f776e657220717565727920666f72206e6f6e657869737460008201527f656e7420746f6b656e0000000000000000000000000000000000000000000000602082015250565b6000612dbf602983612473565b9150612dca82612d63565b604082019050919050565b60006020820190508181036000830152612dee81612db2565b9050919050565b7f4552433732313a2062616c616e636520717565727920666f7220746865207a6560008201527f726f206164647265737300000000000000000000000000000000000000000000602082015250565b6000612e51602a83612473565b9150612e5c82612df5565b604082019050919050565b60006020820190508181036000830152612e8081612e44565b9050919050565b7f4f776e61626c653a2063616c6c6572206973206e6f7420746865206f776e6572600082015250565b6000612ebd602083612473565b9150612ec882612e87565b602082019050919050565b60006020820190508181036000830152612eec81612eb0565b9050919050565b7f416464726573732043616e6e6f74206265203020416464726573730000000000600082015250565b6000612f29601b83612473565b9150612f3482612ef3565b602082019050919050565b60006020820190508181036000830152612f5881612f1c565b9050919050565b7f506c656173652070726f766964652061206e6577206164647265737300000000600082015250565b6000612f95601c83612473565b9150612fa082612f5f565b602082019050919050565b60006020820190508181036000830152612fc481612f88565b9050919050565b7f4552433732314d657461646174613a2055524920717565727920666f72206e6f60008201527f6e6578697374656e7420746f6b656e0000000000000000000000000000000000602082015250565b6000613027602f83612473565b915061303282612fcb565b604082019050919050565b600060208201905081810360008301526130568161301a565b9050919050565b600081905092915050565b600061307382612468565b61307d818561305d565b935061308d818560208601612484565b80840191505092915050565b60006130a58285613068565b91506130b18284613068565b91508190509392505050565b7f4f776e61626c653a206e6577206f776e657220697320746865207a65726f206160008201527f6464726573730000000000000000000000000000000000000000000000000000602082015250565b6000613119602683612473565b9150613124826130bd565b604082019050919050565b600060208201905081810360008301526131488161310c565b9050919050565b7f4552433732313a206f70657261746f7220717565727920666f72206e6f6e657860008201527f697374656e7420746f6b656e0000000000000000000000000000000000000000602082015250565b60006131ab602c83612473565b91506131b68261314f565b604082019050919050565b600060208201905081810360008301526131da8161319e565b9050919050565b7f4552433732313a207472616e736665722066726f6d20696e636f72726563742060008201527f6f776e6572000000000000000000000000000000000000000000000000000000602082015250565b600061323d602583612473565b9150613248826131e1565b604082019050919050565b6000602082019050818103600083015261326c81613230565b9050919050565b7f4552433732313a207472616e7366657220746f20746865207a65726f2061646460008201527f7265737300000000000000000000000000000000000000000000000000000000602082015250565b60006132cf602483612473565b91506132da82613273565b604082019050919050565b600060208201905081810360008301526132fe816132c2565b9050919050565b600061331082612523565b915061331b83612523565b92508282101561332e5761332d612cde565b5b828203905092915050565b7f496e697469616c697a61626c653a20636f6e747261637420697320616c72656160008201527f647920696e697469616c697a6564000000000000000000000000000000000000602082015250565b6000613395602e83612473565b91506133a082613339565b604082019050919050565b600060208201905081810360008301526133c481613388565b9050919050565b7f496e697469616c697a61626c653a20636f6e7472616374206973206e6f74206960008201527f6e697469616c697a696e67000000000000000000000000000000000000000000602082015250565b6000613427602b83612473565b9150613432826133cb565b604082019050919050565b600060208201905081810360008301526134568161341a565b9050919050565b7f302041646472657373204e6f742056616c696400000000000000000000000000600082015250565b6000613493601383612473565b915061349e8261345d565b602082019050919050565b600060208201905081810360008301526134c281613486565b9050919050565b600081519050919050565b600081905092915050565b60006134ea826134c9565b6134f481856134d4565b9350613504818560208601612484565b80840191505092915050565b600061351c82846134df565b915081905092915050565b7f4572726f7220546f7070696e6720557020532d4675656c000000000000000000600082015250565b600061355d601783612473565b915061356882613527565b602082019050919050565b6000602082019050818103600083015261358c81613550565b9050919050565b7f4552433732313a20617070726f766520746f2063616c6c657200000000000000600082015250565b60006135c9601983612473565b91506135d482613593565b602082019050919050565b600060208201905081810360008301526135f8816135bc565b9050919050565b7f4552433732313a207472616e7366657220746f206e6f6e20455243373231526560008201527f63656976657220696d706c656d656e7465720000000000000000000000000000602082015250565b600061365b603283612473565b9150613666826135ff565b604082019050919050565b6000602082019050818103600083015261368a8161364e565b9050919050565b600061369c82612523565b91507fffffffffffffffffffffffffffffffffffffffffffffffffffffffffffffffff8214156136cf576136ce612cde565b5b600182019050919050565b7f4e487b7100000000000000000000000000000000000000000000000000000000600052601260045260246000fd5b600061371482612523565b915061371f83612523565b92508261372f5761372e6136da565b5b828204905092915050565b600061374582612523565b915061375083612523565b9250826137605761375f6136da565b5b828206905092915050565b7f4e487b7100000000000000000000000000000000000000000000000000000000600052603260045260246000fd5b600082825260208201905092915050565b60006137b6826134c9565b6137c0818561379a565b93506137d0818560208601612484565b6137d9816124b7565b840191505092915050565b60006080820190506137f960008301876125b8565b61380660208301866125b8565b613813604083018561264e565b818103606083015261382581846137ab565b905095945050505050565b60008151905061383f816123d9565b92915050565b60006020828403121561385b5761385a6123a3565b5b600061386984828501613830565b91505092915050565b7f4552433732313a206d696e7420746f20746865207a65726f2061646472657373600082015250565b60006138a8602083612473565b91506138b382613872565b602082019050919050565b600060208201905081810360008301526138d78161389b565b9050919050565b7f4552433732313a20746f6b656e20616c7265616479206d696e74656400000000600082015250565b6000613914601c83612473565b915061391f826138de565b602082019050919050565b6000602082019050818103600083015261394381613907565b905091905056fea264697066735822122030fd849bbc32df231f6ff063dded3d36216804a72694040f47e52749e1ca4e7464736f6c63430008090033",
  "linkReferences": {},
  "deployedLinkReferences": {}
}