{
  "_format": "hh-sol-artifact-1",
  "contractName": "LiliNFT",
  "sourceName": "nfts/contracts/LiliNFT.sol",
  "abi": [
    {
      "inputs": [
        {
          "internalType": "address",
          "name": "_address",
          "type": "address"
        }
      ],
      "stateMutability": "nonpayable",
      "type": "constructor"
    },
    {
      "anonymous": false,
      "inputs": [
        {
          "indexed": true,
          "internalType": "address",
          "name": "owner",
          "type": "address"
        },
        {
          "indexed": true,
          "internalType": "address",
          "name": "approved",
          "type": "address"
        },
        {
          "indexed": true,
          "internalType": "uint256",
          "name": "tokenId",
          "type": "uint256"
        }
      ],
      "name": "Approval",
      "type": "event"
    },
    {
      "anonymous": false,
      "inputs": [
        {
          "indexed": true,
          "internalType": "address",
          "name": "owner",
          "type": "address"
        },
        {
          "indexed": true,
          "internalType": "address",
          "name": "operator",
          "type": "address"
        },
        {
          "indexed": false,
          "internalType": "bool",
          "name": "approved",
          "type": "bool"
        }
      ],
      "name": "ApprovalForAll",
      "type": "event"
    },
    {
      "anonymous": false,
      "inputs": [
        {
          "indexed": true,
          "internalType": "address",
          "name": "previousOwner",
          "type": "address"
        },
        {
          "indexed": true,
          "internalType": "address",
          "name": "newOwner",
          "type": "address"
        }
      ],
      "name": "OwnershipTransferred",
      "type": "event"
    },
    {
      "anonymous": false,
      "inputs": [
        {
          "indexed": true,
          "internalType": "address",
          "name": "from",
          "type": "address"
        },
        {
          "indexed": true,
          "internalType": "address",
          "name": "to",
          "type": "address"
        },
        {
          "indexed": true,
          "internalType": "uint256",
          "name": "tokenId",
          "type": "uint256"
        }
      ],
      "name": "Transfer",
      "type": "event"
    },
    {
      "inputs": [],
      "name": "NAME",
      "outputs": [
        {
          "internalType": "string",
          "name": "",
          "type": "string"
        }
      ],
      "stateMutability": "view",
      "type": "function"
    },
    {
      "inputs": [],
      "name": "SYMBOL",
      "outputs": [
        {
          "internalType": "string",
          "name": "",
          "type": "string"
        }
      ],
      "stateMutability": "view",
      "type": "function"
    },
    {
      "inputs": [
        {
          "internalType": "address",
          "name": "to",
          "type": "address"
        },
        {
          "internalType": "uint256",
          "name": "tokenId",
          "type": "uint256"
        }
      ],
      "name": "approve",
      "outputs": [],
      "stateMutability": "nonpayable",
      "type": "function"
    },
    {
      "inputs": [
        {
          "internalType": "address",
          "name": "owner",
          "type": "address"
        }
      ],
      "name": "balanceOf",
      "outputs": [
        {
          "internalType": "uint256",
          "name": "",
          "type": "uint256"
        }
      ],
      "stateMutability": "view",
      "type": "function"
    },
    {
      "inputs": [
        {
          "internalType": "uint256",
          "name": "tokenId",
          "type": "uint256"
        }
      ],
      "name": "getApproved",
      "outputs": [
        {
          "internalType": "address",
          "name": "",
          "type": "address"
        }
      ],
      "stateMutability": "view",
      "type": "function"
    },
    {
      "inputs": [
        {
          "internalType": "address",
          "name": "owner",
          "type": "address"
        },
        {
          "internalType": "address",
          "name": "operator",
          "type": "address"
        }
      ],
      "name": "isApprovedForAll",
      "outputs": [
        {
          "internalType": "bool",
          "name": "",
          "type": "bool"
        }
      ],
      "stateMutability": "view",
      "type": "function"
    },
    {
      "inputs": [],
      "name": "mint",
      "outputs": [],
      "stateMutability": "nonpayable",
      "type": "function"
    },
    {
      "inputs": [],
      "name": "mint2",
      "outputs": [],
      "stateMutability": "nonpayable",
      "type": "function"
    },
    {
      "inputs": [],
      "name": "name",
      "outputs": [
        {
          "internalType": "string",
          "name": "",
          "type": "string"
        }
      ],
      "stateMutability": "view",
      "type": "function"
    },
    {
      "inputs": [],
      "name": "owner",
      "outputs": [
        {
          "internalType": "address",
          "name": "",
          "type": "address"
        }
      ],
      "stateMutability": "view",
      "type": "function"
    },
    {
      "inputs": [
        {
          "internalType": "uint256",
          "name": "tokenId",
          "type": "uint256"
        }
      ],
      "name": "ownerOf",
      "outputs": [
        {
          "internalType": "address",
          "name": "",
          "type": "address"
        }
      ],
      "stateMutability": "view",
      "type": "function"
    },
    {
      "inputs": [],
      "name": "renounceOwnership",
      "outputs": [],
      "stateMutability": "nonpayable",
      "type": "function"
    },
    {
      "inputs": [],
      "name": "sFuel",
      "outputs": [
        {
          "internalType": "address",
          "name": "",
          "type": "address"
        }
      ],
      "stateMutability": "view",
      "type": "function"
    },
    {
      "inputs": [
        {
          "internalType": "address",
          "name": "_reciever",
          "type": "address"
        }
      ],
      "name": "safeMintWithSFuel",
      "outputs": [],
      "stateMutability": "nonpayable",
      "type": "function"
    },
    {
      "inputs": [
        {
          "internalType": "address",
          "name": "from",
          "type": "address"
        },
        {
          "internalType": "address",
          "name": "to",
          "type": "address"
        },
        {
          "internalType": "uint256",
          "name": "tokenId",
          "type": "uint256"
        }
      ],
      "name": "safeTransferFrom",
      "outputs": [],
      "stateMutability": "nonpayable",
      "type": "function"
    },
    {
      "inputs": [
        {
          "internalType": "address",
          "name": "from",
          "type": "address"
        },
        {
          "internalType": "address",
          "name": "to",
          "type": "address"
        },
        {
          "internalType": "uint256",
          "name": "tokenId",
          "type": "uint256"
        },
        {
          "internalType": "bytes",
          "name": "_data",
          "type": "bytes"
        }
      ],
      "name": "safeTransferFrom",
      "outputs": [],
      "stateMutability": "nonpayable",
      "type": "function"
    },
    {
      "inputs": [
        {
          "internalType": "address",
          "name": "operator",
          "type": "address"
        },
        {
          "internalType": "bool",
          "name": "approved",
          "type": "bool"
        }
      ],
      "name": "setApprovalForAll",
      "outputs": [],
      "stateMutability": "nonpayable",
      "type": "function"
    },
    {
      "inputs": [
        {
          "internalType": "bytes4",
          "name": "interfaceId",
          "type": "bytes4"
        }
      ],
      "name": "supportsInterface",
      "outputs": [
        {
          "internalType": "bool",
          "name": "",
          "type": "bool"
        }
      ],
      "stateMutability": "view",
      "type": "function"
    },
    {
      "inputs": [],
      "name": "symbol",
      "outputs": [
        {
          "internalType": "string",
          "name": "",
          "type": "string"
        }
      ],
      "stateMutability": "view",
      "type": "function"
    },
    {
      "inputs": [],
      "name": "tokenId",
      "outputs": [
        {
          "internalType": "uint256",
          "name": "",
          "type": "uint256"
        }
      ],
      "stateMutability": "view",
      "type": "function"
    },
    {
      "inputs": [
        {
          "internalType": "uint256",
          "name": "tokenId",
          "type": "uint256"
        }
      ],
      "name": "tokenURI",
      "outputs": [
        {
          "internalType": "string",
          "name": "",
          "type": "string"
        }
      ],
      "stateMutability": "view",
      "type": "function"
    },
    {
      "inputs": [
        {
          "internalType": "address",
          "name": "from",
          "type": "address"
        },
        {
          "internalType": "address",
          "name": "to",
          "type": "address"
        },
        {
          "internalType": "uint256",
          "name": "tokenId",
          "type": "uint256"
        }
      ],
      "name": "transferFrom",
      "outputs": [],
      "stateMutability": "nonpayable",
      "type": "function"
    },
    {
      "inputs": [
        {
          "internalType": "address",
          "name": "newOwner",
          "type": "address"
        }
      ],
      "name": "transferOwnership",
      "outputs": [],
      "stateMutability": "nonpayable",
      "type": "function"
    },
    {
      "inputs": [
        {
          "internalType": "address",
          "name": "_address",
          "type": "address"
        }
      ],
      "name": "updateSFuelAddress",
      "outputs": [],
      "stateMutability": "nonpayable",
      "type": "function"
    }
  ],
  "bytecode": "0x608060405260006007553480156200001657600080fd5b5060405162003bc138038062003bc183398181016040528101906200003c91906200032c565b6040518060400160405280600781526020017f4c696c694e4654000000000000000000000000000000000000000000000000008152506040518060400160405280600781526020017f4c494c494e4654000000000000000000000000000000000000000000000000008152508160009080519060200190620000c092919062000212565b508060019080519060200190620000d992919062000212565b505050620000fc620000f06200014460201b60201c565b6200014c60201b60201c565b80600860006101000a81548173ffffffffffffffffffffffffffffffffffffffff021916908373ffffffffffffffffffffffffffffffffffffffff16021790555050620003c3565b600033905090565b6000600660009054906101000a900473ffffffffffffffffffffffffffffffffffffffff16905081600660006101000a81548173ffffffffffffffffffffffffffffffffffffffff021916908373ffffffffffffffffffffffffffffffffffffffff1602179055508173ffffffffffffffffffffffffffffffffffffffff168173ffffffffffffffffffffffffffffffffffffffff167f8be0079c531659141344cd1fd0a4f28419497f9722a3daafe3b4186f6b6457e060405160405180910390a35050565b82805462000220906200038d565b90600052602060002090601f01602090048101928262000244576000855562000290565b82601f106200025f57805160ff191683800117855562000290565b8280016001018555821562000290579182015b828111156200028f57825182559160200191906001019062000272565b5b5090506200029f9190620002a3565b5090565b5b80821115620002be576000816000905550600101620002a4565b5090565b600080fd5b600073ffffffffffffffffffffffffffffffffffffffff82169050919050565b6000620002f482620002c7565b9050919050565b6200030681620002e7565b81146200031257600080fd5b50565b6000815190506200032681620002fb565b92915050565b600060208284031215620003455762000344620002c2565b5b6000620003558482850162000315565b91505092915050565b7f4e487b7100000000000000000000000000000000000000000000000000000000600052602260045260246000fd5b60006002820490506001821680620003a657607f821691505b60208210811415620003bd57620003bc6200035e565b5b50919050565b6137ee80620003d36000396000f3fe608060405234801561001057600080fd5b50600436106101585760003560e01c806385d1ef63116100c3578063ab43e78d1161007c578063ab43e78d14610379578063b88d4fde14610397578063c87b56dd146103b3578063e985e9c5146103e3578063f2fde38b14610413578063f76f8d781461042f57610158565b806385d1ef63146102dd5780638c41114b146102e75780638da5cb5b1461030357806395d89b4114610321578063a22cb4651461033f578063a3f4df7e1461035b57610158565b806323b872dd1161011557806323b872dd1461021f57806342842e0e1461023b5780635b2b1113146102575780636352211e1461027357806370a08231146102a3578063715018a6146102d357610158565b806301ffc9a71461015d57806306fdde031461018d578063081812fc146101ab578063095ea7b3146101db5780631249c58b146101f757806317d70f7c14610201575b600080fd5b61017760048036038101906101729190612404565b61044d565b604051610184919061244c565b60405180910390f35b61019561052f565b6040516101a29190612500565b60405180910390f35b6101c560048036038101906101c09190612558565b6105c1565b6040516101d291906125c6565b60405180910390f35b6101f560048036038101906101f0919061260d565b610646565b005b6101ff61075e565b005b610209610781565b604051610216919061265c565b60405180910390f35b61023960048036038101906102349190612677565b610787565b005b61025560048036038101906102509190612677565b6107e7565b005b610271600480360381019061026c91906126ca565b610807565b005b61028d60048036038101906102889190612558565b6108a3565b60405161029a91906125c6565b60405180910390f35b6102bd60048036038101906102b891906126ca565b610955565b6040516102ca919061265c565b60405180910390f35b6102db610a0d565b005b6102e5610a95565b005b61030160048036038101906102fc91906126ca565b610bb8565b005b61030b610d79565b60405161031891906125c6565b60405180910390f35b610329610da3565b6040516103369190612500565b60405180910390f35b61035960048036038101906103549190612723565b610e35565b005b610363610e4b565b6040516103709190612500565b60405180910390f35b610381610e84565b60405161038e91906125c6565b60405180910390f35b6103b160048036038101906103ac9190612898565b610eaa565b005b6103cd60048036038101906103c89190612558565b610f0c565b6040516103da9190612500565b60405180910390f35b6103fd60048036038101906103f8919061291b565b610fb3565b60405161040a919061244c565b60405180910390f35b61042d600480360381019061042891906126ca565b611047565b005b61043761113f565b6040516104449190612500565b60405180910390f35b60007f80ac58cd000000000000000000000000000000000000000000000000000000007bffffffffffffffffffffffffffffffffffffffffffffffffffffffff1916827bffffffffffffffffffffffffffffffffffffffffffffffffffffffff1916148061051857507f5b5e139f000000000000000000000000000000000000000000000000000000007bffffffffffffffffffffffffffffffffffffffffffffffffffffffff1916827bffffffffffffffffffffffffffffffffffffffffffffffffffffffff1916145b80610528575061052782611178565b5b9050919050565b60606000805461053e9061298a565b80601f016020809104026020016040519081016040528092919081815260200182805461056a9061298a565b80156105b75780601f1061058c576101008083540402835291602001916105b7565b820191906000526020600020905b81548152906001019060200180831161059a57829003601f168201915b5050505050905090565b60006105cc826111e2565b61060b576040517f08c379a000000000000000000000000000000000000000000000000000000000815260040161060290612a2e565b60405180910390fd5b6004600083815260200190815260200160002060009054906101000a900473ffffffffffffffffffffffffffffffffffffffff169050919050565b6000610651826108a3565b90508073ffffffffffffffffffffffffffffffffffffffff168373ffffffffffffffffffffffffffffffffffffffff1614156106c2576040517f08c379a00000000000000000000000000000000000000000000000000000000081526004016106b990612ac0565b60405180910390fd5b8073ffffffffffffffffffffffffffffffffffffffff166106e161124e565b73ffffffffffffffffffffffffffffffffffffffff161480610710575061070f8161070a61124e565b610fb3565b5b61074f576040517f08c379a000000000000000000000000000000000000000000000000000000000815260040161074690612b52565b60405180910390fd5b6107598383611256565b505050565b61076a3360075461130f565b60016007546107799190612ba1565b600781905550565b60075481565b61079861079261124e565b8261132d565b6107d7576040517f08c379a00000000000000000000000000000000000000000000000000000000081526004016107ce90612c69565b60405180910390fd5b6107e283838361140b565b505050565b61080283838360405180602001604052806000815250610eaa565b505050565b61080f611672565b600073ffffffffffffffffffffffffffffffffffffffff168173ffffffffffffffffffffffffffffffffffffffff16141561087f576040517f08c379a000000000000000000000000000000000000000000000000000000000815260040161087690612cd5565b60405180910390fd5b61088b8160075461130f565b600160075461089a9190612ba1565b60078190555050565b6000806002600084815260200190815260200160002060009054906101000a900473ffffffffffffffffffffffffffffffffffffffff169050600073ffffffffffffffffffffffffffffffffffffffff168173ffffffffffffffffffffffffffffffffffffffff16141561094c576040517f08c379a000000000000000000000000000000000000000000000000000000000815260040161094390612d67565b60405180910390fd5b80915050919050565b60008073ffffffffffffffffffffffffffffffffffffffff168273ffffffffffffffffffffffffffffffffffffffff1614156109c6576040517f08c379a00000000000000000000000000000000000000000000000000000000081526004016109bd90612df9565b60405180910390fd5b600360008373ffffffffffffffffffffffffffffffffffffffff1673ffffffffffffffffffffffffffffffffffffffff168152602001908152602001600020549050919050565b610a1561124e565b73ffffffffffffffffffffffffffffffffffffffff16610a33610d79565b73ffffffffffffffffffffffffffffffffffffffff1614610a89576040517f08c379a0000000000000000000000000000000000000000000000000000000008152600401610a8090612e65565b60405180910390fd5b610a936000611a3a565b565b610ad36040518060400160405280600681526020017f4d696e7420320000000000000000000000000000000000000000000000000000815250611b00565b610adf3360075461130f565b610b1d6040518060400160405280600b81526020017f53616665204d696e746564000000000000000000000000000000000000000000815250611b00565b6001600754610b2c9190612ba1565b600781905550610b706040518060400160405280600481526020017f4e65787400000000000000000000000000000000000000000000000000000000815250611b00565b610b78611672565b610bb66040518060400160405280600f81526020017f446f6e742052657472656976696e670000000000000000000000000000000000815250611b00565b565b610bc061124e565b73ffffffffffffffffffffffffffffffffffffffff16610bde610d79565b73ffffffffffffffffffffffffffffffffffffffff1614610c34576040517f08c379a0000000000000000000000000000000000000000000000000000000008152600401610c2b90612e65565b60405180910390fd5b600073ffffffffffffffffffffffffffffffffffffffff168173ffffffffffffffffffffffffffffffffffffffff161415610ca4576040517f08c379a0000000000000000000000000000000000000000000000000000000008152600401610c9b90612ed1565b60405180910390fd5b600860009054906101000a900473ffffffffffffffffffffffffffffffffffffffff1673ffffffffffffffffffffffffffffffffffffffff168173ffffffffffffffffffffffffffffffffffffffff161415610d35576040517f08c379a0000000000000000000000000000000000000000000000000000000008152600401610d2c90612f3d565b60405180910390fd5b80600860006101000a81548173ffffffffffffffffffffffffffffffffffffffff021916908373ffffffffffffffffffffffffffffffffffffffff16021790555050565b6000600660009054906101000a900473ffffffffffffffffffffffffffffffffffffffff16905090565b606060018054610db29061298a565b80601f0160208091040260200160405190810160405280929190818152602001828054610dde9061298a565b8015610e2b5780601f10610e0057610100808354040283529160200191610e2b565b820191906000526020600020905b815481529060010190602001808311610e0e57829003601f168201915b5050505050905090565b610e47610e4061124e565b8383611b99565b5050565b6040518060400160405280600781526020017f4c696c694e46540000000000000000000000000000000000000000000000000081525081565b600860009054906101000a900473ffffffffffffffffffffffffffffffffffffffff1681565b610ebb610eb561124e565b8361132d565b610efa576040517f08c379a0000000000000000000000000000000000000000000000000000000008152600401610ef190612c69565b60405180910390fd5b610f0684848484611d06565b50505050565b6060610f17826111e2565b610f56576040517f08c379a0000000000000000000000000000000000000000000000000000000008152600401610f4d90612fcf565b60405180910390fd5b6000610f60611d62565b90506000815111610f805760405180602001604052806000815250610fab565b80610f8a84611d79565b604051602001610f9b92919061302b565b6040516020818303038152906040525b915050919050565b6000600560008473ffffffffffffffffffffffffffffffffffffffff1673ffffffffffffffffffffffffffffffffffffffff16815260200190815260200160002060008373ffffffffffffffffffffffffffffffffffffffff1673ffffffffffffffffffffffffffffffffffffffff16815260200190815260200160002060009054906101000a900460ff16905092915050565b61104f61124e565b73ffffffffffffffffffffffffffffffffffffffff1661106d610d79565b73ffffffffffffffffffffffffffffffffffffffff16146110c3576040517f08c379a00000000000000000000000000000000000000000000000000000000081526004016110ba90612e65565b60405180910390fd5b600073ffffffffffffffffffffffffffffffffffffffff168173ffffffffffffffffffffffffffffffffffffffff161415611133576040517f08c379a000000000000000000000000000000000000000000000000000000000815260040161112a906130c1565b60405180910390fd5b61113c81611a3a565b50565b6040518060400160405280600781526020017f4c494c494e46540000000000000000000000000000000000000000000000000081525081565b60007f01ffc9a7000000000000000000000000000000000000000000000000000000007bffffffffffffffffffffffffffffffffffffffffffffffffffffffff1916827bffffffffffffffffffffffffffffffffffffffffffffffffffffffff1916149050919050565b60008073ffffffffffffffffffffffffffffffffffffffff166002600084815260200190815260200160002060009054906101000a900473ffffffffffffffffffffffffffffffffffffffff1673ffffffffffffffffffffffffffffffffffffffff1614159050919050565b600033905090565b816004600083815260200190815260200160002060006101000a81548173ffffffffffffffffffffffffffffffffffffffff021916908373ffffffffffffffffffffffffffffffffffffffff160217905550808273ffffffffffffffffffffffffffffffffffffffff166112c9836108a3565b73ffffffffffffffffffffffffffffffffffffffff167f8c5be1e5ebec7d5bd14f71427d1e84f3dd0314c0f7b2291e5b200ac8c7c3b92560405160405180910390a45050565b611329828260405180602001604052806000815250611eda565b5050565b6000611338826111e2565b611377576040517f08c379a000000000000000000000000000000000000000000000000000000000815260040161136e90613153565b60405180910390fd5b6000611382836108a3565b90508073ffffffffffffffffffffffffffffffffffffffff168473ffffffffffffffffffffffffffffffffffffffff1614806113c457506113c38185610fb3565b5b8061140257508373ffffffffffffffffffffffffffffffffffffffff166113ea846105c1565b73ffffffffffffffffffffffffffffffffffffffff16145b91505092915050565b8273ffffffffffffffffffffffffffffffffffffffff1661142b826108a3565b73ffffffffffffffffffffffffffffffffffffffff1614611481576040517f08c379a0000000000000000000000000000000000000000000000000000000008152600401611478906131e5565b60405180910390fd5b600073ffffffffffffffffffffffffffffffffffffffff168273ffffffffffffffffffffffffffffffffffffffff1614156114f1576040517f08c379a00000000000000000000000000000000000000000000000000000000081526004016114e890613277565b60405180910390fd5b6114fc838383611f35565b611507600082611256565b6001600360008573ffffffffffffffffffffffffffffffffffffffff1673ffffffffffffffffffffffffffffffffffffffff16815260200190815260200160002060008282546115579190613297565b925050819055506001600360008473ffffffffffffffffffffffffffffffffffffffff1673ffffffffffffffffffffffffffffffffffffffff16815260200190815260200160002060008282546115ae9190612ba1565b92505081905550816002600083815260200190815260200160002060006101000a81548173ffffffffffffffffffffffffffffffffffffffff021916908373ffffffffffffffffffffffffffffffffffffffff160217905550808273ffffffffffffffffffffffffffffffffffffffff168473ffffffffffffffffffffffffffffffffffffffff167fddf252ad1be2c89b69c2b068fc378daa952ba7f163c4a11628f55a4df523b3ef60405160405180910390a461166d838383611f3a565b505050565b6116b06040518060400160405280600a81526020017f52657472696576696e6700000000000000000000000000000000000000000000815250611b00565b600073ffffffffffffffffffffffffffffffffffffffff16600860009054906101000a900473ffffffffffffffffffffffffffffffffffffffff1673ffffffffffffffffffffffffffffffffffffffff161415611742576040517f08c379a000000000000000000000000000000000000000000000000000000000815260040161173990613317565b60405180910390fd5b6117806040518060400160405280600581526020017f4e6f742030000000000000000000000000000000000000000000000000000000815250611b00565b6000600860009054906101000a900473ffffffffffffffffffffffffffffffffffffffff1673ffffffffffffffffffffffffffffffffffffffff16336040516024016117cc9190613358565b6040516020818303038152906040527f3eb5938a000000000000000000000000000000000000000000000000000000007bffffffffffffffffffffffffffffffffffffffffffffffffffffffff19166020820180517bffffffffffffffffffffffffffffffffffffffffffffffffffffffff838183161783525050505060405161185691906133ba565b6000604051808303816000865af19150503d8060008114611893576040519150601f19603f3d011682016040523d82523d6000602084013e611898565b606091505b505090506118db6040518060400160405280600981526020017f537563636573733a20000000000000000000000000000000000000000000000081525082611f3f565b6000600860009054906101000a900473ffffffffffffffffffffffffffffffffffffffff1673ffffffffffffffffffffffffffffffffffffffff16336040516024016119279190613358565b6040516020818303038152906040527f58563d21000000000000000000000000000000000000000000000000000000007bffffffffffffffffffffffffffffffffffffffffffffffffffffffff19166020820180517bffffffffffffffffffffffffffffffffffffffffffffffffffffffff83818316178352505050506040516119b191906133ba565b6000604051808303816000865af19150503d80600081146119ee576040519150601f19603f3d011682016040523d82523d6000602084013e6119f3565b606091505b50509050611a366040518060400160405280600a81526020017f53756363657373313a200000000000000000000000000000000000000000000081525082611f3f565b5050565b6000600660009054906101000a900473ffffffffffffffffffffffffffffffffffffffff16905081600660006101000a81548173ffffffffffffffffffffffffffffffffffffffff021916908373ffffffffffffffffffffffffffffffffffffffff1602179055508173ffffffffffffffffffffffffffffffffffffffff168173ffffffffffffffffffffffffffffffffffffffff167f8be0079c531659141344cd1fd0a4f28419497f9722a3daafe3b4186f6b6457e060405160405180910390a35050565b611b9681604051602401611b149190612500565b6040516020818303038152906040527f41304fac000000000000000000000000000000000000000000000000000000007bffffffffffffffffffffffffffffffffffffffffffffffffffffffff19166020820180517bffffffffffffffffffffffffffffffffffffffffffffffffffffffff8381831617835250505050611fdb565b50565b8173ffffffffffffffffffffffffffffffffffffffff168373ffffffffffffffffffffffffffffffffffffffff161415611c08576040517f08c379a0000000000000000000000000000000000000000000000000000000008152600401611bff9061341d565b60405180910390fd5b80600560008573ffffffffffffffffffffffffffffffffffffffff1673ffffffffffffffffffffffffffffffffffffffff16815260200190815260200160002060008473ffffffffffffffffffffffffffffffffffffffff1673ffffffffffffffffffffffffffffffffffffffff16815260200190815260200160002060006101000a81548160ff0219169083151502179055508173ffffffffffffffffffffffffffffffffffffffff168373ffffffffffffffffffffffffffffffffffffffff167f17307eab39ab6107e8899845ad3d59bd9653f200f220920489ca2b5937696c3183604051611cf9919061244c565b60405180910390a3505050565b611d1184848461140b565b611d1d84848484612004565b611d5c576040517f08c379a0000000000000000000000000000000000000000000000000000000008152600401611d53906134af565b60405180910390fd5b50505050565b606060405180602001604052806000815250905090565b60606000821415611dc1576040518060400160405280600181526020017f30000000000000000000000000000000000000000000000000000000000000008152509050611ed5565b600082905060005b60008214611df3578080611ddc906134cf565b915050600a82611dec9190613547565b9150611dc9565b60008167ffffffffffffffff811115611e0f57611e0e61276d565b5b6040519080825280601f01601f191660200182016040528015611e415781602001600182028036833780820191505090505b5090505b60008514611ece57600182611e5a9190613297565b9150600a85611e699190613578565b6030611e759190612ba1565b60f81b818381518110611e8b57611e8a6135a9565b5b60200101907effffffffffffffffffffffffffffffffffffffffffffffffffffffffffffff1916908160001a905350600a85611ec79190613547565b9450611e45565b8093505050505b919050565b611ee4838361219b565b611ef16000848484612004565b611f30576040517f08c379a0000000000000000000000000000000000000000000000000000000008152600401611f27906134af565b60405180910390fd5b505050565b505050565b505050565b611fd78282604051602401611f559291906135d8565b6040516020818303038152906040527fc3b55635000000000000000000000000000000000000000000000000000000007bffffffffffffffffffffffffffffffffffffffffffffffffffffffff19166020820180517bffffffffffffffffffffffffffffffffffffffffffffffffffffffff8381831617835250505050611fdb565b5050565b60008151905060006a636f6e736f6c652e6c6f679050602083016000808483855afa5050505050565b60006120258473ffffffffffffffffffffffffffffffffffffffff16612375565b1561218e578373ffffffffffffffffffffffffffffffffffffffff1663150b7a0261204e61124e565b8786866040518563ffffffff1660e01b81526004016120709493929190613652565b602060405180830381600087803b15801561208a57600080fd5b505af19250505080156120bb57506040513d601f19601f820116820180604052508101906120b891906136b3565b60015b61213e573d80600081146120eb576040519150601f19603f3d011682016040523d82523d6000602084013e6120f0565b606091505b50600081511415612136576040517f08c379a000000000000000000000000000000000000000000000000000000000815260040161212d906134af565b60405180910390fd5b805181602001fd5b63150b7a0260e01b7bffffffffffffffffffffffffffffffffffffffffffffffffffffffff1916817bffffffffffffffffffffffffffffffffffffffffffffffffffffffff191614915050612193565b600190505b949350505050565b600073ffffffffffffffffffffffffffffffffffffffff168273ffffffffffffffffffffffffffffffffffffffff16141561220b576040517f08c379a00000000000000000000000000000000000000000000000000000000081526004016122029061372c565b60405180910390fd5b612214816111e2565b15612254576040517f08c379a000000000000000000000000000000000000000000000000000000000815260040161224b90613798565b60405180910390fd5b61226060008383611f35565b6001600360008473ffffffffffffffffffffffffffffffffffffffff1673ffffffffffffffffffffffffffffffffffffffff16815260200190815260200160002060008282546122b09190612ba1565b92505081905550816002600083815260200190815260200160002060006101000a81548173ffffffffffffffffffffffffffffffffffffffff021916908373ffffffffffffffffffffffffffffffffffffffff160217905550808273ffffffffffffffffffffffffffffffffffffffff16600073ffffffffffffffffffffffffffffffffffffffff167fddf252ad1be2c89b69c2b068fc378daa952ba7f163c4a11628f55a4df523b3ef60405160405180910390a461237160008383611f3a565b5050565b6000808273ffffffffffffffffffffffffffffffffffffffff163b119050919050565b6000604051905090565b600080fd5b600080fd5b60007fffffffff0000000000000000000000000000000000000000000000000000000082169050919050565b6123e1816123ac565b81146123ec57600080fd5b50565b6000813590506123fe816123d8565b92915050565b60006020828403121561241a576124196123a2565b5b6000612428848285016123ef565b91505092915050565b60008115159050919050565b61244681612431565b82525050565b6000602082019050612461600083018461243d565b92915050565b600081519050919050565b600082825260208201905092915050565b60005b838110156124a1578082015181840152602081019050612486565b838111156124b0576000848401525b50505050565b6000601f19601f8301169050919050565b60006124d282612467565b6124dc8185612472565b93506124ec818560208601612483565b6124f5816124b6565b840191505092915050565b6000602082019050818103600083015261251a81846124c7565b905092915050565b6000819050919050565b61253581612522565b811461254057600080fd5b50565b6000813590506125528161252c565b92915050565b60006020828403121561256e5761256d6123a2565b5b600061257c84828501612543565b91505092915050565b600073ffffffffffffffffffffffffffffffffffffffff82169050919050565b60006125b082612585565b9050919050565b6125c0816125a5565b82525050565b60006020820190506125db60008301846125b7565b92915050565b6125ea816125a5565b81146125f557600080fd5b50565b600081359050612607816125e1565b92915050565b60008060408385031215612624576126236123a2565b5b6000612632858286016125f8565b925050602061264385828601612543565b9150509250929050565b61265681612522565b82525050565b6000602082019050612671600083018461264d565b92915050565b6000806000606084860312156126905761268f6123a2565b5b600061269e868287016125f8565b93505060206126af868287016125f8565b92505060406126c086828701612543565b9150509250925092565b6000602082840312156126e0576126df6123a2565b5b60006126ee848285016125f8565b91505092915050565b61270081612431565b811461270b57600080fd5b50565b60008135905061271d816126f7565b92915050565b6000806040838503121561273a576127396123a2565b5b6000612748858286016125f8565b92505060206127598582860161270e565b9150509250929050565b600080fd5b600080fd5b7f4e487b7100000000000000000000000000000000000000000000000000000000600052604160045260246000fd5b6127a5826124b6565b810181811067ffffffffffffffff821117156127c4576127c361276d565b5b80604052505050565b60006127d7612398565b90506127e3828261279c565b919050565b600067ffffffffffffffff8211156128035761280261276d565b5b61280c826124b6565b9050602081019050919050565b82818337600083830152505050565b600061283b612836846127e8565b6127cd565b90508281526020810184848401111561285757612856612768565b5b612862848285612819565b509392505050565b600082601f83011261287f5761287e612763565b5b813561288f848260208601612828565b91505092915050565b600080600080608085870312156128b2576128b16123a2565b5b60006128c0878288016125f8565b94505060206128d1878288016125f8565b93505060406128e287828801612543565b925050606085013567ffffffffffffffff811115612903576129026123a7565b5b61290f8782880161286a565b91505092959194509250565b60008060408385031215612932576129316123a2565b5b6000612940858286016125f8565b9250506020612951858286016125f8565b9150509250929050565b7f4e487b7100000000000000000000000000000000000000000000000000000000600052602260045260246000fd5b600060028204905060018216806129a257607f821691505b602082108114156129b6576129b561295b565b5b50919050565b7f4552433732313a20617070726f76656420717565727920666f72206e6f6e657860008201527f697374656e7420746f6b656e0000000000000000000000000000000000000000602082015250565b6000612a18602c83612472565b9150612a23826129bc565b604082019050919050565b60006020820190508181036000830152612a4781612a0b565b9050919050565b7f4552433732313a20617070726f76616c20746f2063757272656e74206f776e6560008201527f7200000000000000000000000000000000000000000000000000000000000000602082015250565b6000612aaa602183612472565b9150612ab582612a4e565b604082019050919050565b60006020820190508181036000830152612ad981612a9d565b9050919050565b7f4552433732313a20617070726f76652063616c6c6572206973206e6f74206f7760008201527f6e6572206e6f7220617070726f76656420666f7220616c6c0000000000000000602082015250565b6000612b3c603883612472565b9150612b4782612ae0565b604082019050919050565b60006020820190508181036000830152612b6b81612b2f565b9050919050565b7f4e487b7100000000000000000000000000000000000000000000000000000000600052601160045260246000fd5b6000612bac82612522565b9150612bb783612522565b9250827fffffffffffffffffffffffffffffffffffffffffffffffffffffffffffffffff03821115612bec57612beb612b72565b5b828201905092915050565b7f4552433732313a207472616e736665722063616c6c6572206973206e6f74206f60008201527f776e6572206e6f7220617070726f766564000000000000000000000000000000602082015250565b6000612c53603183612472565b9150612c5e82612bf7565b604082019050919050565b60006020820190508181036000830152612c8281612c46565b9050919050565b7f496e76616c6964204d696e746572000000000000000000000000000000000000600082015250565b6000612cbf600e83612472565b9150612cca82612c89565b602082019050919050565b60006020820190508181036000830152612cee81612cb2565b9050919050565b7f4552433732313a206f776e657220717565727920666f72206e6f6e657869737460008201527f656e7420746f6b656e0000000000000000000000000000000000000000000000602082015250565b6000612d51602983612472565b9150612d5c82612cf5565b604082019050919050565b60006020820190508181036000830152612d8081612d44565b9050919050565b7f4552433732313a2062616c616e636520717565727920666f7220746865207a6560008201527f726f206164647265737300000000000000000000000000000000000000000000602082015250565b6000612de3602a83612472565b9150612dee82612d87565b604082019050919050565b60006020820190508181036000830152612e1281612dd6565b9050919050565b7f4f776e61626c653a2063616c6c6572206973206e6f7420746865206f776e6572600082015250565b6000612e4f602083612472565b9150612e5a82612e19565b602082019050919050565b60006020820190508181036000830152612e7e81612e42565b9050919050565b7f416464726573732043616e6e6f74206265203020416464726573730000000000600082015250565b6000612ebb601b83612472565b9150612ec682612e85565b602082019050919050565b60006020820190508181036000830152612eea81612eae565b9050919050565b7f506c656173652070726f766964652061206e6577206164647265737300000000600082015250565b6000612f27601c83612472565b9150612f3282612ef1565b602082019050919050565b60006020820190508181036000830152612f5681612f1a565b9050919050565b7f4552433732314d657461646174613a2055524920717565727920666f72206e6f60008201527f6e6578697374656e7420746f6b656e0000000000000000000000000000000000602082015250565b6000612fb9602f83612472565b9150612fc482612f5d565b604082019050919050565b60006020820190508181036000830152612fe881612fac565b9050919050565b600081905092915050565b600061300582612467565b61300f8185612fef565b935061301f818560208601612483565b80840191505092915050565b60006130378285612ffa565b91506130438284612ffa565b91508190509392505050565b7f4f776e61626c653a206e6577206f776e657220697320746865207a65726f206160008201527f6464726573730000000000000000000000000000000000000000000000000000602082015250565b60006130ab602683612472565b91506130b68261304f565b604082019050919050565b600060208201905081810360008301526130da8161309e565b9050919050565b7f4552433732313a206f70657261746f7220717565727920666f72206e6f6e657860008201527f697374656e7420746f6b656e0000000000000000000000000000000000000000602082015250565b600061313d602c83612472565b9150613148826130e1565b604082019050919050565b6000602082019050818103600083015261316c81613130565b9050919050565b7f4552433732313a207472616e736665722066726f6d20696e636f72726563742060008201527f6f776e6572000000000000000000000000000000000000000000000000000000602082015250565b60006131cf602583612472565b91506131da82613173565b604082019050919050565b600060208201905081810360008301526131fe816131c2565b9050919050565b7f4552433732313a207472616e7366657220746f20746865207a65726f2061646460008201527f7265737300000000000000000000000000000000000000000000000000000000602082015250565b6000613261602483612472565b915061326c82613205565b604082019050919050565b6000602082019050818103600083015261329081613254565b9050919050565b60006132a282612522565b91506132ad83612522565b9250828210156132c0576132bf612b72565b5b828203905092915050565b7f302041646472657373204e6f742056616c696400000000000000000000000000600082015250565b6000613301601383612472565b915061330c826132cb565b602082019050919050565b60006020820190508181036000830152613330816132f4565b9050919050565b600061334282612585565b9050919050565b61335281613337565b82525050565b600060208201905061336d6000830184613349565b92915050565b600081519050919050565b600081905092915050565b600061339482613373565b61339e818561337e565b93506133ae818560208601612483565b80840191505092915050565b60006133c68284613389565b915081905092915050565b7f4552433732313a20617070726f766520746f2063616c6c657200000000000000600082015250565b6000613407601983612472565b9150613412826133d1565b602082019050919050565b60006020820190508181036000830152613436816133fa565b9050919050565b7f4552433732313a207472616e7366657220746f206e6f6e20455243373231526560008201527f63656976657220696d706c656d656e7465720000000000000000000000000000602082015250565b6000613499603283612472565b91506134a48261343d565b604082019050919050565b600060208201905081810360008301526134c88161348c565b9050919050565b60006134da82612522565b91507fffffffffffffffffffffffffffffffffffffffffffffffffffffffffffffffff82141561350d5761350c612b72565b5b600182019050919050565b7f4e487b7100000000000000000000000000000000000000000000000000000000600052601260045260246000fd5b600061355282612522565b915061355d83612522565b92508261356d5761356c613518565b5b828204905092915050565b600061358382612522565b915061358e83612522565b92508261359e5761359d613518565b5b828206905092915050565b7f4e487b7100000000000000000000000000000000000000000000000000000000600052603260045260246000fd5b600060408201905081810360008301526135f281856124c7565b9050613601602083018461243d565b9392505050565b600082825260208201905092915050565b600061362482613373565b61362e8185613608565b935061363e818560208601612483565b613647816124b6565b840191505092915050565b600060808201905061366760008301876125b7565b61367460208301866125b7565b613681604083018561264d565b81810360608301526136938184613619565b905095945050505050565b6000815190506136ad816123d8565b92915050565b6000602082840312156136c9576136c86123a2565b5b60006136d78482850161369e565b91505092915050565b7f4552433732313a206d696e7420746f20746865207a65726f2061646472657373600082015250565b6000613716602083612472565b9150613721826136e0565b602082019050919050565b6000602082019050818103600083015261374581613709565b9050919050565b7f4552433732313a20746f6b656e20616c7265616479206d696e74656400000000600082015250565b6000613782601c83612472565b915061378d8261374c565b602082019050919050565b600060208201905081810360008301526137b181613775565b905091905056fea264697066735822122002b715a81fe39f4fa3ee3147691ecf2c9d9dead22c2603708e691385d8a622e464736f6c63430008090033",
  "linkReferences": {},
  "deployedLinkReferences": {}
}